{
  "address": "0x5FbDB2315678afecb367f032d93F642f64180aa3",
  "abi": [
    {
      "anonymous": false,
      "inputs": [
        {
          "indexed": false,
          "internalType": "uint256",
          "name": "jobId",
          "type": "uint256"
        },
        {
          "indexed": false,
          "internalType": "address",
          "name": "employerAddress",
          "type": "address"
        },
        {
          "indexed": false,
          "internalType": "address",
          "name": "freelancerAddress",
          "type": "address"
        }
      ],
      "name": "AppliedForJob",
      "type": "event"
    },
    {
      "anonymous": false,
      "inputs": [
        {
          "indexed": false,
          "internalType": "address",
          "name": "EmployerAddress",
          "type": "address"
        },
        {
          "indexed": false,
          "internalType": "string",
          "name": "name",
          "type": "string"
        }
      ],
      "name": "EmployerRegistered",
      "type": "event"
    },
    {
      "anonymous": false,
      "inputs": [
        {
          "indexed": false,
          "internalType": "address",
          "name": "freelancerAddress",
          "type": "address"
        },
        {
          "indexed": false,
          "internalType": "string[]",
          "name": "name",
          "type": "string[]"
        },
        {
          "indexed": false,
          "internalType": "uint256",
          "name": "amount",
          "type": "uint256"
        }
      ],
      "name": "FreelancerRegistered",
      "type": "event"
    },
    {
      "anonymous": false,
      "inputs": [
        {
          "indexed": false,
          "internalType": "uint256",
          "name": "jobId",
          "type": "uint256"
        },
        {
          "indexed": false,
          "internalType": "address",
          "name": "sender",
          "type": "address"
        },
        {
          "indexed": false,
          "internalType": "uint256",
          "name": "amount",
          "type": "uint256"
        }
      ],
      "name": "FundsDeposited",
      "type": "event"
    },
    {
      "anonymous": false,
      "inputs": [
        {
          "indexed": false,
          "internalType": "uint256",
          "name": "jobId",
          "type": "uint256"
        },
        {
          "indexed": false,
          "internalType": "address",
          "name": "freelancerAddress",
          "type": "address"
        },
        {
          "indexed": false,
          "internalType": "uint256",
          "name": "amount",
          "type": "uint256"
        }
      ],
      "name": "FundsReleased",
      "type": "event"
    },
    {
      "anonymous": false,
      "inputs": [
        {
          "indexed": false,
          "internalType": "uint256",
          "name": "jobId",
          "type": "uint256"
        },
        {
          "indexed": false,
          "internalType": "address",
          "name": "freelancerAddress",
          "type": "address"
        },
        {
          "indexed": false,
          "internalType": "uint256",
          "name": "payment",
          "type": "uint256"
        }
      ],
      "name": "JobCompleted",
      "type": "event"
    },
    {
      "anonymous": false,
      "inputs": [
        {
          "indexed": false,
          "internalType": "uint256",
          "name": "jobId",
          "type": "uint256"
        },
        {
          "indexed": false,
          "internalType": "string",
          "name": "title",
          "type": "string"
        }
      ],
      "name": "JobCreated",
      "type": "event"
    },
    {
      "anonymous": false,
      "inputs": [
        {
          "indexed": false,
          "internalType": "address",
          "name": "freelancer",
          "type": "address"
        },
        {
          "indexed": false,
          "internalType": "uint256",
          "name": "amount",
          "type": "uint256"
        }
      ],
      "name": "WithdrawFund",
      "type": "event"
    },
    {
      "inputs": [
        {
          "internalType": "uint256",
          "name": "",
          "type": "uint256"
        }
      ],
      "name": "allFreelancerAddresses",
      "outputs": [
        {
          "internalType": "address",
          "name": "",
          "type": "address"
        }
      ],
      "stateMutability": "view",
      "type": "function"
    },
    {
      "inputs": [],
      "name": "allJobs",
      "outputs": [
        {
          "components": [
            {
              "internalType": "uint8",
              "name": "id",
              "type": "uint8"
            },
            {
              "internalType": "address",
              "name": "employer",
              "type": "address"
            },
            {
              "internalType": "string",
              "name": "title",
              "type": "string"
            },
            {
              "internalType": "string",
              "name": "description",
              "type": "string"
            },
            {
              "internalType": "uint256",
              "name": "budget",
              "type": "uint256"
            },
            {
              "internalType": "bool",
              "name": "completed",
              "type": "bool"
            },
            {
              "internalType": "address[]",
              "name": "applicants",
              "type": "address[]"
            },
            {
              "internalType": "address",
              "name": "hiredFreelancer",
              "type": "address"
            }
          ],
          "internalType": "struct Djob.Job[]",
          "name": "props",
          "type": "tuple[]"
        }
      ],
      "stateMutability": "view",
      "type": "function"
    },
    {
      "inputs": [
        {
          "internalType": "uint256",
          "name": "jobId",
          "type": "uint256"
        }
      ],
      "name": "applyForJob",
      "outputs": [],
      "stateMutability": "nonpayable",
      "type": "function"
    },
    {
      "inputs": [
        {
          "internalType": "uint256",
          "name": "jobId",
          "type": "uint256"
        },
        {
          "internalType": "address",
          "name": "freelancerAddress",
          "type": "address"
        }
      ],
      "name": "completeJob",
      "outputs": [],
      "stateMutability": "nonpayable",
      "type": "function"
    },
    {
      "inputs": [
        {
          "internalType": "string",
          "name": "_title",
          "type": "string"
        },
        {
          "internalType": "string",
          "name": "_description",
          "type": "string"
        },
        {
          "internalType": "uint256",
          "name": "_budget",
          "type": "uint256"
        }
      ],
      "name": "createJob",
      "outputs": [],
      "stateMutability": "nonpayable",
      "type": "function"
    },
    {
      "inputs": [
        {
          "internalType": "uint256",
          "name": "jobId",
          "type": "uint256"
        }
      ],
      "name": "depositFunds",
      "outputs": [],
      "stateMutability": "payable",
      "type": "function"
    },
    {
      "inputs": [
        {
          "internalType": "address",
          "name": "",
          "type": "address"
        }
      ],
      "name": "employers",
      "outputs": [
        {
          "internalType": "address",
          "name": "employerAddress",
          "type": "address"
        },
        {
          "internalType": "string",
          "name": "name",
          "type": "string"
        },
        {
          "internalType": "string",
          "name": "industry",
          "type": "string"
        },
        {
          "internalType": "uint256",
          "name": "balance",
          "type": "uint256"
        },
        {
          "internalType": "string",
          "name": "country",
          "type": "string"
        },
        {
          "internalType": "string",
          "name": "image",
          "type": "string"
        },
        {
          "internalType": "bool",
          "name": "registered",
          "type": "bool"
        },
        {
          "internalType": "uint256",
          "name": "registration_date",
          "type": "uint256"
        }
      ],
      "stateMutability": "view",
      "type": "function"
    },
    {
      "inputs": [
        {
          "internalType": "address",
          "name": "",
          "type": "address"
        }
      ],
      "name": "freelancers",
      "outputs": [
        {
          "internalType": "address",
          "name": "freelancerAddress",
          "type": "address"
        },
        {
          "internalType": "string",
          "name": "name",
          "type": "string"
        },
        {
          "internalType": "string",
          "name": "skills",
          "type": "string"
        },
        {
          "internalType": "uint256",
          "name": "balance",
          "type": "uint256"
        },
        {
          "internalType": "string",
          "name": "country",
          "type": "string"
        },
        {
          "internalType": "string",
          "name": "gigTitle",
          "type": "string"
        },
        {
          "internalType": "string",
          "name": "gitDescription",
          "type": "string"
        },
        {
          "internalType": "uint256",
          "name": "jobsCompleted",
          "type": "uint256"
        },
        {
          "internalType": "bool",
          "name": "registered",
          "type": "bool"
        },
        {
          "internalType": "uint256",
          "name": "registration_date",
          "type": "uint256"
        },
        {
          "internalType": "uint256",
          "name": "starting_price",
          "type": "uint256"
        }
      ],
      "stateMutability": "view",
      "type": "function"
    },
    {
      "inputs": [],
      "name": "getAllFreelancers",
      "outputs": [
        {
          "components": [
            {
              "internalType": "address",
              "name": "freelancerAddress",
              "type": "address"
            },
            {
              "internalType": "string",
              "name": "name",
              "type": "string"
            },
            {
              "internalType": "string",
              "name": "skills",
              "type": "string"
            },
            {
              "internalType": "uint256",
              "name": "balance",
              "type": "uint256"
            },
            {
              "internalType": "string",
              "name": "country",
              "type": "string"
            },
            {
              "internalType": "string",
              "name": "gigTitle",
              "type": "string"
            },
            {
              "internalType": "string",
              "name": "gitDescription",
              "type": "string"
            },
            {
              "internalType": "string[]",
              "name": "images",
              "type": "string[]"
            },
            {
              "internalType": "uint256",
              "name": "jobsCompleted",
              "type": "uint256"
            },
            {
              "internalType": "bool",
              "name": "registered",
              "type": "bool"
            },
            {
              "internalType": "uint256",
              "name": "registration_date",
              "type": "uint256"
            },
            {
              "internalType": "uint256",
              "name": "starting_price",
              "type": "uint256"
            }
          ],
          "internalType": "struct Djob.Freelancer[]",
          "name": "",
          "type": "tuple[]"
        }
      ],
      "stateMutability": "view",
      "type": "function"
    },
    {
      "inputs": [
        {
          "internalType": "address",
          "name": "_employer",
          "type": "address"
        }
      ],
      "name": "getEmployerByAddress",
      "outputs": [
        {
          "components": [
            {
              "internalType": "address",
              "name": "employerAddress",
              "type": "address"
            },
            {
              "internalType": "string",
              "name": "name",
              "type": "string"
            },
            {
              "internalType": "string",
              "name": "industry",
              "type": "string"
            },
            {
              "internalType": "uint256",
              "name": "balance",
              "type": "uint256"
            },
            {
              "internalType": "string",
              "name": "country",
              "type": "string"
            },
            {
              "internalType": "string",
              "name": "image",
              "type": "string"
            },
            {
              "internalType": "bool",
              "name": "registered",
              "type": "bool"
            },
            {
              "internalType": "uint256",
              "name": "registration_date",
              "type": "uint256"
            }
          ],
          "internalType": "struct Djob.Employer",
          "name": "props",
          "type": "tuple"
        }
      ],
      "stateMutability": "view",
      "type": "function"
    },
    {
      "inputs": [
        {
          "internalType": "address",
          "name": "_employer",
          "type": "address"
        },
        {
          "internalType": "uint256",
          "name": "_job_id",
          "type": "uint256"
        }
      ],
      "name": "getEmployerEscrow",
      "outputs": [
        {
          "internalType": "uint256",
          "name": "",
          "type": "uint256"
        }
      ],
      "stateMutability": "view",
      "type": "function"
    },
    {
      "inputs": [
        {
          "internalType": "address",
          "name": "_freelancer",
          "type": "address"
        }
      ],
      "name": "getFreelancerByAddress",
      "outputs": [
        {
          "components": [
            {
              "internalType": "address",
              "name": "freelancerAddress",
              "type": "address"
            },
            {
              "internalType": "string",
              "name": "name",
              "type": "string"
            },
            {
              "internalType": "string",
              "name": "skills",
              "type": "string"
            },
            {
              "internalType": "uint256",
              "name": "balance",
              "type": "uint256"
            },
            {
              "internalType": "string",
              "name": "country",
              "type": "string"
            },
            {
              "internalType": "string",
              "name": "gigTitle",
              "type": "string"
            },
            {
              "internalType": "string",
              "name": "gitDescription",
              "type": "string"
            },
            {
              "internalType": "string[]",
              "name": "images",
              "type": "string[]"
            },
            {
              "internalType": "uint256",
              "name": "jobsCompleted",
              "type": "uint256"
            },
            {
              "internalType": "bool",
              "name": "registered",
              "type": "bool"
            },
            {
              "internalType": "uint256",
              "name": "registration_date",
              "type": "uint256"
            },
            {
              "internalType": "uint256",
              "name": "starting_price",
              "type": "uint256"
            }
          ],
          "internalType": "struct Djob.Freelancer",
          "name": "props",
          "type": "tuple"
        }
      ],
      "stateMutability": "view",
      "type": "function"
    },
    {
      "inputs": [
        {
          "internalType": "uint256",
          "name": "jobId",
          "type": "uint256"
        }
      ],
      "name": "getJobByID",
      "outputs": [
        {
          "components": [
            {
              "internalType": "uint8",
              "name": "id",
              "type": "uint8"
            },
            {
              "internalType": "address",
              "name": "employer",
              "type": "address"
            },
            {
              "internalType": "string",
              "name": "title",
              "type": "string"
            },
            {
              "internalType": "string",
              "name": "description",
              "type": "string"
            },
            {
              "internalType": "uint256",
              "name": "budget",
              "type": "uint256"
            },
            {
              "internalType": "bool",
              "name": "completed",
              "type": "bool"
            },
            {
              "internalType": "address[]",
              "name": "applicants",
              "type": "address[]"
            },
            {
              "internalType": "address",
              "name": "hiredFreelancer",
              "type": "address"
            }
          ],
          "internalType": "struct Djob.Job",
          "name": "props",
          "type": "tuple"
        }
      ],
      "stateMutability": "view",
      "type": "function"
    },
    {
      "inputs": [
        {
          "internalType": "uint256",
          "name": "jobId",
          "type": "uint256"
        },
        {
          "internalType": "address",
          "name": "freelancerAddress",
          "type": "address"
        }
      ],
      "name": "hireFreelancer",
      "outputs": [],
      "stateMutability": "nonpayable",
      "type": "function"
    },
    {
      "inputs": [],
      "name": "owner",
      "outputs": [
        {
          "internalType": "address",
          "name": "",
          "type": "address"
        }
      ],
      "stateMutability": "view",
      "type": "function"
    },
    {
      "inputs": [
        {
          "internalType": "string",
          "name": "_name",
          "type": "string"
        },
        {
          "internalType": "string",
          "name": "_industry",
          "type": "string"
        },
        {
          "internalType": "string",
          "name": "_country",
          "type": "string"
        },
        {
          "internalType": "string",
          "name": "_imageURI",
          "type": "string"
        }
      ],
      "name": "registerEmployer",
      "outputs": [],
      "stateMutability": "nonpayable",
      "type": "function"
    },
    {
      "inputs": [
        {
          "internalType": "string",
          "name": "_name",
          "type": "string"
        },
        {
          "internalType": "string",
          "name": "_skills",
          "type": "string"
        },
        {
          "internalType": "string",
          "name": "_country",
          "type": "string"
        },
        {
          "internalType": "string",
          "name": "_gigTitle",
          "type": "string"
        },
        {
          "internalType": "string",
          "name": "_gigDesc",
          "type": "string"
        },
        {
          "internalType": "string[]",
          "name": "_images",
          "type": "string[]"
        },
        {
          "internalType": "uint256",
          "name": "_starting_price",
          "type": "uint256"
        }
      ],
      "name": "registerFreelancer",
      "outputs": [],
      "stateMutability": "nonpayable",
      "type": "function"
    },
    {
      "inputs": [
        {
          "internalType": "uint256",
          "name": "jobId",
          "type": "uint256"
        },
        {
          "internalType": "address",
          "name": "freelancerAddress",
          "type": "address"
        }
      ],
      "name": "releaseEscrow",
      "outputs": [],
      "stateMutability": "nonpayable",
      "type": "function"
    },
    {
      "inputs": [],
      "name": "totalCompletedJobs",
      "outputs": [
        {
          "internalType": "uint256",
          "name": "",
          "type": "uint256"
        }
      ],
      "stateMutability": "view",
      "type": "function"
    },
    {
      "inputs": [],
      "name": "totalEmployers",
      "outputs": [
        {
          "internalType": "uint256",
          "name": "",
          "type": "uint256"
        }
      ],
      "stateMutability": "view",
      "type": "function"
    },
    {
      "inputs": [],
      "name": "totalFreelancers",
      "outputs": [
        {
          "internalType": "uint256",
          "name": "",
          "type": "uint256"
        }
      ],
      "stateMutability": "view",
      "type": "function"
    },
    {
      "inputs": [],
      "name": "totalJobs",
      "outputs": [
        {
          "internalType": "uint8",
          "name": "",
          "type": "uint8"
        }
      ],
      "stateMutability": "view",
      "type": "function"
    },
    {
      "inputs": [],
      "name": "withdrawEarnings",
      "outputs": [],
      "stateMutability": "nonpayable",
      "type": "function"
    }
  ],
  "transactionHash": "0x29c947e3dc545d81feb230f613a7c7a8cab089b511170807fc7f63735aaa6a84",
  "args": [],
  "numDeployments": 1,
  "solcInputHash": "327ac34f40893ae41852bd825893118b",
  "bytecode": "0x608060405234801561000f575f80fd5b50335f806101000a81548173ffffffffffffffffffffffffffffffffffffffff021916908373ffffffffffffffffffffffffffffffffffffffff160217905550615bdd806200005d5f395ff3fe60806040526004361061013f575f3560e01c80635e586eb1116100b5578063b73c6ce91161006e578063b73c6ce914610460578063c27a9dd414610476578063c6cb3bbe146104b2578063c8d1b6aa146104da578063dfac8ce514610504578063e0c94ae5146105405761013f565b80635e586eb1146103585780636a6b67d11461038257806373a06f42146103aa5780637a787125146103d25780638da5cb5b1461040e578063b0f26f18146104385761013f565b80631c7af7a0116101075780631c7af7a01461022c57806321bd669314610268578063359b248c146102ae578063371ae9f4146102d85780633b76594d1461031457806358d7f895146103305761013f565b80630be435bd146101435780630e553442146101865780631033397b146101ae5780631906b4ce146101d85780631ace87b314610202575b5f80fd5b34801561014e575f80fd5b5061016960048036038101906101649190613ce7565b610568565b60405161017d989796959493929190613ddd565b60405180910390f35b348015610191575f80fd5b506101ac60048036038101906101a79190613fa1565b6107ef565b005b3480156101b9575f80fd5b506101c2610a51565b6040516101cf9190614075565b60405180910390f35b3480156101e3575f80fd5b506101ec610a57565b6040516101f99190614075565b60405180910390f35b34801561020d575f80fd5b50610216610a5d565b60405161022391906140a9565b60405180910390f35b348015610237575f80fd5b50610252600480360381019061024d9190613ce7565b610a6f565b60405161025f9190614316565b60405180910390f35b348015610273575f80fd5b5061028e60048036038101906102899190613ce7565b610f01565b6040516102a59b9a99989796959493929190614336565b60405180910390f35b3480156102b9575f80fd5b506102c2611220565b6040516102cf91906145e1565b60405180910390f35b3480156102e3575f80fd5b506102fe60048036038101906102f9919061462b565b61177e565b60405161030b91906147c8565b60405180910390f35b61032e6004803603810190610329919061462b565b611a9d565b005b34801561033b575f80fd5b50610356600480360381019061035191906148ca565b611cfe565b005b348015610363575f80fd5b5061036c612028565b6040516103799190614075565b60405180910390f35b34801561038d575f80fd5b506103a860048036038101906103a39190614a0f565b61202e565b005b3480156103b5575f80fd5b506103d060048036038101906103cb9190614a4d565b61231a565b005b3480156103dd575f80fd5b506103f860048036038101906103f39190613ce7565b612656565b6040516104059190614b97565b60405180910390f35b348015610419575f80fd5b50610422612970565b60405161042f9190614bb7565b60405180910390f35b348015610443575f80fd5b5061045e60048036038101906104599190614a0f565b612993565b005b34801561046b575f80fd5b50610474612bf6565b005b348015610481575f80fd5b5061049c6004803603810190610497919061462b565b612e59565b6040516104a99190614bb7565b60405180910390f35b3480156104bd575f80fd5b506104d860048036038101906104d39190614a0f565b612e94565b005b3480156104e5575f80fd5b506104ee6132aa565b6040516104fb9190614d46565b60405180910390f35b34801561050f575f80fd5b5061052a60048036038101906105259190614d66565b613620565b6040516105379190614075565b60405180910390f35b34801561054b575f80fd5b506105666004803603810190610561919061462b565b613676565b005b6007602052805f5260405f205f91509050805f015f9054906101000a900473ffffffffffffffffffffffffffffffffffffffff16908060010180546105ac90614dd1565b80601f01602080910402602001604051908101604052809291908181526020018280546105d890614dd1565b80156106235780601f106105fa57610100808354040283529160200191610623565b820191905f5260205f20905b81548152906001019060200180831161060657829003601f168201915b50505050509080600201805461063890614dd1565b80601f016020809104026020016040519081016040528092919081815260200182805461066490614dd1565b80156106af5780601f10610686576101008083540402835291602001916106af565b820191905f5260205f20905b81548152906001019060200180831161069257829003601f168201915b5050505050908060030154908060040180546106ca90614dd1565b80601f01602080910402602001604051908101604052809291908181526020018280546106f690614dd1565b80156107415780601f1061071857610100808354040283529160200191610741565b820191905f5260205f20905b81548152906001019060200180831161072457829003601f168201915b50505050509080600501805461075690614dd1565b80601f016020809104026020016040519081016040528092919081815260200182805461078290614dd1565b80156107cd5780601f106107a4576101008083540402835291602001916107cd565b820191905f5260205f20905b8154815290600101906020018083116107b057829003601f168201915b505050505090806006015f9054906101000a900460ff16908060070154905088565b5f151560075f3373ffffffffffffffffffffffffffffffffffffffff1673ffffffffffffffffffffffffffffffffffffffff1681526020019081526020015f206006015f9054906101000a900460ff16151514610881576040517f08c379a000000000000000000000000000000000000000000000000000000000815260040161087890614e4b565b60405180910390fd5b5f84511161088d575f80fd5b5f835111610899575f80fd5b60025f8154809291906108ab90614e96565b91905055506040518061010001604052803373ffffffffffffffffffffffffffffffffffffffff1681526020018581526020018481526020015f81526020018381526020018281526020016001151581526020014281525060075f3373ffffffffffffffffffffffffffffffffffffffff1673ffffffffffffffffffffffffffffffffffffffff1681526020019081526020015f205f820151815f015f6101000a81548173ffffffffffffffffffffffffffffffffffffffff021916908373ffffffffffffffffffffffffffffffffffffffff1602179055506020820151816001019081610999919061507a565b5060408201518160020190816109af919061507a565b506060820151816003015560808201518160040190816109cf919061507a565b5060a08201518160050190816109e5919061507a565b5060c0820151816006015f6101000a81548160ff02191690831515021790555060e082015181600701559050507f6c0e8aabac6898602e5264c9a24b2394d9895a70bd2f4c44c8ca0fcfcec6477f3385604051610a43929190615149565b60405180910390a150505050565b60035481565b60025481565b5f60149054906101000a900460ff1681565b610a776139e6565b60065f8373ffffffffffffffffffffffffffffffffffffffff1673ffffffffffffffffffffffffffffffffffffffff1681526020019081526020015f20604051806101800160405290815f82015f9054906101000a900473ffffffffffffffffffffffffffffffffffffffff1673ffffffffffffffffffffffffffffffffffffffff1673ffffffffffffffffffffffffffffffffffffffff168152602001600182018054610b2490614dd1565b80601f0160208091040260200160405190810160405280929190818152602001828054610b5090614dd1565b8015610b9b5780601f10610b7257610100808354040283529160200191610b9b565b820191905f5260205f20905b815481529060010190602001808311610b7e57829003601f168201915b50505050508152602001600282018054610bb490614dd1565b80601f0160208091040260200160405190810160405280929190818152602001828054610be090614dd1565b8015610c2b5780601f10610c0257610100808354040283529160200191610c2b565b820191905f5260205f20905b815481529060010190602001808311610c0e57829003601f168201915b5050505050815260200160038201548152602001600482018054610c4e90614dd1565b80601f0160208091040260200160405190810160405280929190818152602001828054610c7a90614dd1565b8015610cc55780601f10610c9c57610100808354040283529160200191610cc5565b820191905f5260205f20905b815481529060010190602001808311610ca857829003601f168201915b50505050508152602001600582018054610cde90614dd1565b80601f0160208091040260200160405190810160405280929190818152602001828054610d0a90614dd1565b8015610d555780601f10610d2c57610100808354040283529160200191610d55565b820191905f5260205f20905b815481529060010190602001808311610d3857829003601f168201915b50505050508152602001600682018054610d6e90614dd1565b80601f0160208091040260200160405190810160405280929190818152602001828054610d9a90614dd1565b8015610de55780601f10610dbc57610100808354040283529160200191610de5565b820191905f5260205f20905b815481529060010190602001808311610dc857829003601f168201915b5050505050815260200160078201805480602002602001604051908101604052809291908181526020015f905b82821015610eba578382905f5260205f20018054610e2f90614dd1565b80601f0160208091040260200160405190810160405280929190818152602001828054610e5b90614dd1565b8015610ea65780601f10610e7d57610100808354040283529160200191610ea6565b820191905f5260205f20905b815481529060010190602001808311610e8957829003601f168201915b505050505081526020019060010190610e12565b50505050815260200160088201548152602001600982015f9054906101000a900460ff16151515158152602001600a8201548152602001600b820154815250509050919050565b6006602052805f5260405f205f91509050805f015f9054906101000a900473ffffffffffffffffffffffffffffffffffffffff1690806001018054610f4590614dd1565b80601f0160208091040260200160405190810160405280929190818152602001828054610f7190614dd1565b8015610fbc5780601f10610f9357610100808354040283529160200191610fbc565b820191905f5260205f20905b815481529060010190602001808311610f9f57829003601f168201915b505050505090806002018054610fd190614dd1565b80601f0160208091040260200160405190810160405280929190818152602001828054610ffd90614dd1565b80156110485780601f1061101f57610100808354040283529160200191611048565b820191905f5260205f20905b81548152906001019060200180831161102b57829003601f168201915b50505050509080600301549080600401805461106390614dd1565b80601f016020809104026020016040519081016040528092919081815260200182805461108f90614dd1565b80156110da5780601f106110b1576101008083540402835291602001916110da565b820191905f5260205f20905b8154815290600101906020018083116110bd57829003601f168201915b5050505050908060050180546110ef90614dd1565b80601f016020809104026020016040519081016040528092919081815260200182805461111b90614dd1565b80156111665780601f1061113d57610100808354040283529160200191611166565b820191905f5260205f20905b81548152906001019060200180831161114957829003601f168201915b50505050509080600601805461117b90614dd1565b80601f01602080910402602001604051908101604052809291908181526020018280546111a790614dd1565b80156111f25780601f106111c9576101008083540402835291602001916111f2565b820191905f5260205f20905b8154815290600101906020018083116111d557829003601f168201915b505050505090806008015490806009015f9054906101000a900460ff169080600a01549080600b015490508b565b60605f60015467ffffffffffffffff81111561123f5761123e613e7d565b5b60405190808252806020026020018201604052801561127857816020015b6112656139e6565b81526020019060019003908161125d5790505b5090505f5b6001548110156117765760065f6004838154811061129e5761129d615177565b5b905f5260205f20015f9054906101000a900473ffffffffffffffffffffffffffffffffffffffff1673ffffffffffffffffffffffffffffffffffffffff1673ffffffffffffffffffffffffffffffffffffffff1681526020019081526020015f20604051806101800160405290815f82015f9054906101000a900473ffffffffffffffffffffffffffffffffffffffff1673ffffffffffffffffffffffffffffffffffffffff1673ffffffffffffffffffffffffffffffffffffffff16815260200160018201805461136f90614dd1565b80601f016020809104026020016040519081016040528092919081815260200182805461139b90614dd1565b80156113e65780601f106113bd576101008083540402835291602001916113e6565b820191905f5260205f20905b8154815290600101906020018083116113c957829003601f168201915b505050505081526020016002820180546113ff90614dd1565b80601f016020809104026020016040519081016040528092919081815260200182805461142b90614dd1565b80156114765780601f1061144d57610100808354040283529160200191611476565b820191905f5260205f20905b81548152906001019060200180831161145957829003601f168201915b505050505081526020016003820154815260200160048201805461149990614dd1565b80601f01602080910402602001604051908101604052809291908181526020018280546114c590614dd1565b80156115105780601f106114e757610100808354040283529160200191611510565b820191905f5260205f20905b8154815290600101906020018083116114f357829003601f168201915b5050505050815260200160058201805461152990614dd1565b80601f016020809104026020016040519081016040528092919081815260200182805461155590614dd1565b80156115a05780601f10611577576101008083540402835291602001916115a0565b820191905f5260205f20905b81548152906001019060200180831161158357829003601f168201915b505050505081526020016006820180546115b990614dd1565b80601f01602080910402602001604051908101604052809291908181526020018280546115e590614dd1565b80156116305780601f1061160757610100808354040283529160200191611630565b820191905f5260205f20905b81548152906001019060200180831161161357829003601f168201915b5050505050815260200160078201805480602002602001604051908101604052809291908181526020015f905b82821015611705578382905f5260205f2001805461167a90614dd1565b80601f01602080910402602001604051908101604052809291908181526020018280546116a690614dd1565b80156116f15780601f106116c8576101008083540402835291602001916116f1565b820191905f5260205f20905b8154815290600101906020018083116116d457829003601f168201915b50505050508152602001906001019061165d565b50505050815260200160088201548152602001600982015f9054906101000a900460ff16151515158152602001600a8201548152602001600b8201548152505082828151811061175857611757615177565b5b6020026020010181905250808061176e90614e96565b91505061127d565b508091505090565b611786613a59565b5f821180156117a657505f60149054906101000a900460ff1660ff168211155b6117e5576040517f08c379a00000000000000000000000000000000000000000000000000000000081526004016117dc906151ee565b60405180910390fd5b60055f8381526020019081526020015f20604051806101000160405290815f82015f9054906101000a900460ff1660ff1660ff1681526020015f820160019054906101000a900473ffffffffffffffffffffffffffffffffffffffff1673ffffffffffffffffffffffffffffffffffffffff1673ffffffffffffffffffffffffffffffffffffffff16815260200160018201805461188290614dd1565b80601f01602080910402602001604051908101604052809291908181526020018280546118ae90614dd1565b80156118f95780601f106118d0576101008083540402835291602001916118f9565b820191905f5260205f20905b8154815290600101906020018083116118dc57829003601f168201915b5050505050815260200160028201805461191290614dd1565b80601f016020809104026020016040519081016040528092919081815260200182805461193e90614dd1565b80156119895780601f1061196057610100808354040283529160200191611989565b820191905f5260205f20905b81548152906001019060200180831161196c57829003601f168201915b5050505050815260200160038201548152602001600482015f9054906101000a900460ff1615151515815260200160058201805480602002602001604051908101604052809291908181526020018280548015611a3857602002820191905f5260205f20905b815f9054906101000a900473ffffffffffffffffffffffffffffffffffffffff1673ffffffffffffffffffffffffffffffffffffffff16815260200190600101908083116119ef575b50505050508152602001600682015f9054906101000a900473ffffffffffffffffffffffffffffffffffffffff1673ffffffffffffffffffffffffffffffffffffffff1673ffffffffffffffffffffffffffffffffffffffff16815250509050919050565b5f60149054906101000a900460ff1660ff168111158015611abd57505f81115b611afc576040517f08c379a0000000000000000000000000000000000000000000000000000000008152600401611af390615256565b60405180910390fd5b5f60055f8381526020019081526020015f2090505f60075f3373ffffffffffffffffffffffffffffffffffffffff1673ffffffffffffffffffffffffffffffffffffffff1681526020019081526020015f2090503373ffffffffffffffffffffffffffffffffffffffff16825f0160019054906101000a900473ffffffffffffffffffffffffffffffffffffffff1673ffffffffffffffffffffffffffffffffffffffff1614611baa575f80fd5b816004015f9054906101000a900460ff1615611bfb576040517f08c379a0000000000000000000000000000000000000000000000000000000008152600401611bf2906152be565b60405180910390fd5b8160030154341015611c42576040517f08c379a0000000000000000000000000000000000000000000000000000000008152600401611c3990615326565b60405180910390fd5b34816003015f828254611c559190615344565b925050819055503460085f3373ffffffffffffffffffffffffffffffffffffffff1673ffffffffffffffffffffffffffffffffffffffff1681526020019081526020015f205f8581526020019081526020015f205f828254611cb79190615344565b925050819055507fe030e47e27825a2ad1b19e4cf2e70bfbfb3124af275c7727a82b114ba7b29a85833334604051611cf193929190615377565b60405180910390a1505050565b5f151560065f3373ffffffffffffffffffffffffffffffffffffffff1673ffffffffffffffffffffffffffffffffffffffff1681526020019081526020015f206009015f9054906101000a900460ff16151514611d90576040517f08c379a0000000000000000000000000000000000000000000000000000000008152600401611d8790614e4b565b60405180910390fd5b5f875111611d9c575f80fd5b5f865111611da8575f80fd5b60015f815480929190611dba90614e96565b91905055506040518061018001604052803373ffffffffffffffffffffffffffffffffffffffff1681526020018881526020018781526020015f81526020018681526020018581526020018481526020018381526020015f81526020016001151581526020014281526020018281525060065f3373ffffffffffffffffffffffffffffffffffffffff1673ffffffffffffffffffffffffffffffffffffffff1681526020019081526020015f205f820151815f015f6101000a81548173ffffffffffffffffffffffffffffffffffffffff021916908373ffffffffffffffffffffffffffffffffffffffff1602179055506020820151816001019081611ec0919061507a565b506040820151816002019081611ed6919061507a565b50606082015181600301556080820151816004019081611ef6919061507a565b5060a0820151816005019081611f0c919061507a565b5060c0820151816006019081611f22919061507a565b5060e0820151816007019080519060200190611f3f929190613aca565b506101008201518160080155610120820151816009015f6101000a81548160ff02191690831515021790555061014082015181600a015561016082015181600b0155905050600433908060018154018082558091505060019003905f5260205f20015f9091909190916101000a81548173ffffffffffffffffffffffffffffffffffffffff021916908373ffffffffffffffffffffffffffffffffffffffff1602179055507f21bef455eb0e77b12a579311ca8616d72216c8b628577eeda276ac16fe5b622e3383836040516120179392919061542f565b60405180910390a150505050505050565b60015481565b338073ffffffffffffffffffffffffffffffffffffffff1660075f3373ffffffffffffffffffffffffffffffffffffffff1673ffffffffffffffffffffffffffffffffffffffff1681526020019081526020015f205f015f9054906101000a900473ffffffffffffffffffffffffffffffffffffffff1673ffffffffffffffffffffffffffffffffffffffff16146120fb576040517f08c379a00000000000000000000000000000000000000000000000000000000081526004016120f2906154b5565b60405180910390fd5b5f60149054906101000a900460ff1660ff16831115801561211b57505f83115b61215a576040517f08c379a00000000000000000000000000000000000000000000000000000000081526004016121519061551d565b60405180910390fd5b5f60055f8581526020019081526020015f2090505f73ffffffffffffffffffffffffffffffffffffffff16815f0160019054906101000a900473ffffffffffffffffffffffffffffffffffffffff1673ffffffffffffffffffffffffffffffffffffffff16036121ff576040517f08c379a00000000000000000000000000000000000000000000000000000000081526004016121f690615585565b60405180910390fd5b612209818461397c565b612248576040517f08c379a000000000000000000000000000000000000000000000000000000000815260040161223f906155ed565b60405180910390fd5b5f816003015490506001826004015f6101000a81548160ff02191690831515021790555060035f81548092919061227e90614e96565b919050555060065f8573ffffffffffffffffffffffffffffffffffffffff1673ffffffffffffffffffffffffffffffffffffffff1681526020019081526020015f206008015f8154809291906122d390614e96565b91905055507f4dbba472101e9f148a3a5ecbe793f0ee16a7efe4bf3f8cbfab5330e1642ef95585858360405161230b93929190615377565b60405180910390a15050505050565b338073ffffffffffffffffffffffffffffffffffffffff1660075f3373ffffffffffffffffffffffffffffffffffffffff1673ffffffffffffffffffffffffffffffffffffffff1681526020019081526020015f205f015f9054906101000a900473ffffffffffffffffffffffffffffffffffffffff1673ffffffffffffffffffffffffffffffffffffffff16146123e7576040517f08c379a00000000000000000000000000000000000000000000000000000000081526004016123de906154b5565b60405180910390fd5b5f601481819054906101000a900460ff16809291906124059061560b565b91906101000a81548160ff021916908360ff160217905550505f8060149054906101000a900460ff1690506040518061010001604052808260ff1681526020013373ffffffffffffffffffffffffffffffffffffffff1681526020018681526020018581526020018481526020015f151581526020015f67ffffffffffffffff81111561249557612494613e7d565b5b6040519080825280602002602001820160405280156124c35781602001602082028036833780820191505090505b5081526020015f73ffffffffffffffffffffffffffffffffffffffff1681525060055f8360ff1681526020019081526020015f205f820151815f015f6101000a81548160ff021916908360ff1602179055506020820151815f0160016101000a81548173ffffffffffffffffffffffffffffffffffffffff021916908373ffffffffffffffffffffffffffffffffffffffff1602179055506040820151816001019081612570919061507a565b506060820151816002019081612586919061507a565b506080820151816003015560a0820151816004015f6101000a81548160ff02191690831515021790555060c08201518160050190805190602001906125cc929190613b21565b5060e0820151816006015f6101000a81548173ffffffffffffffffffffffffffffffffffffffff021916908373ffffffffffffffffffffffffffffffffffffffff1602179055509050507fb63f0fdfb200b05c8b95fb4dcf8f8abd30f0b6884d532792e705afab4f37380a8186604051612647929190615663565b60405180910390a15050505050565b61265e613ba8565b60075f8373ffffffffffffffffffffffffffffffffffffffff1673ffffffffffffffffffffffffffffffffffffffff1681526020019081526020015f20604051806101000160405290815f82015f9054906101000a900473ffffffffffffffffffffffffffffffffffffffff1673ffffffffffffffffffffffffffffffffffffffff1673ffffffffffffffffffffffffffffffffffffffff16815260200160018201805461270b90614dd1565b80601f016020809104026020016040519081016040528092919081815260200182805461273790614dd1565b80156127825780601f1061275957610100808354040283529160200191612782565b820191905f5260205f20905b81548152906001019060200180831161276557829003601f168201915b5050505050815260200160028201805461279b90614dd1565b80601f01602080910402602001604051908101604052809291908181526020018280546127c790614dd1565b80156128125780601f106127e957610100808354040283529160200191612812565b820191905f5260205f20905b8154815290600101906020018083116127f557829003601f168201915b505050505081526020016003820154815260200160048201805461283590614dd1565b80601f016020809104026020016040519081016040528092919081815260200182805461286190614dd1565b80156128ac5780601f10612883576101008083540402835291602001916128ac565b820191905f5260205f20905b81548152906001019060200180831161288f57829003601f168201915b505050505081526020016005820180546128c590614dd1565b80601f01602080910402602001604051908101604052809291908181526020018280546128f190614dd1565b801561293c5780601f106129135761010080835404028352916020019161293c565b820191905f5260205f20905b81548152906001019060200180831161291f57829003601f168201915b50505050508152602001600682015f9054906101000a900460ff161515151581526020016007820154815250509050919050565b5f8054906101000a900473ffffffffffffffffffffffffffffffffffffffff1681565b338073ffffffffffffffffffffffffffffffffffffffff1660075f3373ffffffffffffffffffffffffffffffffffffffff1673ffffffffffffffffffffffffffffffffffffffff1681526020019081526020015f205f015f9054906101000a900473ffffffffffffffffffffffffffffffffffffffff1673ffffffffffffffffffffffffffffffffffffffff1614612a60576040517f08c379a0000000000000000000000000000000000000000000000000000000008152600401612a57906154b5565b60405180910390fd5b5f60149054906101000a900460ff1660ff168311158015612a8057505f83115b612abf576040517f08c379a0000000000000000000000000000000000000000000000000000000008152600401612ab690615256565b60405180910390fd5b5f60055f8581526020019081526020015f2090505f73ffffffffffffffffffffffffffffffffffffffff16815f0160019054906101000a900473ffffffffffffffffffffffffffffffffffffffff1673ffffffffffffffffffffffffffffffffffffffff1603612b64576040517f08c379a0000000000000000000000000000000000000000000000000000000008152600401612b5b90615585565b60405180910390fd5b612b6e818461397c565b15612bae576040517f08c379a0000000000000000000000000000000000000000000000000000000008152600401612ba5906156db565b60405180910390fd5b82816006015f6101000a81548173ffffffffffffffffffffffffffffffffffffffff021916908373ffffffffffffffffffffffffffffffffffffffff16021790555050505050565b338073ffffffffffffffffffffffffffffffffffffffff1660065f3373ffffffffffffffffffffffffffffffffffffffff1673ffffffffffffffffffffffffffffffffffffffff1681526020019081526020015f205f015f9054906101000a900473ffffffffffffffffffffffffffffffffffffffff1673ffffffffffffffffffffffffffffffffffffffff1614612cc3576040517f08c379a0000000000000000000000000000000000000000000000000000000008152600401612cba90615743565b60405180910390fd5b5f60065f3373ffffffffffffffffffffffffffffffffffffffff1673ffffffffffffffffffffffffffffffffffffffff1681526020019081526020015f2090505f816003015411612d49576040517f08c379a0000000000000000000000000000000000000000000000000000000008152600401612d40906157ab565b60405180910390fd5b5f6064605f8360030154612d5d91906157c9565b612d679190615837565b90505f82600301819055505f3373ffffffffffffffffffffffffffffffffffffffff1682604051612d9790615894565b5f6040518083038185875af1925050503d805f8114612dd1576040519150601f19603f3d011682016040523d82523d5f602084013e612dd6565b606091505b5050905080612e1a576040517f08c379a0000000000000000000000000000000000000000000000000000000008152600401612e11906158f2565b60405180910390fd5b7f09ad672d4e7c4892da934d1051932ebe9ec4b6ec8c3f40d569176db3e93e5abe3383604051612e4b929190615910565b60405180910390a150505050565b60048181548110612e68575f80fd5b905f5260205f20015f915054906101000a900473ffffffffffffffffffffffffffffffffffffffff1681565b338073ffffffffffffffffffffffffffffffffffffffff1660075f3373ffffffffffffffffffffffffffffffffffffffff1673ffffffffffffffffffffffffffffffffffffffff1681526020019081526020015f205f015f9054906101000a900473ffffffffffffffffffffffffffffffffffffffff1673ffffffffffffffffffffffffffffffffffffffff1614612f61576040517f08c379a0000000000000000000000000000000000000000000000000000000008152600401612f58906154b5565b60405180910390fd5b5f60149054906101000a900460ff1660ff168311158015612f8157505f83115b612fc0576040517f08c379a0000000000000000000000000000000000000000000000000000000008152600401612fb790615256565b60405180910390fd5b5f60055f8581526020019081526020015f209050805f0160019054906101000a900473ffffffffffffffffffffffffffffffffffffffff1673ffffffffffffffffffffffffffffffffffffffff163373ffffffffffffffffffffffffffffffffffffffff161461302e575f80fd5b6001816004015f6101000a81548160ff0219169083151502179055613088576040517f08c379a000000000000000000000000000000000000000000000000000000000815260040161307f90615981565b60405180910390fd5b5f60085f3373ffffffffffffffffffffffffffffffffffffffff1673ffffffffffffffffffffffffffffffffffffffff1681526020019081526020015f205f8681526020019081526020015f205490505f811161311a576040517f08c379a0000000000000000000000000000000000000000000000000000000008152600401613111906159e9565b60405180910390fd5b8160030154811015613161576040517f08c379a000000000000000000000000000000000000000000000000000000000815260040161315890615a51565b60405180910390fd5b5f60085f3373ffffffffffffffffffffffffffffffffffffffff1673ffffffffffffffffffffffffffffffffffffffff1681526020019081526020015f205f8781526020019081526020015f20819055505f60065f8673ffffffffffffffffffffffffffffffffffffffff1673ffffffffffffffffffffffffffffffffffffffff1681526020019081526020015f20905081816003015f8282546132059190615344565b925050819055505f60075f3373ffffffffffffffffffffffffffffffffffffffff1673ffffffffffffffffffffffffffffffffffffffff1681526020019081526020015f20905082816003015f82825461325f9190615a6f565b925050819055507f6e3c6096795c8298a218b2cfb8bde42726ff7c9a3d27b4d3ba41ab7f74feb5fb87878560405161329993929190615377565b60405180910390a150505050505050565b60605f60149054906101000a900460ff1660ff1667ffffffffffffffff8111156132d7576132d6613e7d565b5b60405190808252806020026020018201604052801561331057816020015b6132fd613a59565b8152602001906001900390816132f55790505b5090505f5b5f60149054906101000a900460ff1660ff1681101561361c5760055f60018361333e9190615344565b81526020019081526020015f20604051806101000160405290815f82015f9054906101000a900460ff1660ff1660ff1681526020015f820160019054906101000a900473ffffffffffffffffffffffffffffffffffffffff1673ffffffffffffffffffffffffffffffffffffffff1673ffffffffffffffffffffffffffffffffffffffff1681526020016001820180546133d790614dd1565b80601f016020809104026020016040519081016040528092919081815260200182805461340390614dd1565b801561344e5780601f106134255761010080835404028352916020019161344e565b820191905f5260205f20905b81548152906001019060200180831161343157829003601f168201915b5050505050815260200160028201805461346790614dd1565b80601f016020809104026020016040519081016040528092919081815260200182805461349390614dd1565b80156134de5780601f106134b5576101008083540402835291602001916134de565b820191905f5260205f20905b8154815290600101906020018083116134c157829003601f168201915b5050505050815260200160038201548152602001600482015f9054906101000a900460ff161515151581526020016005820180548060200260200160405190810160405280929190818152602001828054801561358d57602002820191905f5260205f20905b815f9054906101000a900473ffffffffffffffffffffffffffffffffffffffff1673ffffffffffffffffffffffffffffffffffffffff1681526020019060010190808311613544575b50505050508152602001600682015f9054906101000a900473ffffffffffffffffffffffffffffffffffffffff1673ffffffffffffffffffffffffffffffffffffffff1673ffffffffffffffffffffffffffffffffffffffff16815250508282815181106135fe576135fd615177565b5b6020026020010181905250808061361490614e96565b915050613315565b5090565b5f60085f8473ffffffffffffffffffffffffffffffffffffffff1673ffffffffffffffffffffffffffffffffffffffff1681526020019081526020015f205f8381526020019081526020015f2054905092915050565b5f60149054906101000a900460ff1660ff16811115801561369657505f81115b6136d5576040517f08c379a00000000000000000000000000000000000000000000000000000000081526004016136cc9061551d565b60405180910390fd5b5f60055f8381526020019081526020015f2090505f73ffffffffffffffffffffffffffffffffffffffff16815f0160019054906101000a900473ffffffffffffffffffffffffffffffffffffffff1673ffffffffffffffffffffffffffffffffffffffff160361377a576040517f08c379a000000000000000000000000000000000000000000000000000000000815260040161377190615585565b60405180910390fd5b5f73ffffffffffffffffffffffffffffffffffffffff163373ffffffffffffffffffffffffffffffffffffffff16036137e8576040517f08c379a00000000000000000000000000000000000000000000000000000000081526004016137df90615aec565b60405180910390fd5b5f5b81600501805490508110156138b7573373ffffffffffffffffffffffffffffffffffffffff1682600501828154811061382657613825615177565b5b905f5260205f20015f9054906101000a900473ffffffffffffffffffffffffffffffffffffffff1673ffffffffffffffffffffffffffffffffffffffff16036138a4576040517f08c379a000000000000000000000000000000000000000000000000000000000815260040161389b90615b54565b60405180910390fd5b80806138af90614e96565b9150506137ea565b508060050133908060018154018082558091505060019003905f5260205f20015f9091909190916101000a81548173ffffffffffffffffffffffffffffffffffffffff021916908373ffffffffffffffffffffffffffffffffffffffff1602179055507f2b443803772f6da2db17c7357119f932841870fdf0a3a5d8ca9d2e112bb1332682825f0160019054906101000a900473ffffffffffffffffffffffffffffffffffffffff163360405161397093929190615b72565b60405180910390a15050565b5f8173ffffffffffffffffffffffffffffffffffffffff16836006015f9054906101000a900473ffffffffffffffffffffffffffffffffffffffff1673ffffffffffffffffffffffffffffffffffffffff16036139dc57600190506139e0565b5f90505b92915050565b6040518061018001604052805f73ffffffffffffffffffffffffffffffffffffffff16815260200160608152602001606081526020015f8152602001606081526020016060815260200160608152602001606081526020015f81526020015f151581526020015f81526020015f81525090565b6040518061010001604052805f60ff1681526020015f73ffffffffffffffffffffffffffffffffffffffff16815260200160608152602001606081526020015f81526020015f15158152602001606081526020015f73ffffffffffffffffffffffffffffffffffffffff1681525090565b828054828255905f5260205f20908101928215613b10579160200282015b82811115613b0f578251829081613aff919061507a565b5091602001919060010190613ae8565b5b509050613b1d9190613c01565b5090565b828054828255905f5260205f20908101928215613b97579160200282015b82811115613b96578251825f6101000a81548173ffffffffffffffffffffffffffffffffffffffff021916908373ffffffffffffffffffffffffffffffffffffffff16021790555091602001919060010190613b3f565b5b509050613ba49190613c24565b5090565b6040518061010001604052805f73ffffffffffffffffffffffffffffffffffffffff16815260200160608152602001606081526020015f815260200160608152602001606081526020015f151581526020015f81525090565b5b80821115613c20575f8181613c179190613c3f565b50600101613c02565b5090565b5b80821115613c3b575f815f905550600101613c25565b5090565b508054613c4b90614dd1565b5f825580601f10613c5c5750613c79565b601f0160209004905f5260205f2090810190613c789190613c24565b5b50565b5f604051905090565b5f80fd5b5f80fd5b5f73ffffffffffffffffffffffffffffffffffffffff82169050919050565b5f613cb682613c8d565b9050919050565b613cc681613cac565b8114613cd0575f80fd5b50565b5f81359050613ce181613cbd565b92915050565b5f60208284031215613cfc57613cfb613c85565b5b5f613d0984828501613cd3565b91505092915050565b613d1b81613cac565b82525050565b5f81519050919050565b5f82825260208201905092915050565b5f5b83811015613d58578082015181840152602081019050613d3d565b5f8484015250505050565b5f601f19601f8301169050919050565b5f613d7d82613d21565b613d878185613d2b565b9350613d97818560208601613d3b565b613da081613d63565b840191505092915050565b5f819050919050565b613dbd81613dab565b82525050565b5f8115159050919050565b613dd781613dc3565b82525050565b5f61010082019050613df15f83018b613d12565b8181036020830152613e03818a613d73565b90508181036040830152613e178189613d73565b9050613e266060830188613db4565b8181036080830152613e388187613d73565b905081810360a0830152613e4c8186613d73565b9050613e5b60c0830185613dce565b613e6860e0830184613db4565b9998505050505050505050565b5f80fd5b5f80fd5b7f4e487b71000000000000000000000000000000000000000000000000000000005f52604160045260245ffd5b613eb382613d63565b810181811067ffffffffffffffff82111715613ed257613ed1613e7d565b5b80604052505050565b5f613ee4613c7c565b9050613ef08282613eaa565b919050565b5f67ffffffffffffffff821115613f0f57613f0e613e7d565b5b613f1882613d63565b9050602081019050919050565b828183375f83830152505050565b5f613f45613f4084613ef5565b613edb565b905082815260208101848484011115613f6157613f60613e79565b5b613f6c848285613f25565b509392505050565b5f82601f830112613f8857613f87613e75565b5b8135613f98848260208601613f33565b91505092915050565b5f805f8060808587031215613fb957613fb8613c85565b5b5f85013567ffffffffffffffff811115613fd657613fd5613c89565b5b613fe287828801613f74565b945050602085013567ffffffffffffffff81111561400357614002613c89565b5b61400f87828801613f74565b935050604085013567ffffffffffffffff8111156140305761402f613c89565b5b61403c87828801613f74565b925050606085013567ffffffffffffffff81111561405d5761405c613c89565b5b61406987828801613f74565b91505092959194509250565b5f6020820190506140885f830184613db4565b92915050565b5f60ff82169050919050565b6140a38161408e565b82525050565b5f6020820190506140bc5f83018461409a565b92915050565b6140cb81613cac565b82525050565b5f82825260208201905092915050565b5f6140eb82613d21565b6140f581856140d1565b9350614105818560208601613d3b565b61410e81613d63565b840191505092915050565b61412281613dab565b82525050565b5f81519050919050565b5f82825260208201905092915050565b5f819050602082019050919050565b5f61415c83836140e1565b905092915050565b5f602082019050919050565b5f61417a82614128565b6141848185614132565b93508360208202850161419685614142565b805f5b858110156141d157848403895281516141b28582614151565b94506141bd83614164565b925060208a01995050600181019050614199565b50829750879550505050505092915050565b6141ec81613dc3565b82525050565b5f61018083015f8301516142085f8601826140c2565b506020830151848203602086015261422082826140e1565b9150506040830151848203604086015261423a82826140e1565b915050606083015161424f6060860182614119565b506080830151848203608086015261426782826140e1565b91505060a083015184820360a086015261428182826140e1565b91505060c083015184820360c086015261429b82826140e1565b91505060e083015184820360e08601526142b58282614170565b9150506101008301516142cc610100860182614119565b506101208301516142e16101208601826141e3565b506101408301516142f6610140860182614119565b5061016083015161430b610160860182614119565b508091505092915050565b5f6020820190508181035f83015261432e81846141f2565b905092915050565b5f6101608201905061434a5f83018e613d12565b818103602083015261435c818d613d73565b90508181036040830152614370818c613d73565b905061437f606083018b613db4565b8181036080830152614391818a613d73565b905081810360a08301526143a58189613d73565b905081810360c08301526143b98188613d73565b90506143c860e0830187613db4565b6143d6610100830186613dce565b6143e4610120830185613db4565b6143f2610140830184613db4565b9c9b505050505050505050505050565b5f81519050919050565b5f82825260208201905092915050565b5f819050602082019050919050565b5f61018083015f8301516144415f8601826140c2565b506020830151848203602086015261445982826140e1565b9150506040830151848203604086015261447382826140e1565b91505060608301516144886060860182614119565b50608083015184820360808601526144a082826140e1565b91505060a083015184820360a08601526144ba82826140e1565b91505060c083015184820360c08601526144d482826140e1565b91505060e083015184820360e08601526144ee8282614170565b915050610100830151614505610100860182614119565b5061012083015161451a6101208601826141e3565b5061014083015161452f610140860182614119565b50610160830151614544610160860182614119565b508091505092915050565b5f61455a838361442b565b905092915050565b5f602082019050919050565b5f61457882614402565b614582818561440c565b9350836020820285016145948561441c565b805f5b858110156145cf57848403895281516145b0858261454f565b94506145bb83614562565b925060208a01995050600181019050614597565b50829750879550505050505092915050565b5f6020820190508181035f8301526145f9818461456e565b905092915050565b61460a81613dab565b8114614614575f80fd5b50565b5f8135905061462581614601565b92915050565b5f602082840312156146405761463f613c85565b5b5f61464d84828501614617565b91505092915050565b61465f8161408e565b82525050565b5f81519050919050565b5f82825260208201905092915050565b5f819050602082019050919050565b5f61469983836140c2565b60208301905092915050565b5f602082019050919050565b5f6146bb82614665565b6146c5818561466f565b93506146d08361467f565b805f5b838110156147005781516146e7888261468e565b97506146f2836146a5565b9250506001810190506146d3565b5085935050505092915050565b5f61010083015f8301516147235f860182614656565b50602083015161473660208601826140c2565b506040830151848203604086015261474e82826140e1565b9150506060830151848203606086015261476882826140e1565b915050608083015161477d6080860182614119565b5060a083015161479060a08601826141e3565b5060c083015184820360c08601526147a882826146b1565b91505060e08301516147bd60e08601826140c2565b508091505092915050565b5f6020820190508181035f8301526147e0818461470d565b905092915050565b5f67ffffffffffffffff82111561480257614801613e7d565b5b602082029050602081019050919050565b5f80fd5b5f614829614824846147e8565b613edb565b9050808382526020820190506020840283018581111561484c5761484b614813565b5b835b8181101561489357803567ffffffffffffffff81111561487157614870613e75565b5b80860161487e8982613f74565b8552602085019450505060208101905061484e565b5050509392505050565b5f82601f8301126148b1576148b0613e75565b5b81356148c1848260208601614817565b91505092915050565b5f805f805f805f60e0888a0312156148e5576148e4613c85565b5b5f88013567ffffffffffffffff81111561490257614901613c89565b5b61490e8a828b01613f74565b975050602088013567ffffffffffffffff81111561492f5761492e613c89565b5b61493b8a828b01613f74565b965050604088013567ffffffffffffffff81111561495c5761495b613c89565b5b6149688a828b01613f74565b955050606088013567ffffffffffffffff81111561498957614988613c89565b5b6149958a828b01613f74565b945050608088013567ffffffffffffffff8111156149b6576149b5613c89565b5b6149c28a828b01613f74565b93505060a088013567ffffffffffffffff8111156149e3576149e2613c89565b5b6149ef8a828b0161489d565b92505060c0614a008a828b01614617565b91505092959891949750929550565b5f8060408385031215614a2557614a24613c85565b5b5f614a3285828601614617565b9250506020614a4385828601613cd3565b9150509250929050565b5f805f60608486031215614a6457614a63613c85565b5b5f84013567ffffffffffffffff811115614a8157614a80613c89565b5b614a8d86828701613f74565b935050602084013567ffffffffffffffff811115614aae57614aad613c89565b5b614aba86828701613f74565b9250506040614acb86828701614617565b9150509250925092565b5f61010083015f830151614aeb5f8601826140c2565b5060208301518482036020860152614b0382826140e1565b91505060408301518482036040860152614b1d82826140e1565b9150506060830151614b326060860182614119565b5060808301518482036080860152614b4a82826140e1565b91505060a083015184820360a0860152614b6482826140e1565b91505060c0830151614b7960c08601826141e3565b5060e0830151614b8c60e0860182614119565b508091505092915050565b5f6020820190508181035f830152614baf8184614ad5565b905092915050565b5f602082019050614bca5f830184613d12565b92915050565b5f81519050919050565b5f82825260208201905092915050565b5f819050602082019050919050565b5f61010083015f830151614c0f5f860182614656565b506020830151614c2260208601826140c2565b5060408301518482036040860152614c3a82826140e1565b91505060608301518482036060860152614c5482826140e1565b9150506080830151614c696080860182614119565b5060a0830151614c7c60a08601826141e3565b5060c083015184820360c0860152614c9482826146b1565b91505060e0830151614ca960e08601826140c2565b508091505092915050565b5f614cbf8383614bf9565b905092915050565b5f602082019050919050565b5f614cdd82614bd0565b614ce78185614bda565b935083602082028501614cf985614bea565b805f5b85811015614d345784840389528151614d158582614cb4565b9450614d2083614cc7565b925060208a01995050600181019050614cfc565b50829750879550505050505092915050565b5f6020820190508181035f830152614d5e8184614cd3565b905092915050565b5f8060408385031215614d7c57614d7b613c85565b5b5f614d8985828601613cd3565b9250506020614d9a85828601614617565b9150509250929050565b7f4e487b71000000000000000000000000000000000000000000000000000000005f52602260045260245ffd5b5f6002820490506001821680614de857607f821691505b602082108103614dfb57614dfa614da4565b5b50919050565b7f41520000000000000000000000000000000000000000000000000000000000005f82015250565b5f614e35600283613d2b565b9150614e4082614e01565b602082019050919050565b5f6020820190508181035f830152614e6281614e29565b9050919050565b7f4e487b71000000000000000000000000000000000000000000000000000000005f52601160045260245ffd5b5f614ea082613dab565b91507fffffffffffffffffffffffffffffffffffffffffffffffffffffffffffffffff8203614ed257614ed1614e69565b5b600182019050919050565b5f819050815f5260205f209050919050565b5f6020601f8301049050919050565b5f82821b905092915050565b5f60088302614f397fffffffffffffffffffffffffffffffffffffffffffffffffffffffffffffffff82614efe565b614f438683614efe565b95508019841693508086168417925050509392505050565b5f819050919050565b5f614f7e614f79614f7484613dab565b614f5b565b613dab565b9050919050565b5f819050919050565b614f9783614f64565b614fab614fa382614f85565b848454614f0a565b825550505050565b5f90565b614fbf614fb3565b614fca818484614f8e565b505050565b5b81811015614fed57614fe25f82614fb7565b600181019050614fd0565b5050565b601f8211156150325761500381614edd565b61500c84614eef565b8101602085101561501b578190505b61502f61502785614eef565b830182614fcf565b50505b505050565b5f82821c905092915050565b5f6150525f1984600802615037565b1980831691505092915050565b5f61506a8383615043565b9150826002028217905092915050565b61508382613d21565b67ffffffffffffffff81111561509c5761509b613e7d565b5b6150a68254614dd1565b6150b1828285614ff1565b5f60209050601f8311600181146150e2575f84156150d0578287015190505b6150da858261505f565b865550615141565b601f1984166150f086614edd565b5f5b82811015615117578489015182556001820191506020850194506020810190506150f2565b868310156151345784890151615130601f891682615043565b8355505b6001600288020188555050505b505050505050565b5f60408201905061515c5f830185613d12565b818103602083015261516e8184613d73565b90509392505050565b7f4e487b71000000000000000000000000000000000000000000000000000000005f52603260045260245ffd5b7f494a0000000000000000000000000000000000000000000000000000000000005f82015250565b5f6151d8600283613d2b565b91506151e3826151a4565b602082019050919050565b5f6020820190508181035f830152615205816151cc565b9050919050565b7f4a44452e000000000000000000000000000000000000000000000000000000005f82015250565b5f615240600483613d2b565b915061524b8261520c565b602082019050919050565b5f6020820190508181035f83015261526d81615234565b9050919050565b7f4a414300000000000000000000000000000000000000000000000000000000005f82015250565b5f6152a8600383613d2b565b91506152b382615274565b602082019050919050565b5f6020820190508181035f8301526152d58161529c565b9050919050565b7f49410000000000000000000000000000000000000000000000000000000000005f82015250565b5f615310600283613d2b565b915061531b826152dc565b602082019050919050565b5f6020820190508181035f83015261533d81615304565b9050919050565b5f61534e82613dab565b915061535983613dab565b925082820190508082111561537157615370614e69565b5b92915050565b5f60608201905061538a5f830186613db4565b6153976020830185613d12565b6153a46040830184613db4565b949350505050565b5f82825260208201905092915050565b5f6153c682614128565b6153d081856153ac565b9350836020820285016153e285614142565b805f5b8581101561541d57848403895281516153fe8582614151565b945061540983614164565b925060208a019950506001810190506153e5565b50829750879550505050505092915050565b5f6060820190506154425f830186613d12565b818103602083015261545481856153bc565b90506154636040830184613db4565b949350505050565b7f4f454600000000000000000000000000000000000000000000000000000000005f82015250565b5f61549f600383613d2b565b91506154aa8261546b565b602082019050919050565b5f6020820190508181035f8301526154cc81615493565b9050919050565b7f4a444500000000000000000000000000000000000000000000000000000000005f82015250565b5f615507600383613d2b565b9150615512826154d3565b602082019050919050565b5f6020820190508181035f830152615534816154fb565b9050919050565b7f4a4e4600000000000000000000000000000000000000000000000000000000005f82015250565b5f61556f600383613d2b565b915061557a8261553b565b602082019050919050565b5f6020820190508181035f83015261559c81615563565b9050919050565b7f464e4800000000000000000000000000000000000000000000000000000000005f82015250565b5f6155d7600383613d2b565b91506155e2826155a3565b602082019050919050565b5f6020820190508181035f830152615604816155cb565b9050919050565b5f6156158261408e565b915060ff820361562857615627614e69565b5b600182019050919050565b5f61564d6156486156438461408e565b614f5b565b613dab565b9050919050565b61565d81615633565b82525050565b5f6040820190506156765f830185615654565b81810360208301526156888184613d73565b90509392505050565b7f46414800000000000000000000000000000000000000000000000000000000005f82015250565b5f6156c5600383613d2b565b91506156d082615691565b602082019050919050565b5f6020820190508181035f8301526156f2816156b9565b9050919050565b7f4f464600000000000000000000000000000000000000000000000000000000005f82015250565b5f61572d600383613d2b565b9150615738826156f9565b602082019050919050565b5f6020820190508181035f83015261575a81615721565b9050919050565b7f4e425700000000000000000000000000000000000000000000000000000000005f82015250565b5f615795600383613d2b565b91506157a082615761565b602082019050919050565b5f6020820190508181035f8301526157c281615789565b9050919050565b5f6157d382613dab565b91506157de83613dab565b92508282026157ec81613dab565b9150828204841483151761580357615802614e69565b5b5092915050565b7f4e487b71000000000000000000000000000000000000000000000000000000005f52601260045260245ffd5b5f61584182613dab565b915061584c83613dab565b92508261585c5761585b61580a565b5b828204905092915050565b5f81905092915050565b50565b5f61587f5f83615867565b915061588a82615871565b5f82019050919050565b5f61589e82615874565b9150819050919050565b7f54460000000000000000000000000000000000000000000000000000000000005f82015250565b5f6158dc600283613d2b565b91506158e7826158a8565b602082019050919050565b5f6020820190508181035f830152615909816158d0565b9050919050565b5f6040820190506159235f830185613d12565b6159306020830184613db4565b9392505050565b7f4a4e4300000000000000000000000000000000000000000000000000000000005f82015250565b5f61596b600383613d2b565b915061597682615937565b602082019050919050565b5f6020820190508181035f8301526159988161595f565b9050919050565b7f4e464500000000000000000000000000000000000000000000000000000000005f82015250565b5f6159d3600383613d2b565b91506159de8261599f565b602082019050919050565b5f6020820190508181035f830152615a00816159c7565b9050919050565b7f49460000000000000000000000000000000000000000000000000000000000005f82015250565b5f615a3b600283613d2b565b9150615a4682615a07565b602082019050919050565b5f6020820190508181035f830152615a6881615a2f565b9050919050565b5f615a7982613dab565b9150615a8483613dab565b9250828203905081811115615a9c57615a9b614e69565b5b92915050565b7f49412e00000000000000000000000000000000000000000000000000000000005f82015250565b5f615ad6600383613d2b565b9150615ae182615aa2565b602082019050919050565b5f6020820190508181035f830152615b0381615aca565b9050919050565b7f59484100000000000000000000000000000000000000000000000000000000005f82015250565b5f615b3e600383613d2b565b9150615b4982615b0a565b602082019050919050565b5f6020820190508181035f830152615b6b81615b32565b9050919050565b5f606082019050615b855f830186613db4565b615b926020830185613d12565b615b9f6040830184613d12565b94935050505056fea26469706673582212205d801666b8b8609e489d4cf806981a6be3f132e119eebf96cac9a7540b16e92c64736f6c63430008140033",
  "devdoc": {
    "kind": "dev",
    "methods": {
      "allJobs()": {
        "returns": {
          "props": "props"
        }
      },
      "applyForJob(uint256)": {
        "params": {
          "jobId": ", job id"
        }
      },
      "completeJob(uint256,address)": {
        "params": {
          "jobId": ", @param freelancerAddress"
        }
      },
      "createJob(string,string,uint256)": {
        "params": {
          "_title": ", @param _description, @param _budget"
        }
      },
      "depositFunds(uint256)": {
        "params": {
          "jobId": ", job id"
        }
      },
      "getEmployerByAddress(address)": {
        "params": {
          "_employer": ", address"
        },
        "returns": {
          "props": "props"
        }
      },
      "getEmployerEscrow(address,uint256)": {
        "params": {
          "_employer": ", @param _job_id"
        },
        "returns": {
          "_0": "uint"
        }
      },
      "getFreelancerByAddress(address)": {
        "params": {
          "_freelancer": ", address"
        },
        "returns": {
          "props": "props"
        }
      },
      "getJobByID(uint256)": {
        "params": {
          "jobId": ", jobId"
        },
        "returns": {
          "props": "props"
        }
      },
      "hireFreelancer(uint256,address)": {
        "params": {
          "jobId": ", @param freelancerAddress"
        }
      },
      "registerEmployer(string,string,string,string)": {
        "params": {
          "_name": ", @param _industry"
        }
      },
      "registerFreelancer(string,string,string,string,string,string[],uint256)": {
        "params": {
          "_name": ", @param _skills"
        }
      },
      "releaseEscrow(uint256,address)": {
        "params": {
          "jobId": ", @param freelancerAddress"
        }
      }
    },
    "version": 1
  },
  "userdoc": {
    "kind": "user",
    "methods": {
      "allJobs()": {
        "notice": "retrieves all jobs"
      },
      "applyForJob(uint256)": {
        "notice": "job application"
      },
      "completeJob(uint256,address)": {
        "notice": "process job completion"
      },
      "createJob(string,string,uint256)": {
        "notice": "job creation and increment job count,"
      },
      "depositFunds(uint256)": {
        "notice": "process employer funds deposit for a specific job"
      },
      "getAllFreelancers()": {
        "notice": "return all freelancers"
      },
      "getEmployerByAddress(address)": {
        "notice": "retrieves employer by address"
      },
      "getEmployerEscrow(address,uint256)": {
        "notice": "retrieves employer escrow balance"
      },
      "getFreelancerByAddress(address)": {
        "notice": "retrieves freelancer by address"
      },
      "getJobByID(uint256)": {
        "notice": "retrieves job by ID"
      },
      "hireFreelancer(uint256,address)": {
        "notice": "hiring freelancer and check if freelancer is not already hired for the job"
      },
      "registerEmployer(string,string,string,string)": {
        "notice": "process employer registration"
      },
      "registerFreelancer(string,string,string,string,string,string[],uint256)": {
        "notice": "process freelancer registration"
      },
      "releaseEscrow(uint256,address)": {
        "notice": "release escrow fund after successful completion of the job"
      },
      "withdrawEarnings()": {
        "notice": "process funds withdrawal to the freelancer after successful completion of a job"
      }
    },
    "version": 1
  },
  "storageLayout": {
    "storage": [
      {
        "astId": 584,
        "contract": "contracts/Freelancer.sol:Dfreelancer",
        "label": "owner",
        "offset": 0,
        "slot": "0",
        "type": "t_address"
      },
      {
        "astId": 586,
        "contract": "contracts/Freelancer.sol:Dfreelancer",
        "label": "totalJobs",
        "offset": 20,
        "slot": "0",
        "type": "t_uint8"
      },
      {
        "astId": 588,
        "contract": "contracts/Freelancer.sol:Dfreelancer",
        "label": "totalFreelancers",
        "offset": 0,
        "slot": "1",
        "type": "t_uint256"
      },
      {
        "astId": 590,
        "contract": "contracts/Freelancer.sol:Dfreelancer",
        "label": "totalEmployers",
        "offset": 0,
        "slot": "2",
        "type": "t_uint256"
      },
      {
        "astId": 592,
        "contract": "contracts/Freelancer.sol:Dfreelancer",
        "label": "totalCompletedJobs",
        "offset": 0,
        "slot": "3",
        "type": "t_uint256"
      },
      {
        "astId": 595,
        "contract": "contracts/Freelancer.sol:Dfreelancer",
        "label": "allFreelancerAddresses",
        "offset": 0,
        "slot": "4",
        "type": "t_array(t_address)dyn_storage"
      },
      {
        "astId": 661,
        "contract": "contracts/Freelancer.sol:Dfreelancer",
        "label": "jobs",
        "offset": 0,
        "slot": "5",
        "type": "t_mapping(t_uint256,t_struct(Job)613_storage)"
      },
      {
        "astId": 666,
        "contract": "contracts/Freelancer.sol:Dfreelancer",
        "label": "freelancers",
        "offset": 0,
        "slot": "6",
        "type": "t_mapping(t_address,t_struct(Freelancer)639_storage)"
      },
      {
        "astId": 671,
        "contract": "contracts/Freelancer.sol:Dfreelancer",
        "label": "employers",
        "offset": 0,
        "slot": "7",
        "type": "t_mapping(t_address,t_struct(Employer)656_storage)"
      },
      {
        "astId": 677,
        "contract": "contracts/Freelancer.sol:Dfreelancer",
        "label": "escrowFunds",
        "offset": 0,
        "slot": "8",
        "type": "t_mapping(t_address,t_mapping(t_uint256,t_uint256))"
      }
    ],
    "types": {
      "t_address": {
        "encoding": "inplace",
        "label": "address",
        "numberOfBytes": "20"
      },
      "t_array(t_address)dyn_storage": {
        "base": "t_address",
        "encoding": "dynamic_array",
        "label": "address[]",
        "numberOfBytes": "32"
      },
      "t_array(t_string_storage)dyn_storage": {
        "base": "t_string_storage",
        "encoding": "dynamic_array",
        "label": "string[]",
        "numberOfBytes": "32"
      },
      "t_bool": {
        "encoding": "inplace",
        "label": "bool",
        "numberOfBytes": "1"
      },
      "t_mapping(t_address,t_mapping(t_uint256,t_uint256))": {
        "encoding": "mapping",
        "key": "t_address",
        "label": "mapping(address => mapping(uint256 => uint256))",
        "numberOfBytes": "32",
        "value": "t_mapping(t_uint256,t_uint256)"
      },
      "t_mapping(t_address,t_struct(Employer)656_storage)": {
        "encoding": "mapping",
        "key": "t_address",
        "label": "mapping(address => struct Djob.Employer)",
        "numberOfBytes": "32",
        "value": "t_struct(Employer)656_storage"
      },
      "t_mapping(t_address,t_struct(Freelancer)639_storage)": {
        "encoding": "mapping",
        "key": "t_address",
        "label": "mapping(address => struct Djob.Freelancer)",
        "numberOfBytes": "32",
        "value": "t_struct(Freelancer)639_storage"
      },
      "t_mapping(t_uint256,t_struct(Job)613_storage)": {
        "encoding": "mapping",
        "key": "t_uint256",
        "label": "mapping(uint256 => struct Djob.Job)",
        "numberOfBytes": "32",
        "value": "t_struct(Job)613_storage"
      },
      "t_mapping(t_uint256,t_uint256)": {
        "encoding": "mapping",
        "key": "t_uint256",
        "label": "mapping(uint256 => uint256)",
        "numberOfBytes": "32",
        "value": "t_uint256"
      },
      "t_string_storage": {
        "encoding": "bytes",
        "label": "string",
        "numberOfBytes": "32"
      },
      "t_struct(Employer)656_storage": {
        "encoding": "inplace",
        "label": "struct Djob.Employer",
        "members": [
          {
            "astId": 641,
            "contract": "contracts/Freelancer.sol:Dfreelancer",
            "label": "employerAddress",
            "offset": 0,
            "slot": "0",
            "type": "t_address"
          },
          {
            "astId": 643,
            "contract": "contracts/Freelancer.sol:Dfreelancer",
            "label": "name",
            "offset": 0,
            "slot": "1",
            "type": "t_string_storage"
          },
          {
            "astId": 645,
            "contract": "contracts/Freelancer.sol:Dfreelancer",
            "label": "industry",
            "offset": 0,
            "slot": "2",
            "type": "t_string_storage"
          },
          {
            "astId": 647,
            "contract": "contracts/Freelancer.sol:Dfreelancer",
            "label": "balance",
            "offset": 0,
            "slot": "3",
            "type": "t_uint256"
          },
          {
            "astId": 649,
            "contract": "contracts/Freelancer.sol:Dfreelancer",
            "label": "country",
            "offset": 0,
            "slot": "4",
            "type": "t_string_storage"
          },
          {
            "astId": 651,
            "contract": "contracts/Freelancer.sol:Dfreelancer",
            "label": "image",
            "offset": 0,
            "slot": "5",
            "type": "t_string_storage"
          },
          {
            "astId": 653,
            "contract": "contracts/Freelancer.sol:Dfreelancer",
            "label": "registered",
            "offset": 0,
            "slot": "6",
            "type": "t_bool"
          },
          {
            "astId": 655,
            "contract": "contracts/Freelancer.sol:Dfreelancer",
            "label": "registration_date",
            "offset": 0,
            "slot": "7",
            "type": "t_uint256"
          }
        ],
        "numberOfBytes": "256"
      },
      "t_struct(Freelancer)639_storage": {
        "encoding": "inplace",
        "label": "struct Djob.Freelancer",
        "members": [
          {
            "astId": 615,
            "contract": "contracts/Freelancer.sol:Dfreelancer",
            "label": "freelancerAddress",
            "offset": 0,
            "slot": "0",
            "type": "t_address"
          },
          {
            "astId": 617,
            "contract": "contracts/Freelancer.sol:Dfreelancer",
            "label": "name",
            "offset": 0,
            "slot": "1",
            "type": "t_string_storage"
          },
          {
            "astId": 619,
            "contract": "contracts/Freelancer.sol:Dfreelancer",
            "label": "skills",
            "offset": 0,
            "slot": "2",
            "type": "t_string_storage"
          },
          {
            "astId": 621,
            "contract": "contracts/Freelancer.sol:Dfreelancer",
            "label": "balance",
            "offset": 0,
            "slot": "3",
            "type": "t_uint256"
          },
          {
            "astId": 623,
            "contract": "contracts/Freelancer.sol:Dfreelancer",
            "label": "country",
            "offset": 0,
            "slot": "4",
            "type": "t_string_storage"
          },
          {
            "astId": 625,
            "contract": "contracts/Freelancer.sol:Dfreelancer",
            "label": "gigTitle",
            "offset": 0,
            "slot": "5",
            "type": "t_string_storage"
          },
          {
            "astId": 627,
            "contract": "contracts/Freelancer.sol:Dfreelancer",
            "label": "gitDescription",
            "offset": 0,
            "slot": "6",
            "type": "t_string_storage"
          },
          {
            "astId": 630,
            "contract": "contracts/Freelancer.sol:Dfreelancer",
            "label": "images",
            "offset": 0,
            "slot": "7",
            "type": "t_array(t_string_storage)dyn_storage"
          },
          {
            "astId": 632,
            "contract": "contracts/Freelancer.sol:Dfreelancer",
            "label": "jobsCompleted",
            "offset": 0,
            "slot": "8",
            "type": "t_uint256"
          },
          {
            "astId": 634,
            "contract": "contracts/Freelancer.sol:Dfreelancer",
            "label": "registered",
            "offset": 0,
            "slot": "9",
            "type": "t_bool"
          },
          {
            "astId": 636,
            "contract": "contracts/Freelancer.sol:Dfreelancer",
            "label": "registration_date",
            "offset": 0,
            "slot": "10",
            "type": "t_uint256"
          },
          {
            "astId": 638,
            "contract": "contracts/Freelancer.sol:Dfreelancer",
            "label": "starting_price",
            "offset": 0,
            "slot": "11",
            "type": "t_uint256"
          }
        ],
        "numberOfBytes": "384"
      },
      "t_struct(Job)613_storage": {
        "encoding": "inplace",
        "label": "struct Djob.Job",
        "members": [
          {
            "astId": 597,
            "contract": "contracts/Freelancer.sol:Dfreelancer",
            "label": "id",
            "offset": 0,
            "slot": "0",
            "type": "t_uint8"
          },
          {
            "astId": 599,
            "contract": "contracts/Freelancer.sol:Dfreelancer",
            "label": "employer",
            "offset": 1,
            "slot": "0",
            "type": "t_address"
          },
          {
            "astId": 601,
            "contract": "contracts/Freelancer.sol:Dfreelancer",
            "label": "title",
            "offset": 0,
            "slot": "1",
            "type": "t_string_storage"
          },
          {
            "astId": 603,
            "contract": "contracts/Freelancer.sol:Dfreelancer",
            "label": "description",
            "offset": 0,
            "slot": "2",
            "type": "t_string_storage"
          },
          {
            "astId": 605,
            "contract": "contracts/Freelancer.sol:Dfreelancer",
            "label": "budget",
            "offset": 0,
            "slot": "3",
            "type": "t_uint256"
          },
          {
            "astId": 607,
            "contract": "contracts/Freelancer.sol:Dfreelancer",
            "label": "completed",
            "offset": 0,
            "slot": "4",
            "type": "t_bool"
          },
          {
            "astId": 610,
            "contract": "contracts/Freelancer.sol:Dfreelancer",
            "label": "applicants",
            "offset": 0,
            "slot": "5",
            "type": "t_array(t_address)dyn_storage"
          },
          {
            "astId": 612,
            "contract": "contracts/Freelancer.sol:Dfreelancer",
            "label": "hiredFreelancer",
            "offset": 0,
            "slot": "6",
            "type": "t_address"
          }
        ],
        "numberOfBytes": "224"
      },
      "t_uint256": {
        "encoding": "inplace",
        "label": "uint256",
        "numberOfBytes": "32"
      },
      "t_uint8": {
        "encoding": "inplace",
        "label": "uint8",
        "numberOfBytes": "1"
      }
    }
  }
}