{
  "address": "0x5FbDB2315678afecb367f032d93F642f64180aa3",
  "abi": [
    {
      "inputs": [],
      "stateMutability": "nonpayable",
      "type": "constructor"
    },
    {
      "anonymous": false,
      "inputs": [
        {
          "indexed": false,
          "internalType": "uint256",
          "name": "jobId",
          "type": "uint256"
        },
        {
          "indexed": false,
          "internalType": "address",
          "name": "employerAddress",
          "type": "address"
        },
        {
          "indexed": false,
          "internalType": "address",
          "name": "freelancerAddress",
          "type": "address"
        }
      ],
      "name": "AppliedForJob",
      "type": "event"
    },
    {
      "anonymous": false,
      "inputs": [
        {
          "indexed": false,
          "internalType": "address",
          "name": "EmployerAddress",
          "type": "address"
        },
        {
          "indexed": false,
          "internalType": "string",
          "name": "name",
          "type": "string"
        }
      ],
      "name": "EmployerRegistered",
      "type": "event"
    },
    {
      "anonymous": false,
      "inputs": [
        {
          "indexed": false,
          "internalType": "address",
          "name": "freelancerAddress",
          "type": "address"
        },
        {
          "indexed": false,
          "internalType": "string",
          "name": "name",
          "type": "string"
        }
      ],
      "name": "FreelancerRegistered",
      "type": "event"
    },
    {
      "anonymous": false,
      "inputs": [
        {
          "indexed": false,
          "internalType": "uint256",
          "name": "jobId",
          "type": "uint256"
        },
        {
          "indexed": false,
          "internalType": "address",
          "name": "sender",
          "type": "address"
        },
        {
          "indexed": false,
          "internalType": "uint256",
          "name": "amount",
          "type": "uint256"
        }
      ],
      "name": "FundsDeposited",
      "type": "event"
    },
    {
      "anonymous": false,
      "inputs": [
        {
          "indexed": false,
          "internalType": "uint256",
          "name": "jobId",
          "type": "uint256"
        },
        {
          "indexed": false,
          "internalType": "address",
          "name": "freelancerAddress",
          "type": "address"
        },
        {
          "indexed": false,
          "internalType": "uint256",
          "name": "amount",
          "type": "uint256"
        }
      ],
      "name": "FundsReleased",
      "type": "event"
    },
    {
      "anonymous": false,
      "inputs": [
        {
          "indexed": false,
          "internalType": "uint256",
          "name": "jobId",
          "type": "uint256"
        },
        {
          "indexed": false,
          "internalType": "address",
          "name": "freelancerAddress",
          "type": "address"
        },
        {
          "indexed": false,
          "internalType": "uint256",
          "name": "payment",
          "type": "uint256"
        }
      ],
      "name": "JobCompleted",
      "type": "event"
    },
    {
      "anonymous": false,
      "inputs": [
        {
          "indexed": false,
          "internalType": "uint256",
          "name": "jobId",
          "type": "uint256"
        },
        {
          "indexed": false,
          "internalType": "string",
          "name": "title",
          "type": "string"
        }
      ],
      "name": "JobCreated",
      "type": "event"
    },
    {
      "anonymous": false,
      "inputs": [
        {
          "indexed": false,
          "internalType": "address",
          "name": "freelancer",
          "type": "address"
        },
        {
          "indexed": false,
          "internalType": "uint256",
          "name": "amount",
          "type": "uint256"
        }
      ],
      "name": "WithdrawFund",
      "type": "event"
    },
    {
      "inputs": [],
      "name": "allJobs",
      "outputs": [
        {
          "components": [
            {
              "internalType": "uint8",
              "name": "id",
              "type": "uint8"
            },
            {
              "internalType": "address",
              "name": "employer",
              "type": "address"
            },
            {
              "internalType": "string",
              "name": "title",
              "type": "string"
            },
            {
              "internalType": "string",
              "name": "description",
              "type": "string"
            },
            {
              "internalType": "uint256",
              "name": "budget",
              "type": "uint256"
            },
            {
              "internalType": "bool",
              "name": "completed",
              "type": "bool"
            },
            {
              "internalType": "address[]",
              "name": "applicants",
              "type": "address[]"
            },
            {
              "internalType": "address",
              "name": "hiredFreelancer",
              "type": "address"
            }
          ],
          "internalType": "struct Dfreelancer.Job[]",
          "name": "props",
          "type": "tuple[]"
        }
      ],
      "stateMutability": "view",
      "type": "function"
    },
    {
      "inputs": [
        {
          "internalType": "uint256",
          "name": "jobId",
          "type": "uint256"
        }
      ],
      "name": "applyForJob",
      "outputs": [],
      "stateMutability": "nonpayable",
      "type": "function"
    },
    {
      "inputs": [
        {
          "internalType": "uint256",
          "name": "jobId",
          "type": "uint256"
        },
        {
          "internalType": "address",
          "name": "freelancerAddress",
          "type": "address"
        }
      ],
      "name": "completeJob",
      "outputs": [],
      "stateMutability": "nonpayable",
      "type": "function"
    },
    {
      "inputs": [
        {
          "internalType": "string",
          "name": "_title",
          "type": "string"
        },
        {
          "internalType": "string",
          "name": "_description",
          "type": "string"
        },
        {
          "internalType": "uint256",
          "name": "_budget",
          "type": "uint256"
        }
      ],
      "name": "createJob",
      "outputs": [],
      "stateMutability": "nonpayable",
      "type": "function"
    },
    {
      "inputs": [
        {
          "internalType": "uint256",
          "name": "jobId",
          "type": "uint256"
        }
      ],
      "name": "depositFunds",
      "outputs": [],
      "stateMutability": "payable",
      "type": "function"
    },
    {
      "inputs": [
        {
          "internalType": "address",
          "name": "",
          "type": "address"
        }
      ],
      "name": "employers",
      "outputs": [
        {
          "internalType": "address",
          "name": "employerAddress",
          "type": "address"
        },
        {
          "internalType": "string",
          "name": "name",
          "type": "string"
        },
        {
          "internalType": "string",
          "name": "industry",
          "type": "string"
        },
        {
          "internalType": "uint256",
          "name": "balance",
          "type": "uint256"
        },
        {
          "internalType": "string",
          "name": "country",
          "type": "string"
        },
        {
          "internalType": "string",
          "name": "image",
          "type": "string"
        },
        {
          "internalType": "bool",
          "name": "registered",
          "type": "bool"
        },
        {
          "internalType": "string",
          "name": "registration_date",
          "type": "string"
        }
      ],
      "stateMutability": "view",
      "type": "function"
    },
    {
      "inputs": [
        {
          "internalType": "address",
          "name": "",
          "type": "address"
        }
      ],
      "name": "freelancers",
      "outputs": [
        {
          "internalType": "address",
          "name": "freelancerAddress",
          "type": "address"
        },
        {
          "internalType": "string",
          "name": "name",
          "type": "string"
        },
        {
          "internalType": "string",
          "name": "skills",
          "type": "string"
        },
        {
          "internalType": "uint256",
          "name": "balance",
          "type": "uint256"
        },
        {
          "internalType": "string",
          "name": "country",
          "type": "string"
        },
        {
          "internalType": "string",
          "name": "image",
          "type": "string"
        },
        {
          "internalType": "string",
          "name": "gigTitle",
          "type": "string"
        },
        {
          "internalType": "string",
          "name": "gitDescription",
          "type": "string"
        },
        {
          "internalType": "uint256",
          "name": "jobsCompleted",
          "type": "uint256"
        },
        {
          "internalType": "bool",
          "name": "registered",
          "type": "bool"
        },
        {
          "internalType": "string",
          "name": "registration_date",
          "type": "string"
        },
        {
          "internalType": "string",
          "name": "starting_price",
          "type": "string"
        }
      ],
      "stateMutability": "view",
      "type": "function"
    },
    {
      "inputs": [
        {
          "internalType": "address",
          "name": "_employer",
          "type": "address"
        }
      ],
      "name": "getEmployerByAddress",
      "outputs": [
        {
          "components": [
            {
              "internalType": "address",
              "name": "employerAddress",
              "type": "address"
            },
            {
              "internalType": "string",
              "name": "name",
              "type": "string"
            },
            {
              "internalType": "string",
              "name": "industry",
              "type": "string"
            },
            {
              "internalType": "uint256",
              "name": "balance",
              "type": "uint256"
            },
            {
              "internalType": "string",
              "name": "country",
              "type": "string"
            },
            {
              "internalType": "string",
              "name": "image",
              "type": "string"
            },
            {
              "internalType": "bool",
              "name": "registered",
              "type": "bool"
            },
            {
              "internalType": "string",
              "name": "registration_date",
              "type": "string"
            }
          ],
          "internalType": "struct Dfreelancer.Employer",
          "name": "props",
          "type": "tuple"
        }
      ],
      "stateMutability": "view",
      "type": "function"
    },
    {
      "inputs": [
        {
          "internalType": "address",
          "name": "_employer",
          "type": "address"
        },
        {
          "internalType": "uint256",
          "name": "_job_id",
          "type": "uint256"
        }
      ],
      "name": "getEmployerEscrow",
      "outputs": [
        {
          "internalType": "uint256",
          "name": "",
          "type": "uint256"
        }
      ],
      "stateMutability": "view",
      "type": "function"
    },
    {
      "inputs": [
        {
          "internalType": "address",
          "name": "_freelancer",
          "type": "address"
        }
      ],
      "name": "getFreelancerByAddress",
      "outputs": [
        {
          "components": [
            {
              "internalType": "address",
              "name": "freelancerAddress",
              "type": "address"
            },
            {
              "internalType": "string",
              "name": "name",
              "type": "string"
            },
            {
              "internalType": "string",
              "name": "skills",
              "type": "string"
            },
            {
              "internalType": "uint256",
              "name": "balance",
              "type": "uint256"
            },
            {
              "internalType": "string",
              "name": "country",
              "type": "string"
            },
            {
              "internalType": "string",
              "name": "image",
              "type": "string"
            },
            {
              "internalType": "string",
              "name": "gigTitle",
              "type": "string"
            },
            {
              "internalType": "string",
              "name": "gitDescription",
              "type": "string"
            },
            {
              "internalType": "uint256",
              "name": "jobsCompleted",
              "type": "uint256"
            },
            {
              "internalType": "bool",
              "name": "registered",
              "type": "bool"
            },
            {
              "internalType": "string",
              "name": "registration_date",
              "type": "string"
            },
            {
              "internalType": "string",
              "name": "starting_price",
              "type": "string"
            }
          ],
          "internalType": "struct Dfreelancer.Freelancer",
          "name": "props",
          "type": "tuple"
        }
      ],
      "stateMutability": "view",
      "type": "function"
    },
    {
      "inputs": [
        {
          "internalType": "uint256",
          "name": "jobId",
          "type": "uint256"
        }
      ],
      "name": "getJobByID",
      "outputs": [
        {
          "components": [
            {
              "internalType": "uint8",
              "name": "id",
              "type": "uint8"
            },
            {
              "internalType": "address",
              "name": "employer",
              "type": "address"
            },
            {
              "internalType": "string",
              "name": "title",
              "type": "string"
            },
            {
              "internalType": "string",
              "name": "description",
              "type": "string"
            },
            {
              "internalType": "uint256",
              "name": "budget",
              "type": "uint256"
            },
            {
              "internalType": "bool",
              "name": "completed",
              "type": "bool"
            },
            {
              "internalType": "address[]",
              "name": "applicants",
              "type": "address[]"
            },
            {
              "internalType": "address",
              "name": "hiredFreelancer",
              "type": "address"
            }
          ],
          "internalType": "struct Dfreelancer.Job",
          "name": "props",
          "type": "tuple"
        }
      ],
      "stateMutability": "view",
      "type": "function"
    },
    {
      "inputs": [
        {
          "internalType": "uint256",
          "name": "jobId",
          "type": "uint256"
        },
        {
          "internalType": "address",
          "name": "freelancerAddress",
          "type": "address"
        }
      ],
      "name": "hireFreelancer",
      "outputs": [],
      "stateMutability": "nonpayable",
      "type": "function"
    },
    {
      "inputs": [],
      "name": "owner",
      "outputs": [
        {
          "internalType": "address",
          "name": "",
          "type": "address"
        }
      ],
      "stateMutability": "view",
      "type": "function"
    },
    {
      "inputs": [
        {
          "internalType": "string",
          "name": "_name",
          "type": "string"
        },
        {
          "internalType": "string",
          "name": "_industry",
          "type": "string"
        },
        {
          "internalType": "string",
          "name": "_country",
          "type": "string"
        },
        {
          "internalType": "string",
          "name": "_imageURI",
          "type": "string"
        },
        {
          "internalType": "string",
          "name": "_date",
          "type": "string"
        }
      ],
      "name": "registerEmployer",
      "outputs": [],
      "stateMutability": "nonpayable",
      "type": "function"
    },
    {
      "inputs": [
        {
          "internalType": "string",
          "name": "_name",
          "type": "string"
        },
        {
          "internalType": "string",
          "name": "_skills",
          "type": "string"
        },
        {
          "internalType": "string",
          "name": "_country",
          "type": "string"
        },
        {
          "internalType": "string",
          "name": "_imageURI",
          "type": "string"
        },
        {
          "internalType": "string",
          "name": "_gigTitle",
          "type": "string"
        },
        {
          "internalType": "string",
          "name": "_gigDesc",
          "type": "string"
        },
        {
          "internalType": "string",
          "name": "_date",
          "type": "string"
        },
        {
          "internalType": "string",
          "name": "_starting_price",
          "type": "string"
        }
      ],
      "name": "registerFreelancer",
      "outputs": [],
      "stateMutability": "nonpayable",
      "type": "function"
    },
    {
      "inputs": [
        {
          "internalType": "uint256",
          "name": "jobId",
          "type": "uint256"
        },
        {
          "internalType": "address",
          "name": "freelancerAddress",
          "type": "address"
        }
      ],
      "name": "releaseEscrow",
      "outputs": [],
      "stateMutability": "nonpayable",
      "type": "function"
    },
    {
      "inputs": [],
      "name": "totalCompletedJobs",
      "outputs": [
        {
          "internalType": "uint256",
          "name": "",
          "type": "uint256"
        }
      ],
      "stateMutability": "view",
      "type": "function"
    },
    {
      "inputs": [],
      "name": "totalEmployers",
      "outputs": [
        {
          "internalType": "uint256",
          "name": "",
          "type": "uint256"
        }
      ],
      "stateMutability": "view",
      "type": "function"
    },
    {
      "inputs": [],
      "name": "totalFreelancers",
      "outputs": [
        {
          "internalType": "uint256",
          "name": "",
          "type": "uint256"
        }
      ],
      "stateMutability": "view",
      "type": "function"
    },
    {
      "inputs": [],
      "name": "totalJobs",
      "outputs": [
        {
          "internalType": "uint8",
          "name": "",
          "type": "uint8"
        }
      ],
      "stateMutability": "view",
      "type": "function"
    },
    {
      "inputs": [],
      "name": "withdrawEarnings",
      "outputs": [],
      "stateMutability": "nonpayable",
      "type": "function"
    }
  ],
  "transactionHash": "0x16fd41c7cc3a4547ff44cb0d289e80e2aa6a090f36f285ac2a75c66d87784398",
  "args": [],
  "numDeployments": 1,
  "solcInputHash": "081bc7407a11734c96df64fd7fa5641c",
  "bytecode": "0x608060405234801561001057600080fd5b50336000806101000a81548173ffffffffffffffffffffffffffffffffffffffff021916908373ffffffffffffffffffffffffffffffffffffffff1602179055506158e680620000616000396000f3fe60806040526004361061012a5760003560e01c80636a6b67d1116100ab578063b0f26f181161006f578063b0f26f1814610409578063b73c6ce914610432578063c6cb3bbe14610449578063c8d1b6aa14610472578063dfac8ce51461049d578063e0c94ae5146104da5761012a565b80636a6b67d1146103265780636b365e7c1461034f57806373a06f42146103785780637a787125146103a15780638da5cb5b146103de5761012a565b806321bd6693116100f257806321bd669314610231578063371ae9f4146102795780633b76594d146102b65780635e586eb1146102d2578063606db335146102fd5761012a565b80630be435bd1461012f5780631033397b146101735780631906b4ce1461019e5780631ace87b3146101c95780631c7af7a0146101f4575b600080fd5b34801561013b57600080fd5b5061015660048036038101906101519190613b49565b610503565b60405161016a989796959493929190613c49565b60405180910390f35b34801561017f57600080fd5b50610188610820565b6040516101959190613cea565b60405180910390f35b3480156101aa57600080fd5b506101b3610826565b6040516101c09190613cea565b60405180910390f35b3480156101d557600080fd5b506101de61082c565b6040516101eb9190613d21565b60405180910390f35b34801561020057600080fd5b5061021b60048036038101906102169190613b49565b61083f565b6040516102289190613ee8565b60405180910390f35b34801561023d57600080fd5b5061025860048036038101906102539190613b49565b610dae565b6040516102709c9b9a99989796959493929190613f0a565b60405180910390f35b34801561028557600080fd5b506102a0600480360381019061029b9190614028565b61127b565b6040516102ad91906141d1565b60405180910390f35b6102d060048036038101906102cb9190614028565b6115aa565b005b3480156102de57600080fd5b506102e7611852565b6040516102f49190613cea565b60405180910390f35b34801561030957600080fd5b50610324600480360381019061031f9190614328565b611858565b005b34801561033257600080fd5b5061034d600480360381019061034891906144be565b611baf565b005b34801561035b57600080fd5b50610376600480360381019061037191906144fe565b611eac565b005b34801561038457600080fd5b5061039f600480360381019061039a9190614605565b612197565b005b3480156103ad57600080fd5b506103c860048036038101906103c39190613b49565b6124e4565b6040516103d5919061475c565b60405180910390f35b3480156103ea57600080fd5b506103f3612893565b604051610400919061477e565b60405180910390f35b34801561041557600080fd5b50610430600480360381019061042b91906144be565b6128b7565b005b34801561043e57600080fd5b50610447612b26565b005b34801561045557600080fd5b50610470600480360381019061046b91906144be565b612d7f565b005b34801561047e57600080fd5b5061048761318b565b6040516104949190614919565b60405180910390f35b3480156104a957600080fd5b506104c460048036038101906104bf919061493b565b613506565b6040516104d19190613cea565b60405180910390f35b3480156104e657600080fd5b5061050160048036038101906104fc9190614028565b613561565b005b60066020528060005260406000206000915090508060000160009054906101000a900473ffffffffffffffffffffffffffffffffffffffff169080600101805461054c906149aa565b80601f0160208091040260200160405190810160405280929190818152602001828054610578906149aa565b80156105c55780601f1061059a576101008083540402835291602001916105c5565b820191906000526020600020905b8154815290600101906020018083116105a857829003601f168201915b5050505050908060020180546105da906149aa565b80601f0160208091040260200160405190810160405280929190818152602001828054610606906149aa565b80156106535780601f1061062857610100808354040283529160200191610653565b820191906000526020600020905b81548152906001019060200180831161063657829003601f168201915b50505050509080600301549080600401805461066e906149aa565b80601f016020809104026020016040519081016040528092919081815260200182805461069a906149aa565b80156106e75780601f106106bc576101008083540402835291602001916106e7565b820191906000526020600020905b8154815290600101906020018083116106ca57829003601f168201915b5050505050908060050180546106fc906149aa565b80601f0160208091040260200160405190810160405280929190818152602001828054610728906149aa565b80156107755780601f1061074a57610100808354040283529160200191610775565b820191906000526020600020905b81548152906001019060200180831161075857829003601f168201915b5050505050908060060160009054906101000a900460ff169080600701805461079d906149aa565b80601f01602080910402602001604051908101604052809291908181526020018280546107c9906149aa565b80156108165780601f106107eb57610100808354040283529160200191610816565b820191906000526020600020905b8154815290600101906020018083116107f957829003601f168201915b5050505050905088565b60035481565b60025481565b600060149054906101000a900460ff1681565b6108476138e4565b600560008373ffffffffffffffffffffffffffffffffffffffff1673ffffffffffffffffffffffffffffffffffffffff168152602001908152602001600020604051806101800160405290816000820160009054906101000a900473ffffffffffffffffffffffffffffffffffffffff1673ffffffffffffffffffffffffffffffffffffffff1673ffffffffffffffffffffffffffffffffffffffff1681526020016001820180546108f8906149aa565b80601f0160208091040260200160405190810160405280929190818152602001828054610924906149aa565b80156109715780601f1061094657610100808354040283529160200191610971565b820191906000526020600020905b81548152906001019060200180831161095457829003601f168201915b5050505050815260200160028201805461098a906149aa565b80601f01602080910402602001604051908101604052809291908181526020018280546109b6906149aa565b8015610a035780601f106109d857610100808354040283529160200191610a03565b820191906000526020600020905b8154815290600101906020018083116109e657829003601f168201915b5050505050815260200160038201548152602001600482018054610a26906149aa565b80601f0160208091040260200160405190810160405280929190818152602001828054610a52906149aa565b8015610a9f5780601f10610a7457610100808354040283529160200191610a9f565b820191906000526020600020905b815481529060010190602001808311610a8257829003601f168201915b50505050508152602001600582018054610ab8906149aa565b80601f0160208091040260200160405190810160405280929190818152602001828054610ae4906149aa565b8015610b315780601f10610b0657610100808354040283529160200191610b31565b820191906000526020600020905b815481529060010190602001808311610b1457829003601f168201915b50505050508152602001600682018054610b4a906149aa565b80601f0160208091040260200160405190810160405280929190818152602001828054610b76906149aa565b8015610bc35780601f10610b9857610100808354040283529160200191610bc3565b820191906000526020600020905b815481529060010190602001808311610ba657829003601f168201915b50505050508152602001600782018054610bdc906149aa565b80601f0160208091040260200160405190810160405280929190818152602001828054610c08906149aa565b8015610c555780601f10610c2a57610100808354040283529160200191610c55565b820191906000526020600020905b815481529060010190602001808311610c3857829003601f168201915b50505050508152602001600882015481526020016009820160009054906101000a900460ff16151515158152602001600a82018054610c93906149aa565b80601f0160208091040260200160405190810160405280929190818152602001828054610cbf906149aa565b8015610d0c5780601f10610ce157610100808354040283529160200191610d0c565b820191906000526020600020905b815481529060010190602001808311610cef57829003601f168201915b50505050508152602001600b82018054610d25906149aa565b80601f0160208091040260200160405190810160405280929190818152602001828054610d51906149aa565b8015610d9e5780601f10610d7357610100808354040283529160200191610d9e565b820191906000526020600020905b815481529060010190602001808311610d8157829003601f168201915b5050505050815250509050919050565b60056020528060005260406000206000915090508060000160009054906101000a900473ffffffffffffffffffffffffffffffffffffffff1690806001018054610df7906149aa565b80601f0160208091040260200160405190810160405280929190818152602001828054610e23906149aa565b8015610e705780601f10610e4557610100808354040283529160200191610e70565b820191906000526020600020905b815481529060010190602001808311610e5357829003601f168201915b505050505090806002018054610e85906149aa565b80601f0160208091040260200160405190810160405280929190818152602001828054610eb1906149aa565b8015610efe5780601f10610ed357610100808354040283529160200191610efe565b820191906000526020600020905b815481529060010190602001808311610ee157829003601f168201915b505050505090806003015490806004018054610f19906149aa565b80601f0160208091040260200160405190810160405280929190818152602001828054610f45906149aa565b8015610f925780601f10610f6757610100808354040283529160200191610f92565b820191906000526020600020905b815481529060010190602001808311610f7557829003601f168201915b505050505090806005018054610fa7906149aa565b80601f0160208091040260200160405190810160405280929190818152602001828054610fd3906149aa565b80156110205780601f10610ff557610100808354040283529160200191611020565b820191906000526020600020905b81548152906001019060200180831161100357829003601f168201915b505050505090806006018054611035906149aa565b80601f0160208091040260200160405190810160405280929190818152602001828054611061906149aa565b80156110ae5780601f10611083576101008083540402835291602001916110ae565b820191906000526020600020905b81548152906001019060200180831161109157829003601f168201915b5050505050908060070180546110c3906149aa565b80601f01602080910402602001604051908101604052809291908181526020018280546110ef906149aa565b801561113c5780601f106111115761010080835404028352916020019161113c565b820191906000526020600020905b81548152906001019060200180831161111f57829003601f168201915b5050505050908060080154908060090160009054906101000a900460ff169080600a01805461116a906149aa565b80601f0160208091040260200160405190810160405280929190818152602001828054611196906149aa565b80156111e35780601f106111b8576101008083540402835291602001916111e3565b820191906000526020600020905b8154815290600101906020018083116111c657829003601f168201915b50505050509080600b0180546111f8906149aa565b80601f0160208091040260200160405190810160405280929190818152602001828054611224906149aa565b80156112715780601f1061124657610100808354040283529160200191611271565b820191906000526020600020905b81548152906001019060200180831161125457829003601f168201915b505050505090508c565b61128361395d565b6000821180156112a55750600060149054906101000a900460ff1660ff168211155b6112e4576040517f08c379a00000000000000000000000000000000000000000000000000000000081526004016112db90614a27565b60405180910390fd5b60046000838152602001908152602001600020604051806101000160405290816000820160009054906101000a900460ff1660ff1660ff1681526020016000820160019054906101000a900473ffffffffffffffffffffffffffffffffffffffff1673ffffffffffffffffffffffffffffffffffffffff1673ffffffffffffffffffffffffffffffffffffffff168152602001600182018054611386906149aa565b80601f01602080910402602001604051908101604052809291908181526020018280546113b2906149aa565b80156113ff5780601f106113d4576101008083540402835291602001916113ff565b820191906000526020600020905b8154815290600101906020018083116113e257829003601f168201915b50505050508152602001600282018054611418906149aa565b80601f0160208091040260200160405190810160405280929190818152602001828054611444906149aa565b80156114915780601f1061146657610100808354040283529160200191611491565b820191906000526020600020905b81548152906001019060200180831161147457829003601f168201915b50505050508152602001600382015481526020016004820160009054906101000a900460ff161515151581526020016005820180548060200260200160405190810160405280929190818152602001828054801561154457602002820191906000526020600020905b8160009054906101000a900473ffffffffffffffffffffffffffffffffffffffff1673ffffffffffffffffffffffffffffffffffffffff16815260200190600101908083116114fa575b505050505081526020016006820160009054906101000a900473ffffffffffffffffffffffffffffffffffffffff1673ffffffffffffffffffffffffffffffffffffffff1673ffffffffffffffffffffffffffffffffffffffff16815250509050919050565b600060149054906101000a900460ff1660ff1681111580156115cc5750600081115b61160b576040517f08c379a000000000000000000000000000000000000000000000000000000000815260040161160290614a93565b60405180910390fd5b60006004600083815260200190815260200160002090506000600660003373ffffffffffffffffffffffffffffffffffffffff1673ffffffffffffffffffffffffffffffffffffffff16815260200190815260200160002090503373ffffffffffffffffffffffffffffffffffffffff168260000160019054906101000a900473ffffffffffffffffffffffffffffffffffffffff1673ffffffffffffffffffffffffffffffffffffffff16146116f7576040517f08c379a00000000000000000000000000000000000000000000000000000000081526004016116ee90614b25565b60405180910390fd5b8160040160009054906101000a900460ff1615611749576040517f08c379a000000000000000000000000000000000000000000000000000000000815260040161174090614b91565b60405180910390fd5b8160030154341015611790576040517f08c379a000000000000000000000000000000000000000000000000000000000815260040161178790614bfd565b60405180910390fd5b348160030160008282546117a49190614c4c565b9250508190555034600760003373ffffffffffffffffffffffffffffffffffffffff1673ffffffffffffffffffffffffffffffffffffffff1681526020019081526020016000206000858152602001908152602001600020600082825461180b9190614c4c565b925050819055507fe030e47e27825a2ad1b19e4cf2e70bfbfb3124af275c7727a82b114ba7b29a8583333460405161184593929190614c80565b60405180910390a1505050565b60015481565b60001515600560003373ffffffffffffffffffffffffffffffffffffffff1673ffffffffffffffffffffffffffffffffffffffff16815260200190815260200160002060090160009054906101000a900460ff161515146118ee576040517f08c379a00000000000000000000000000000000000000000000000000000000081526004016118e590614d03565b60405180910390fd5b6000885111611932576040517f08c379a000000000000000000000000000000000000000000000000000000000815260040161192990614d6f565b60405180910390fd5b6000875111611976576040517f08c379a000000000000000000000000000000000000000000000000000000000815260040161196d90614ddb565b60405180910390fd5b6001600081548092919061198990614dfb565b91905055506040518061018001604052803373ffffffffffffffffffffffffffffffffffffffff168152602001898152602001888152602001600081526020018781526020018681526020018581526020018481526020016000815260200160011515815260200183815260200182815250600560003373ffffffffffffffffffffffffffffffffffffffff1673ffffffffffffffffffffffffffffffffffffffff16815260200190815260200160002060008201518160000160006101000a81548173ffffffffffffffffffffffffffffffffffffffff021916908373ffffffffffffffffffffffffffffffffffffffff1602179055506020820151816001019081611a969190614fef565b506040820151816002019081611aac9190614fef565b50606082015181600301556080820151816004019081611acc9190614fef565b5060a0820151816005019081611ae29190614fef565b5060c0820151816006019081611af89190614fef565b5060e0820151816007019081611b0e9190614fef565b5061010082015181600801556101208201518160090160006101000a81548160ff02191690831515021790555061014082015181600a019081611b519190614fef565b5061016082015181600b019081611b689190614fef565b509050507f1700582be850ff71f6341c0e9768c45b03576a787f186451b51af237c29eab503389604051611b9d9291906150c1565b60405180910390a15050505050505050565b338073ffffffffffffffffffffffffffffffffffffffff16600660003373ffffffffffffffffffffffffffffffffffffffff1673ffffffffffffffffffffffffffffffffffffffff16815260200190815260200160002060000160009054906101000a900473ffffffffffffffffffffffffffffffffffffffff1673ffffffffffffffffffffffffffffffffffffffff1614611c80576040517f08c379a0000000000000000000000000000000000000000000000000000000008152600401611c7790615163565b60405180910390fd5b600060149054906101000a900460ff1660ff168311158015611ca25750600083115b611ce1576040517f08c379a0000000000000000000000000000000000000000000000000000000008152600401611cd890614a93565b60405180910390fd5b6000600460008581526020019081526020016000209050600073ffffffffffffffffffffffffffffffffffffffff168160000160019054906101000a900473ffffffffffffffffffffffffffffffffffffffff1673ffffffffffffffffffffffffffffffffffffffff1603611d8b576040517f08c379a0000000000000000000000000000000000000000000000000000000008152600401611d82906151cf565b60405180910390fd5b611d958184613877565b611dd4576040517f08c379a0000000000000000000000000000000000000000000000000000000008152600401611dcb90615261565b60405180910390fd5b60008160030154905060018260040160006101000a81548160ff02191690831515021790555060036000815480929190611e0d90614dfb565b9190505550600560008573ffffffffffffffffffffffffffffffffffffffff1673ffffffffffffffffffffffffffffffffffffffff1681526020019081526020016000206008016000815480929190611e6590614dfb565b91905055507f4dbba472101e9f148a3a5ecbe793f0ee16a7efe4bf3f8cbfab5330e1642ef955858583604051611e9d93929190614c80565b60405180910390a15050505050565b60001515600660003373ffffffffffffffffffffffffffffffffffffffff1673ffffffffffffffffffffffffffffffffffffffff16815260200190815260200160002060060160009054906101000a900460ff16151514611f42576040517f08c379a0000000000000000000000000000000000000000000000000000000008152600401611f3990614d03565b60405180910390fd5b6000855111611f86576040517f08c379a0000000000000000000000000000000000000000000000000000000008152600401611f7d90614d6f565b60405180910390fd5b6000845111611fca576040517f08c379a0000000000000000000000000000000000000000000000000000000008152600401611fc190614ddb565b60405180910390fd5b60026000815480929190611fdd90614dfb565b91905055506040518061010001604052803373ffffffffffffffffffffffffffffffffffffffff1681526020018681526020018581526020016000815260200184815260200183815260200160011515815260200182815250600660003373ffffffffffffffffffffffffffffffffffffffff1673ffffffffffffffffffffffffffffffffffffffff16815260200190815260200160002060008201518160000160006101000a81548173ffffffffffffffffffffffffffffffffffffffff021916908373ffffffffffffffffffffffffffffffffffffffff16021790555060208201518160010190816120d19190614fef565b5060408201518160020190816120e79190614fef565b506060820151816003015560808201518160040190816121079190614fef565b5060a082015181600501908161211d9190614fef565b5060c08201518160060160006101000a81548160ff02191690831515021790555060e08201518160070190816121539190614fef565b509050507f6c0e8aabac6898602e5264c9a24b2394d9895a70bd2f4c44c8ca0fcfcec6477f33866040516121889291906150c1565b60405180910390a15050505050565b338073ffffffffffffffffffffffffffffffffffffffff16600660003373ffffffffffffffffffffffffffffffffffffffff1673ffffffffffffffffffffffffffffffffffffffff16815260200190815260200160002060000160009054906101000a900473ffffffffffffffffffffffffffffffffffffffff1673ffffffffffffffffffffffffffffffffffffffff1614612268576040517f08c379a000000000000000000000000000000000000000000000000000000000815260040161225f90615163565b60405180910390fd5b6000601481819054906101000a900460ff168092919061228790615281565b91906101000a81548160ff021916908360ff1602179055505060008060149054906101000a900460ff1690506040518061010001604052808260ff1681526020013373ffffffffffffffffffffffffffffffffffffffff168152602001868152602001858152602001848152602001600015158152602001600067ffffffffffffffff81111561231a576123196141fd565b5b6040519080825280602002602001820160405280156123485781602001602082028036833780820191505090505b508152602001600073ffffffffffffffffffffffffffffffffffffffff16815250600460008360ff16815260200190815260200160002060008201518160000160006101000a81548160ff021916908360ff16021790555060208201518160000160016101000a81548173ffffffffffffffffffffffffffffffffffffffff021916908373ffffffffffffffffffffffffffffffffffffffff16021790555060408201518160010190816123fc9190614fef565b5060608201518160020190816124129190614fef565b506080820151816003015560a08201518160040160006101000a81548160ff02191690831515021790555060c08201518160050190805190602001906124599291906139d3565b5060e08201518160060160006101000a81548173ffffffffffffffffffffffffffffffffffffffff021916908373ffffffffffffffffffffffffffffffffffffffff1602179055509050507fb63f0fdfb200b05c8b95fb4dcf8f8abd30f0b6884d532792e705afab4f37380a81866040516124d59291906152db565b60405180910390a15050505050565b6124ec613a5d565b600660008373ffffffffffffffffffffffffffffffffffffffff1673ffffffffffffffffffffffffffffffffffffffff168152602001908152602001600020604051806101000160405290816000820160009054906101000a900473ffffffffffffffffffffffffffffffffffffffff1673ffffffffffffffffffffffffffffffffffffffff1673ffffffffffffffffffffffffffffffffffffffff16815260200160018201805461259d906149aa565b80601f01602080910402602001604051908101604052809291908181526020018280546125c9906149aa565b80156126165780601f106125eb57610100808354040283529160200191612616565b820191906000526020600020905b8154815290600101906020018083116125f957829003601f168201915b5050505050815260200160028201805461262f906149aa565b80601f016020809104026020016040519081016040528092919081815260200182805461265b906149aa565b80156126a85780601f1061267d576101008083540402835291602001916126a8565b820191906000526020600020905b81548152906001019060200180831161268b57829003601f168201915b50505050508152602001600382015481526020016004820180546126cb906149aa565b80601f01602080910402602001604051908101604052809291908181526020018280546126f7906149aa565b80156127445780601f1061271957610100808354040283529160200191612744565b820191906000526020600020905b81548152906001019060200180831161272757829003601f168201915b5050505050815260200160058201805461275d906149aa565b80601f0160208091040260200160405190810160405280929190818152602001828054612789906149aa565b80156127d65780601f106127ab576101008083540402835291602001916127d6565b820191906000526020600020905b8154815290600101906020018083116127b957829003601f168201915b505050505081526020016006820160009054906101000a900460ff1615151515815260200160078201805461280a906149aa565b80601f0160208091040260200160405190810160405280929190818152602001828054612836906149aa565b80156128835780601f1061285857610100808354040283529160200191612883565b820191906000526020600020905b81548152906001019060200180831161286657829003601f168201915b5050505050815250509050919050565b60008054906101000a900473ffffffffffffffffffffffffffffffffffffffff1681565b338073ffffffffffffffffffffffffffffffffffffffff16600660003373ffffffffffffffffffffffffffffffffffffffff1673ffffffffffffffffffffffffffffffffffffffff16815260200190815260200160002060000160009054906101000a900473ffffffffffffffffffffffffffffffffffffffff1673ffffffffffffffffffffffffffffffffffffffff1614612988576040517f08c379a000000000000000000000000000000000000000000000000000000000815260040161297f90615163565b60405180910390fd5b600060149054906101000a900460ff1660ff1683111580156129aa5750600083115b6129e9576040517f08c379a00000000000000000000000000000000000000000000000000000000081526004016129e090614a93565b60405180910390fd5b6000600460008581526020019081526020016000209050600073ffffffffffffffffffffffffffffffffffffffff168160000160019054906101000a900473ffffffffffffffffffffffffffffffffffffffff1673ffffffffffffffffffffffffffffffffffffffff1603612a93576040517f08c379a0000000000000000000000000000000000000000000000000000000008152600401612a8a906151cf565b60405180910390fd5b612a9d8184613877565b15612add576040517f08c379a0000000000000000000000000000000000000000000000000000000008152600401612ad490615357565b60405180910390fd5b828160060160006101000a81548173ffffffffffffffffffffffffffffffffffffffff021916908373ffffffffffffffffffffffffffffffffffffffff16021790555050505050565b338073ffffffffffffffffffffffffffffffffffffffff16600560003373ffffffffffffffffffffffffffffffffffffffff1673ffffffffffffffffffffffffffffffffffffffff16815260200190815260200160002060000160009054906101000a900473ffffffffffffffffffffffffffffffffffffffff1673ffffffffffffffffffffffffffffffffffffffff1614612bf7576040517f08c379a0000000000000000000000000000000000000000000000000000000008152600401612bee906153e9565b60405180910390fd5b6000600560003373ffffffffffffffffffffffffffffffffffffffff1673ffffffffffffffffffffffffffffffffffffffff16815260200190815260200160002090506000816003015411612c81576040517f08c379a0000000000000000000000000000000000000000000000000000000008152600401612c7890615455565b60405180910390fd5b6000816003015490506000826003018190555060003373ffffffffffffffffffffffffffffffffffffffff1682604051612cba906154a6565b60006040518083038185875af1925050503d8060008114612cf7576040519150601f19603f3d011682016040523d82523d6000602084013e612cfc565b606091505b5050905080612d40576040517f08c379a0000000000000000000000000000000000000000000000000000000008152600401612d3790615507565b60405180910390fd5b7f09ad672d4e7c4892da934d1051932ebe9ec4b6ec8c3f40d569176db3e93e5abe3383604051612d71929190615527565b60405180910390a150505050565b338073ffffffffffffffffffffffffffffffffffffffff16600660003373ffffffffffffffffffffffffffffffffffffffff1673ffffffffffffffffffffffffffffffffffffffff16815260200190815260200160002060000160009054906101000a900473ffffffffffffffffffffffffffffffffffffffff1673ffffffffffffffffffffffffffffffffffffffff1614612e50576040517f08c379a0000000000000000000000000000000000000000000000000000000008152600401612e4790615163565b60405180910390fd5b600060149054906101000a900460ff1660ff168311158015612e725750600083115b612eb1576040517f08c379a0000000000000000000000000000000000000000000000000000000008152600401612ea890614a93565b60405180910390fd5b60006004600085815260200190815260200160002090508060000160019054906101000a900473ffffffffffffffffffffffffffffffffffffffff1673ffffffffffffffffffffffffffffffffffffffff163373ffffffffffffffffffffffffffffffffffffffff1614612f5a576040517f08c379a0000000000000000000000000000000000000000000000000000000008152600401612f51906155c2565b60405180910390fd5b60018160040160006101000a81548160ff0219169083151502179055612fb5576040517f08c379a0000000000000000000000000000000000000000000000000000000008152600401612fac90615654565b60405180910390fd5b6000600760003373ffffffffffffffffffffffffffffffffffffffff1673ffffffffffffffffffffffffffffffffffffffff16815260200190815260200160002060008681526020019081526020016000205490506000811161304d576040517f08c379a0000000000000000000000000000000000000000000000000000000008152600401613044906156c0565b60405180910390fd5b8160030154811015613094576040517f08c379a000000000000000000000000000000000000000000000000000000000815260040161308b9061572c565b60405180910390fd5b6000600760003373ffffffffffffffffffffffffffffffffffffffff1673ffffffffffffffffffffffffffffffffffffffff1681526020019081526020016000206000878152602001908152602001600020819055506000600560008673ffffffffffffffffffffffffffffffffffffffff1673ffffffffffffffffffffffffffffffffffffffff1681526020019081526020016000209050818160030160008282546131419190614c4c565b925050819055507f6e3c6096795c8298a218b2cfb8bde42726ff7c9a3d27b4d3ba41ab7f74feb5fb86868460405161317b93929190614c80565b60405180910390a1505050505050565b6060600060149054906101000a900460ff1660ff1667ffffffffffffffff8111156131b9576131b86141fd565b5b6040519080825280602002602001820160405280156131f257816020015b6131df61395d565b8152602001906001900390816131d75790505b50905060005b600060149054906101000a900460ff1660ff168110156135025760046000828152602001908152602001600020604051806101000160405290816000820160009054906101000a900460ff1660ff1660ff1681526020016000820160019054906101000a900473ffffffffffffffffffffffffffffffffffffffff1673ffffffffffffffffffffffffffffffffffffffff1673ffffffffffffffffffffffffffffffffffffffff1681526020016001820180546132b4906149aa565b80601f01602080910402602001604051908101604052809291908181526020018280546132e0906149aa565b801561332d5780601f106133025761010080835404028352916020019161332d565b820191906000526020600020905b81548152906001019060200180831161331057829003601f168201915b50505050508152602001600282018054613346906149aa565b80601f0160208091040260200160405190810160405280929190818152602001828054613372906149aa565b80156133bf5780601f10613394576101008083540402835291602001916133bf565b820191906000526020600020905b8154815290600101906020018083116133a257829003601f168201915b50505050508152602001600382015481526020016004820160009054906101000a900460ff161515151581526020016005820180548060200260200160405190810160405280929190818152602001828054801561347257602002820191906000526020600020905b8160009054906101000a900473ffffffffffffffffffffffffffffffffffffffff1673ffffffffffffffffffffffffffffffffffffffff1681526020019060010190808311613428575b505050505081526020016006820160009054906101000a900473ffffffffffffffffffffffffffffffffffffffff1673ffffffffffffffffffffffffffffffffffffffff1673ffffffffffffffffffffffffffffffffffffffff16815250508282815181106134e4576134e361574c565b5b602002602001018190525080806134fa90614dfb565b9150506131f8565b5090565b6000600760008473ffffffffffffffffffffffffffffffffffffffff1673ffffffffffffffffffffffffffffffffffffffff168152602001908152602001600020600083815260200190815260200160002054905092915050565b600060149054906101000a900460ff1660ff1681111580156135835750600081115b6135c2576040517f08c379a00000000000000000000000000000000000000000000000000000000081526004016135b990614a93565b60405180910390fd5b6000600460008381526020019081526020016000209050600073ffffffffffffffffffffffffffffffffffffffff168160000160019054906101000a900473ffffffffffffffffffffffffffffffffffffffff1673ffffffffffffffffffffffffffffffffffffffff160361366c576040517f08c379a0000000000000000000000000000000000000000000000000000000008152600401613663906151cf565b60405180910390fd5b600073ffffffffffffffffffffffffffffffffffffffff163373ffffffffffffffffffffffffffffffffffffffff16036136db576040517f08c379a00000000000000000000000000000000000000000000000000000000081526004016136d2906157c7565b60405180910390fd5b60005b81600501805490508110156137ae573373ffffffffffffffffffffffffffffffffffffffff1682600501828154811061371a5761371961574c565b5b9060005260206000200160009054906101000a900473ffffffffffffffffffffffffffffffffffffffff1673ffffffffffffffffffffffffffffffffffffffff160361379b576040517f08c379a000000000000000000000000000000000000000000000000000000000815260040161379290615859565b60405180910390fd5b80806137a690614dfb565b9150506136de565b5080600501339080600181540180825580915050600190039060005260206000200160009091909190916101000a81548173ffffffffffffffffffffffffffffffffffffffff021916908373ffffffffffffffffffffffffffffffffffffffff1602179055507f2b443803772f6da2db17c7357119f932841870fdf0a3a5d8ca9d2e112bb13326828260000160019054906101000a900473ffffffffffffffffffffffffffffffffffffffff163360405161386b93929190615879565b60405180910390a15050565b60008173ffffffffffffffffffffffffffffffffffffffff168360060160009054906101000a900473ffffffffffffffffffffffffffffffffffffffff1673ffffffffffffffffffffffffffffffffffffffff16036138d957600190506138de565b600090505b92915050565b604051806101800160405280600073ffffffffffffffffffffffffffffffffffffffff168152602001606081526020016060815260200160008152602001606081526020016060815260200160608152602001606081526020016000815260200160001515815260200160608152602001606081525090565b604051806101000160405280600060ff168152602001600073ffffffffffffffffffffffffffffffffffffffff16815260200160608152602001606081526020016000815260200160001515815260200160608152602001600073ffffffffffffffffffffffffffffffffffffffff1681525090565b828054828255906000526020600020908101928215613a4c579160200282015b82811115613a4b5782518260006101000a81548173ffffffffffffffffffffffffffffffffffffffff021916908373ffffffffffffffffffffffffffffffffffffffff160217905550916020019190600101906139f3565b5b509050613a599190613aba565b5090565b604051806101000160405280600073ffffffffffffffffffffffffffffffffffffffff1681526020016060815260200160608152602001600081526020016060815260200160608152602001600015158152602001606081525090565b5b80821115613ad3576000816000905550600101613abb565b5090565b6000604051905090565b600080fd5b600080fd5b600073ffffffffffffffffffffffffffffffffffffffff82169050919050565b6000613b1682613aeb565b9050919050565b613b2681613b0b565b8114613b3157600080fd5b50565b600081359050613b4381613b1d565b92915050565b600060208284031215613b5f57613b5e613ae1565b5b6000613b6d84828501613b34565b91505092915050565b613b7f81613b0b565b82525050565b600081519050919050565b600082825260208201905092915050565b60005b83811015613bbf578082015181840152602081019050613ba4565b60008484015250505050565b6000601f19601f8301169050919050565b6000613be782613b85565b613bf18185613b90565b9350613c01818560208601613ba1565b613c0a81613bcb565b840191505092915050565b6000819050919050565b613c2881613c15565b82525050565b60008115159050919050565b613c4381613c2e565b82525050565b600061010082019050613c5f600083018b613b76565b8181036020830152613c71818a613bdc565b90508181036040830152613c858189613bdc565b9050613c946060830188613c1f565b8181036080830152613ca68187613bdc565b905081810360a0830152613cba8186613bdc565b9050613cc960c0830185613c3a565b81810360e0830152613cdb8184613bdc565b90509998505050505050505050565b6000602082019050613cff6000830184613c1f565b92915050565b600060ff82169050919050565b613d1b81613d05565b82525050565b6000602082019050613d366000830184613d12565b92915050565b613d4581613b0b565b82525050565b600082825260208201905092915050565b6000613d6782613b85565b613d718185613d4b565b9350613d81818560208601613ba1565b613d8a81613bcb565b840191505092915050565b613d9e81613c15565b82525050565b613dad81613c2e565b82525050565b600061018083016000830151613dcc6000860182613d3c565b5060208301518482036020860152613de48282613d5c565b91505060408301518482036040860152613dfe8282613d5c565b9150506060830151613e136060860182613d95565b5060808301518482036080860152613e2b8282613d5c565b91505060a083015184820360a0860152613e458282613d5c565b91505060c083015184820360c0860152613e5f8282613d5c565b91505060e083015184820360e0860152613e798282613d5c565b915050610100830151613e90610100860182613d95565b50610120830151613ea5610120860182613da4565b50610140830151848203610140860152613ebf8282613d5c565b915050610160830151848203610160860152613edb8282613d5c565b9150508091505092915050565b60006020820190508181036000830152613f028184613db3565b905092915050565b600061018082019050613f20600083018f613b76565b8181036020830152613f32818e613bdc565b90508181036040830152613f46818d613bdc565b9050613f55606083018c613c1f565b8181036080830152613f67818b613bdc565b905081810360a0830152613f7b818a613bdc565b905081810360c0830152613f8f8189613bdc565b905081810360e0830152613fa38188613bdc565b9050613fb3610100830187613c1f565b613fc1610120830186613c3a565b818103610140830152613fd48185613bdc565b9050818103610160830152613fe98184613bdc565b90509d9c50505050505050505050505050565b61400581613c15565b811461401057600080fd5b50565b60008135905061402281613ffc565b92915050565b60006020828403121561403e5761403d613ae1565b5b600061404c84828501614013565b91505092915050565b61405e81613d05565b82525050565b600081519050919050565b600082825260208201905092915050565b6000819050602082019050919050565b600061409c8383613d3c565b60208301905092915050565b6000602082019050919050565b60006140c082614064565b6140ca818561406f565b93506140d583614080565b8060005b838110156141065781516140ed8882614090565b97506140f8836140a8565b9250506001810190506140d9565b5085935050505092915050565b60006101008301600083015161412c6000860182614055565b50602083015161413f6020860182613d3c565b50604083015184820360408601526141578282613d5c565b915050606083015184820360608601526141718282613d5c565b91505060808301516141866080860182613d95565b5060a083015161419960a0860182613da4565b5060c083015184820360c08601526141b182826140b5565b91505060e08301516141c660e0860182613d3c565b508091505092915050565b600060208201905081810360008301526141eb8184614113565b905092915050565b600080fd5b600080fd5b7f4e487b7100000000000000000000000000000000000000000000000000000000600052604160045260246000fd5b61423582613bcb565b810181811067ffffffffffffffff82111715614254576142536141fd565b5b80604052505050565b6000614267613ad7565b9050614273828261422c565b919050565b600067ffffffffffffffff821115614293576142926141fd565b5b61429c82613bcb565b9050602081019050919050565b82818337600083830152505050565b60006142cb6142c684614278565b61425d565b9050828152602081018484840111156142e7576142e66141f8565b5b6142f28482856142a9565b509392505050565b600082601f83011261430f5761430e6141f3565b5b813561431f8482602086016142b8565b91505092915050565b600080600080600080600080610100898b03121561434957614348613ae1565b5b600089013567ffffffffffffffff81111561436757614366613ae6565b5b6143738b828c016142fa565b985050602089013567ffffffffffffffff81111561439457614393613ae6565b5b6143a08b828c016142fa565b975050604089013567ffffffffffffffff8111156143c1576143c0613ae6565b5b6143cd8b828c016142fa565b965050606089013567ffffffffffffffff8111156143ee576143ed613ae6565b5b6143fa8b828c016142fa565b955050608089013567ffffffffffffffff81111561441b5761441a613ae6565b5b6144278b828c016142fa565b94505060a089013567ffffffffffffffff81111561444857614447613ae6565b5b6144548b828c016142fa565b93505060c089013567ffffffffffffffff81111561447557614474613ae6565b5b6144818b828c016142fa565b92505060e089013567ffffffffffffffff8111156144a2576144a1613ae6565b5b6144ae8b828c016142fa565b9150509295985092959890939650565b600080604083850312156144d5576144d4613ae1565b5b60006144e385828601614013565b92505060206144f485828601613b34565b9150509250929050565b600080600080600060a0868803121561451a57614519613ae1565b5b600086013567ffffffffffffffff81111561453857614537613ae6565b5b614544888289016142fa565b955050602086013567ffffffffffffffff81111561456557614564613ae6565b5b614571888289016142fa565b945050604086013567ffffffffffffffff81111561459257614591613ae6565b5b61459e888289016142fa565b935050606086013567ffffffffffffffff8111156145bf576145be613ae6565b5b6145cb888289016142fa565b925050608086013567ffffffffffffffff8111156145ec576145eb613ae6565b5b6145f8888289016142fa565b9150509295509295909350565b60008060006060848603121561461e5761461d613ae1565b5b600084013567ffffffffffffffff81111561463c5761463b613ae6565b5b614648868287016142fa565b935050602084013567ffffffffffffffff81111561466957614668613ae6565b5b614675868287016142fa565b925050604061468686828701614013565b9150509250925092565b6000610100830160008301516146a96000860182613d3c565b50602083015184820360208601526146c18282613d5c565b915050604083015184820360408601526146db8282613d5c565b91505060608301516146f06060860182613d95565b50608083015184820360808601526147088282613d5c565b91505060a083015184820360a08601526147228282613d5c565b91505060c083015161473760c0860182613da4565b5060e083015184820360e086015261474f8282613d5c565b9150508091505092915050565b600060208201905081810360008301526147768184614690565b905092915050565b60006020820190506147936000830184613b76565b92915050565b600081519050919050565b600082825260208201905092915050565b6000819050602082019050919050565b6000610100830160008301516147de6000860182614055565b5060208301516147f16020860182613d3c565b50604083015184820360408601526148098282613d5c565b915050606083015184820360608601526148238282613d5c565b91505060808301516148386080860182613d95565b5060a083015161484b60a0860182613da4565b5060c083015184820360c086015261486382826140b5565b91505060e083015161487860e0860182613d3c565b508091505092915050565b600061488f83836147c5565b905092915050565b6000602082019050919050565b60006148af82614799565b6148b981856147a4565b9350836020820285016148cb856147b5565b8060005b8581101561490757848403895281516148e88582614883565b94506148f383614897565b925060208a019950506001810190506148cf565b50829750879550505050505092915050565b6000602082019050818103600083015261493381846148a4565b905092915050565b6000806040838503121561495257614951613ae1565b5b600061496085828601613b34565b925050602061497185828601614013565b9150509250929050565b7f4e487b7100000000000000000000000000000000000000000000000000000000600052602260045260246000fd5b600060028204905060018216806149c257607f821691505b6020821081036149d5576149d461497b565b5b50919050565b7f496e76616c6964206a6f62204944000000000000000000000000000000000000600082015250565b6000614a11600e83613b90565b9150614a1c826149db565b602082019050919050565b60006020820190508181036000830152614a4081614a04565b9050919050565b7f4a6f6220646f6573206e6f742065786973742e00000000000000000000000000600082015250565b6000614a7d601383613b90565b9150614a8882614a47565b602082019050919050565b60006020820190508181036000830152614aac81614a70565b9050919050565b7f4f6e6c792074686520656d706c6f7965722063616e206465706f73697420667560008201527f6e64732e00000000000000000000000000000000000000000000000000000000602082015250565b6000614b0f602483613b90565b9150614b1a82614ab3565b604082019050919050565b60006020820190508181036000830152614b3e81614b02565b9050919050565b7f4a6f6220697320616c726561647920636f6d706c657465642e00000000000000600082015250565b6000614b7b601983613b90565b9150614b8682614b45565b602082019050919050565b60006020820190508181036000830152614baa81614b6e565b9050919050565b7f496e73756666696369656e7420616d6f756e7400000000000000000000000000600082015250565b6000614be7601383613b90565b9150614bf282614bb1565b602082019050919050565b60006020820190508181036000830152614c1681614bda565b9050919050565b7f4e487b7100000000000000000000000000000000000000000000000000000000600052601160045260246000fd5b6000614c5782613c15565b9150614c6283613c15565b9250828201905080821115614c7a57614c79614c1d565b5b92915050565b6000606082019050614c956000830186613c1f565b614ca26020830185613b76565b614caf6040830184613c1f565b949350505050565b7f616c726561647920726567697374657265640000000000000000000000000000600082015250565b6000614ced601283613b90565b9150614cf882614cb7565b602082019050919050565b60006020820190508181036000830152614d1c81614ce0565b9050919050565b7f4e616d652063616e6e6f7420626520656d7074792e0000000000000000000000600082015250565b6000614d59601583613b90565b9150614d6482614d23565b602082019050919050565b60006020820190508181036000830152614d8881614d4c565b9050919050565b7f536b696c6c732063616e6e6f7420626520656d7074792e000000000000000000600082015250565b6000614dc5601783613b90565b9150614dd082614d8f565b602082019050919050565b60006020820190508181036000830152614df481614db8565b9050919050565b6000614e0682613c15565b91507fffffffffffffffffffffffffffffffffffffffffffffffffffffffffffffffff8203614e3857614e37614c1d565b5b600182019050919050565b60008190508160005260206000209050919050565b60006020601f8301049050919050565b600082821b905092915050565b600060088302614ea57fffffffffffffffffffffffffffffffffffffffffffffffffffffffffffffffff82614e68565b614eaf8683614e68565b95508019841693508086168417925050509392505050565b6000819050919050565b6000614eec614ee7614ee284613c15565b614ec7565b613c15565b9050919050565b6000819050919050565b614f0683614ed1565b614f1a614f1282614ef3565b848454614e75565b825550505050565b600090565b614f2f614f22565b614f3a818484614efd565b505050565b5b81811015614f5e57614f53600082614f27565b600181019050614f40565b5050565b601f821115614fa357614f7481614e43565b614f7d84614e58565b81016020851015614f8c578190505b614fa0614f9885614e58565b830182614f3f565b50505b505050565b600082821c905092915050565b6000614fc660001984600802614fa8565b1980831691505092915050565b6000614fdf8383614fb5565b9150826002028217905092915050565b614ff882613b85565b67ffffffffffffffff811115615011576150106141fd565b5b61501b82546149aa565b615026828285614f62565b600060209050601f8311600181146150595760008415615047578287015190505b6150518582614fd3565b8655506150b9565b601f19841661506786614e43565b60005b8281101561508f5784890151825560018201915060208501945060208101905061506a565b868310156150ac57848901516150a8601f891682614fb5565b8355505b6001600288020188555050505b505050505050565b60006040820190506150d66000830185613b76565b81810360208301526150e88184613bdc565b90509392505050565b7f4f6e6c7920656d706c6f7965722063616e2063616c6c20746869732066756e6360008201527f74696f6e00000000000000000000000000000000000000000000000000000000602082015250565b600061514d602483613b90565b9150615158826150f1565b604082019050919050565b6000602082019050818103600083015261517c81615140565b9050919050565b7f4a6f62206e6f7420666f756e642e000000000000000000000000000000000000600082015250565b60006151b9600e83613b90565b91506151c482615183565b602082019050919050565b600060208201905081810360008301526151e8816151ac565b9050919050565b7f467265656c616e636572206973206e6f7420686972656420666f72207468697360008201527f206a6f622e000000000000000000000000000000000000000000000000000000602082015250565b600061524b602583613b90565b9150615256826151ef565b604082019050919050565b6000602082019050818103600083015261527a8161523e565b9050919050565b600061528c82613d05565b915060ff820361529f5761529e614c1d565b5b600182019050919050565b60006152c56152c06152bb84613d05565b614ec7565b613c15565b9050919050565b6152d5816152aa565b82525050565b60006040820190506152f060008301856152cc565b81810360208301526153028184613bdc565b90509392505050565b7f467265656c616e63657220697320616c72656164792068697265642e00000000600082015250565b6000615341601c83613b90565b915061534c8261530b565b602082019050919050565b6000602082019050818103600083015261537081615334565b9050919050565b7f4f6e6c7920667265656c616e6365722063616e2063616c6c207468697320667560008201527f6e6374696f6e0000000000000000000000000000000000000000000000000000602082015250565b60006153d3602683613b90565b91506153de82615377565b604082019050919050565b60006020820190508181036000830152615402816153c6565b9050919050565b7f4e6f2062616c616e636520746f2077697468647261772e000000000000000000600082015250565b600061543f601783613b90565b915061544a82615409565b602082019050919050565b6000602082019050818103600083015261546e81615432565b9050919050565b600081905092915050565b50565b6000615490600083615475565b915061549b82615480565b600082019050919050565b60006154b182615483565b9150819050919050565b7f5472616e73666572206661696c65642e00000000000000000000000000000000600082015250565b60006154f1601083613b90565b91506154fc826154bb565b602082019050919050565b60006020820190508181036000830152615520816154e4565b9050919050565b600060408201905061553c6000830185613b76565b6155496020830184613c1f565b9392505050565b7f4f6e6c792074686520656d706c6f7965722063616e2072656c6561736520657360008201527f63726f772e000000000000000000000000000000000000000000000000000000602082015250565b60006155ac602583613b90565b91506155b782615550565b604082019050919050565b600060208201905081810360008301526155db8161559f565b9050919050565b7f4a6f62206973206e6f7420636f6d706c6574656420627920667265656c616e6360008201527f6572000000000000000000000000000000000000000000000000000000000000602082015250565b600061563e602283613b90565b9150615649826155e2565b604082019050919050565b6000602082019050818103600083015261566d81615631565b9050919050565b7f4e6f2066756e647320696e20657363726f772e00000000000000000000000000600082015250565b60006156aa601383613b90565b91506156b582615674565b602082019050919050565b600060208201905081810360008301526156d98161569d565b9050919050565b7f696e73756666696369656e742066756e64730000000000000000000000000000600082015250565b6000615716601283613b90565b9150615721826156e0565b602082019050919050565b6000602082019050818103600083015261574581615709565b9050919050565b7f4e487b7100000000000000000000000000000000000000000000000000000000600052603260045260246000fd5b7f496e76616c6964206170706c6963616e742e0000000000000000000000000000600082015250565b60006157b1601283613b90565b91506157bc8261577b565b602082019050919050565b600060208201905081810360008301526157e0816157a4565b9050919050565b7f596f75206861766520616c7265616479206170706c69656420666f722074686960008201527f73206a6f622e0000000000000000000000000000000000000000000000000000602082015250565b6000615843602683613b90565b915061584e826157e7565b604082019050919050565b6000602082019050818103600083015261587281615836565b9050919050565b600060608201905061588e6000830186613c1f565b61589b6020830185613b76565b6158a86040830184613b76565b94935050505056fea2646970667358221220ac6894d09636900f67fcd3a810e5c8cb7c57c829af65f10553f9d46029948d8f64736f6c63430008130033",
  "devdoc": {
    "kind": "dev",
    "methods": {
      "allJobs()": {
        "returns": {
          "props": "props"
        }
      },
      "applyForJob(uint256)": {
        "params": {
          "jobId": ", job id"
        }
      },
      "completeJob(uint256,address)": {
        "params": {
          "jobId": ", @param freelancerAddress"
        }
      },
      "createJob(string,string,uint256)": {
        "params": {
          "_title": ", @param _description, @param _budget"
        }
      },
      "depositFunds(uint256)": {
        "params": {
          "jobId": ", job id"
        }
      },
      "getEmployerByAddress(address)": {
        "params": {
          "_employer": ", address"
        },
        "returns": {
          "props": "props"
        }
      },
      "getEmployerEscrow(address,uint256)": {
        "params": {
          "_employer": ", @param _job_id"
        },
        "returns": {
          "_0": "uint"
        }
      },
      "getFreelancerByAddress(address)": {
        "params": {
          "_freelancer": ", address"
        },
        "returns": {
          "props": "props"
        }
      },
      "getJobByID(uint256)": {
        "params": {
          "jobId": ", jobId"
        },
        "returns": {
          "props": "props"
        }
      },
      "hireFreelancer(uint256,address)": {
        "params": {
          "jobId": ", @param freelancerAddress"
        }
      },
      "registerEmployer(string,string,string,string,string)": {
        "params": {
          "_name": ", @param _industry"
        }
      },
      "registerFreelancer(string,string,string,string,string,string,string,string)": {
        "params": {
          "_name": ", @param _skills"
        }
      },
      "releaseEscrow(uint256,address)": {
        "params": {
          "jobId": ", @param freelancerAddress"
        }
      }
    },
    "version": 1
  },
  "userdoc": {
    "kind": "user",
    "methods": {
      "allJobs()": {
        "notice": "retrieves all jobs"
      },
      "applyForJob(uint256)": {
        "notice": "job application"
      },
      "completeJob(uint256,address)": {
        "notice": "process job completion"
      },
      "createJob(string,string,uint256)": {
        "notice": "job creation and increment job count,"
      },
      "depositFunds(uint256)": {
        "notice": "process employer funds deposit for a specific job"
      },
      "getEmployerByAddress(address)": {
        "notice": "retrieves employer by address"
      },
      "getEmployerEscrow(address,uint256)": {
        "notice": "retrieves employer escrow balance"
      },
      "getFreelancerByAddress(address)": {
        "notice": "retrieves freelancer by address"
      },
      "getJobByID(uint256)": {
        "notice": "retrieves job by ID"
      },
      "hireFreelancer(uint256,address)": {
        "notice": "hiring freelancer and check if freelancer is not already hired for the job"
      },
      "registerEmployer(string,string,string,string,string)": {
        "notice": "process employer registration"
      },
      "registerFreelancer(string,string,string,string,string,string,string,string)": {
        "notice": "process freelancer registration"
      },
      "releaseEscrow(uint256,address)": {
        "notice": "release escrow fund after successful completion of the job"
      },
      "withdrawEarnings()": {
        "notice": "process funds withdrawal to the freelancer after successful completion of a job"
      }
    },
    "version": 1
  },
  "storageLayout": {
    "storage": [
      {
        "astId": 3,
        "contract": "contracts/Freelancer.sol:Dfreelancer",
        "label": "owner",
        "offset": 0,
        "slot": "0",
        "type": "t_address"
      },
      {
        "astId": 5,
        "contract": "contracts/Freelancer.sol:Dfreelancer",
        "label": "totalJobs",
        "offset": 20,
        "slot": "0",
        "type": "t_uint8"
      },
      {
        "astId": 7,
        "contract": "contracts/Freelancer.sol:Dfreelancer",
        "label": "totalFreelancers",
        "offset": 0,
        "slot": "1",
        "type": "t_uint256"
      },
      {
        "astId": 9,
        "contract": "contracts/Freelancer.sol:Dfreelancer",
        "label": "totalEmployers",
        "offset": 0,
        "slot": "2",
        "type": "t_uint256"
      },
      {
        "astId": 11,
        "contract": "contracts/Freelancer.sol:Dfreelancer",
        "label": "totalCompletedJobs",
        "offset": 0,
        "slot": "3",
        "type": "t_uint256"
      },
      {
        "astId": 76,
        "contract": "contracts/Freelancer.sol:Dfreelancer",
        "label": "jobs",
        "offset": 0,
        "slot": "4",
        "type": "t_mapping(t_uint256,t_struct(Job)29_storage)"
      },
      {
        "astId": 81,
        "contract": "contracts/Freelancer.sol:Dfreelancer",
        "label": "freelancers",
        "offset": 0,
        "slot": "5",
        "type": "t_mapping(t_address,t_struct(Freelancer)54_storage)"
      },
      {
        "astId": 86,
        "contract": "contracts/Freelancer.sol:Dfreelancer",
        "label": "employers",
        "offset": 0,
        "slot": "6",
        "type": "t_mapping(t_address,t_struct(Employer)71_storage)"
      },
      {
        "astId": 92,
        "contract": "contracts/Freelancer.sol:Dfreelancer",
        "label": "escrowFunds",
        "offset": 0,
        "slot": "7",
        "type": "t_mapping(t_address,t_mapping(t_uint256,t_uint256))"
      }
    ],
    "types": {
      "t_address": {
        "encoding": "inplace",
        "label": "address",
        "numberOfBytes": "20"
      },
      "t_array(t_address)dyn_storage": {
        "base": "t_address",
        "encoding": "dynamic_array",
        "label": "address[]",
        "numberOfBytes": "32"
      },
      "t_bool": {
        "encoding": "inplace",
        "label": "bool",
        "numberOfBytes": "1"
      },
      "t_mapping(t_address,t_mapping(t_uint256,t_uint256))": {
        "encoding": "mapping",
        "key": "t_address",
        "label": "mapping(address => mapping(uint256 => uint256))",
        "numberOfBytes": "32",
        "value": "t_mapping(t_uint256,t_uint256)"
      },
      "t_mapping(t_address,t_struct(Employer)71_storage)": {
        "encoding": "mapping",
        "key": "t_address",
        "label": "mapping(address => struct Dfreelancer.Employer)",
        "numberOfBytes": "32",
        "value": "t_struct(Employer)71_storage"
      },
      "t_mapping(t_address,t_struct(Freelancer)54_storage)": {
        "encoding": "mapping",
        "key": "t_address",
        "label": "mapping(address => struct Dfreelancer.Freelancer)",
        "numberOfBytes": "32",
        "value": "t_struct(Freelancer)54_storage"
      },
      "t_mapping(t_uint256,t_struct(Job)29_storage)": {
        "encoding": "mapping",
        "key": "t_uint256",
        "label": "mapping(uint256 => struct Dfreelancer.Job)",
        "numberOfBytes": "32",
        "value": "t_struct(Job)29_storage"
      },
      "t_mapping(t_uint256,t_uint256)": {
        "encoding": "mapping",
        "key": "t_uint256",
        "label": "mapping(uint256 => uint256)",
        "numberOfBytes": "32",
        "value": "t_uint256"
      },
      "t_string_storage": {
        "encoding": "bytes",
        "label": "string",
        "numberOfBytes": "32"
      },
      "t_struct(Employer)71_storage": {
        "encoding": "inplace",
        "label": "struct Dfreelancer.Employer",
        "members": [
          {
            "astId": 56,
            "contract": "contracts/Freelancer.sol:Dfreelancer",
            "label": "employerAddress",
            "offset": 0,
            "slot": "0",
            "type": "t_address"
          },
          {
            "astId": 58,
            "contract": "contracts/Freelancer.sol:Dfreelancer",
            "label": "name",
            "offset": 0,
            "slot": "1",
            "type": "t_string_storage"
          },
          {
            "astId": 60,
            "contract": "contracts/Freelancer.sol:Dfreelancer",
            "label": "industry",
            "offset": 0,
            "slot": "2",
            "type": "t_string_storage"
          },
          {
            "astId": 62,
            "contract": "contracts/Freelancer.sol:Dfreelancer",
            "label": "balance",
            "offset": 0,
            "slot": "3",
            "type": "t_uint256"
          },
          {
            "astId": 64,
            "contract": "contracts/Freelancer.sol:Dfreelancer",
            "label": "country",
            "offset": 0,
            "slot": "4",
            "type": "t_string_storage"
          },
          {
            "astId": 66,
            "contract": "contracts/Freelancer.sol:Dfreelancer",
            "label": "image",
            "offset": 0,
            "slot": "5",
            "type": "t_string_storage"
          },
          {
            "astId": 68,
            "contract": "contracts/Freelancer.sol:Dfreelancer",
            "label": "registered",
            "offset": 0,
            "slot": "6",
            "type": "t_bool"
          },
          {
            "astId": 70,
            "contract": "contracts/Freelancer.sol:Dfreelancer",
            "label": "registration_date",
            "offset": 0,
            "slot": "7",
            "type": "t_string_storage"
          }
        ],
        "numberOfBytes": "256"
      },
      "t_struct(Freelancer)54_storage": {
        "encoding": "inplace",
        "label": "struct Dfreelancer.Freelancer",
        "members": [
          {
            "astId": 31,
            "contract": "contracts/Freelancer.sol:Dfreelancer",
            "label": "freelancerAddress",
            "offset": 0,
            "slot": "0",
            "type": "t_address"
          },
          {
            "astId": 33,
            "contract": "contracts/Freelancer.sol:Dfreelancer",
            "label": "name",
            "offset": 0,
            "slot": "1",
            "type": "t_string_storage"
          },
          {
            "astId": 35,
            "contract": "contracts/Freelancer.sol:Dfreelancer",
            "label": "skills",
            "offset": 0,
            "slot": "2",
            "type": "t_string_storage"
          },
          {
            "astId": 37,
            "contract": "contracts/Freelancer.sol:Dfreelancer",
            "label": "balance",
            "offset": 0,
            "slot": "3",
            "type": "t_uint256"
          },
          {
            "astId": 39,
            "contract": "contracts/Freelancer.sol:Dfreelancer",
            "label": "country",
            "offset": 0,
            "slot": "4",
            "type": "t_string_storage"
          },
          {
            "astId": 41,
            "contract": "contracts/Freelancer.sol:Dfreelancer",
            "label": "image",
            "offset": 0,
            "slot": "5",
            "type": "t_string_storage"
          },
          {
            "astId": 43,
            "contract": "contracts/Freelancer.sol:Dfreelancer",
            "label": "gigTitle",
            "offset": 0,
            "slot": "6",
            "type": "t_string_storage"
          },
          {
            "astId": 45,
            "contract": "contracts/Freelancer.sol:Dfreelancer",
            "label": "gitDescription",
            "offset": 0,
            "slot": "7",
            "type": "t_string_storage"
          },
          {
            "astId": 47,
            "contract": "contracts/Freelancer.sol:Dfreelancer",
            "label": "jobsCompleted",
            "offset": 0,
            "slot": "8",
            "type": "t_uint256"
          },
          {
            "astId": 49,
            "contract": "contracts/Freelancer.sol:Dfreelancer",
            "label": "registered",
            "offset": 0,
            "slot": "9",
            "type": "t_bool"
          },
          {
            "astId": 51,
            "contract": "contracts/Freelancer.sol:Dfreelancer",
            "label": "registration_date",
            "offset": 0,
            "slot": "10",
            "type": "t_string_storage"
          },
          {
            "astId": 53,
            "contract": "contracts/Freelancer.sol:Dfreelancer",
            "label": "starting_price",
            "offset": 0,
            "slot": "11",
            "type": "t_string_storage"
          }
        ],
        "numberOfBytes": "384"
      },
      "t_struct(Job)29_storage": {
        "encoding": "inplace",
        "label": "struct Dfreelancer.Job",
        "members": [
          {
            "astId": 13,
            "contract": "contracts/Freelancer.sol:Dfreelancer",
            "label": "id",
            "offset": 0,
            "slot": "0",
            "type": "t_uint8"
          },
          {
            "astId": 15,
            "contract": "contracts/Freelancer.sol:Dfreelancer",
            "label": "employer",
            "offset": 1,
            "slot": "0",
            "type": "t_address"
          },
          {
            "astId": 17,
            "contract": "contracts/Freelancer.sol:Dfreelancer",
            "label": "title",
            "offset": 0,
            "slot": "1",
            "type": "t_string_storage"
          },
          {
            "astId": 19,
            "contract": "contracts/Freelancer.sol:Dfreelancer",
            "label": "description",
            "offset": 0,
            "slot": "2",
            "type": "t_string_storage"
          },
          {
            "astId": 21,
            "contract": "contracts/Freelancer.sol:Dfreelancer",
            "label": "budget",
            "offset": 0,
            "slot": "3",
            "type": "t_uint256"
          },
          {
            "astId": 23,
            "contract": "contracts/Freelancer.sol:Dfreelancer",
            "label": "completed",
            "offset": 0,
            "slot": "4",
            "type": "t_bool"
          },
          {
            "astId": 26,
            "contract": "contracts/Freelancer.sol:Dfreelancer",
            "label": "applicants",
            "offset": 0,
            "slot": "5",
            "type": "t_array(t_address)dyn_storage"
          },
          {
            "astId": 28,
            "contract": "contracts/Freelancer.sol:Dfreelancer",
            "label": "hiredFreelancer",
            "offset": 0,
            "slot": "6",
            "type": "t_address"
          }
        ],
        "numberOfBytes": "224"
      },
      "t_uint256": {
        "encoding": "inplace",
        "label": "uint256",
        "numberOfBytes": "32"
      },
      "t_uint8": {
        "encoding": "inplace",
        "label": "uint8",
        "numberOfBytes": "1"
      }
    }
  }
}