{
  "address": "0x5FbDB2315678afecb367f032d93F642f64180aa3",
  "abi": [
    {
      "inputs": [],
      "stateMutability": "nonpayable",
      "type": "constructor"
    },
    {
      "anonymous": false,
      "inputs": [
        {
          "indexed": false,
          "internalType": "uint256",
          "name": "jobId",
          "type": "uint256"
        },
        {
          "indexed": false,
          "internalType": "address",
          "name": "employerAddress",
          "type": "address"
        },
        {
          "indexed": false,
          "internalType": "address",
          "name": "freelancerAddress",
          "type": "address"
        }
      ],
      "name": "AppliedForJob",
      "type": "event"
    },
    {
      "anonymous": false,
      "inputs": [
        {
          "indexed": false,
          "internalType": "address",
          "name": "EmployerAddress",
          "type": "address"
        },
        {
          "indexed": false,
          "internalType": "string",
          "name": "name",
          "type": "string"
        }
      ],
      "name": "EmployerRegistered",
      "type": "event"
    },
    {
      "anonymous": false,
      "inputs": [
        {
          "indexed": false,
          "internalType": "address",
          "name": "freelancerAddress",
          "type": "address"
        },
        {
          "indexed": false,
          "internalType": "string",
          "name": "name",
          "type": "string"
        }
      ],
      "name": "FreelancerRegistered",
      "type": "event"
    },
    {
      "anonymous": false,
      "inputs": [
        {
          "indexed": false,
          "internalType": "uint256",
          "name": "jobId",
          "type": "uint256"
        },
        {
          "indexed": false,
          "internalType": "address",
          "name": "sender",
          "type": "address"
        },
        {
          "indexed": false,
          "internalType": "uint256",
          "name": "amount",
          "type": "uint256"
        }
      ],
      "name": "FundsDeposited",
      "type": "event"
    },
    {
      "anonymous": false,
      "inputs": [
        {
          "indexed": false,
          "internalType": "uint256",
          "name": "jobId",
          "type": "uint256"
        },
        {
          "indexed": false,
          "internalType": "address",
          "name": "freelancerAddress",
          "type": "address"
        },
        {
          "indexed": false,
          "internalType": "uint256",
          "name": "amount",
          "type": "uint256"
        }
      ],
      "name": "FundsReleased",
      "type": "event"
    },
    {
      "anonymous": false,
      "inputs": [
        {
          "indexed": false,
          "internalType": "uint256",
          "name": "jobId",
          "type": "uint256"
        },
        {
          "indexed": false,
          "internalType": "address",
          "name": "freelancerAddress",
          "type": "address"
        },
        {
          "indexed": false,
          "internalType": "uint256",
          "name": "payment",
          "type": "uint256"
        }
      ],
      "name": "JobCompleted",
      "type": "event"
    },
    {
      "anonymous": false,
      "inputs": [
        {
          "indexed": false,
          "internalType": "uint256",
          "name": "jobId",
          "type": "uint256"
        },
        {
          "indexed": false,
          "internalType": "string",
          "name": "title",
          "type": "string"
        }
      ],
      "name": "JobCreated",
      "type": "event"
    },
    {
      "anonymous": false,
      "inputs": [
        {
          "indexed": false,
          "internalType": "address",
          "name": "freelancer",
          "type": "address"
        },
        {
          "indexed": false,
          "internalType": "uint256",
          "name": "amount",
          "type": "uint256"
        }
      ],
      "name": "WithdrawFund",
      "type": "event"
    },
    {
      "inputs": [],
      "name": "allJobs",
      "outputs": [
        {
          "components": [
            {
              "internalType": "uint8",
              "name": "id",
              "type": "uint8"
            },
            {
              "internalType": "address",
              "name": "employer",
              "type": "address"
            },
            {
              "internalType": "string",
              "name": "title",
              "type": "string"
            },
            {
              "internalType": "string",
              "name": "description",
              "type": "string"
            },
            {
              "internalType": "uint256",
              "name": "budget",
              "type": "uint256"
            },
            {
              "internalType": "bool",
              "name": "completed",
              "type": "bool"
            },
            {
              "internalType": "address[]",
              "name": "applicants",
              "type": "address[]"
            },
            {
              "internalType": "address",
              "name": "hiredFreelancer",
              "type": "address"
            }
          ],
          "internalType": "struct Dfreelancer.Job[]",
          "name": "props",
          "type": "tuple[]"
        }
      ],
      "stateMutability": "view",
      "type": "function"
    },
    {
      "inputs": [
        {
          "internalType": "uint256",
          "name": "jobId",
          "type": "uint256"
        }
      ],
      "name": "applyForJob",
      "outputs": [],
      "stateMutability": "nonpayable",
      "type": "function"
    },
    {
      "inputs": [
        {
          "internalType": "uint256",
          "name": "jobId",
          "type": "uint256"
        },
        {
          "internalType": "address",
          "name": "freelancerAddress",
          "type": "address"
        }
      ],
      "name": "completeJob",
      "outputs": [],
      "stateMutability": "nonpayable",
      "type": "function"
    },
    {
      "inputs": [
        {
          "internalType": "string",
          "name": "_title",
          "type": "string"
        },
        {
          "internalType": "string",
          "name": "_description",
          "type": "string"
        },
        {
          "internalType": "uint256",
          "name": "_budget",
          "type": "uint256"
        }
      ],
      "name": "createJob",
      "outputs": [],
      "stateMutability": "nonpayable",
      "type": "function"
    },
    {
      "inputs": [
        {
          "internalType": "uint256",
          "name": "jobId",
          "type": "uint256"
        }
      ],
      "name": "depositFunds",
      "outputs": [],
      "stateMutability": "payable",
      "type": "function"
    },
    {
      "inputs": [
        {
          "internalType": "address",
          "name": "",
          "type": "address"
        }
      ],
      "name": "employers",
      "outputs": [
        {
          "internalType": "address",
          "name": "employerAddress",
          "type": "address"
        },
        {
          "internalType": "string",
          "name": "name",
          "type": "string"
        },
        {
          "internalType": "string",
          "name": "industry",
          "type": "string"
        },
        {
          "internalType": "uint256",
          "name": "balance",
          "type": "uint256"
        },
        {
          "internalType": "string",
          "name": "country",
          "type": "string"
        },
        {
          "internalType": "string",
          "name": "image",
          "type": "string"
        },
        {
          "internalType": "bool",
          "name": "registered",
          "type": "bool"
        }
      ],
      "stateMutability": "view",
      "type": "function"
    },
    {
      "inputs": [
        {
          "internalType": "address",
          "name": "",
          "type": "address"
        }
      ],
      "name": "freelancers",
      "outputs": [
        {
          "internalType": "address",
          "name": "freelancerAddress",
          "type": "address"
        },
        {
          "internalType": "string",
          "name": "name",
          "type": "string"
        },
        {
          "internalType": "string",
          "name": "skills",
          "type": "string"
        },
        {
          "internalType": "uint256",
          "name": "balance",
          "type": "uint256"
        },
        {
          "internalType": "string",
          "name": "country",
          "type": "string"
        },
        {
          "internalType": "string",
          "name": "image",
          "type": "string"
        },
        {
          "internalType": "bool",
          "name": "registered",
          "type": "bool"
        }
      ],
      "stateMutability": "view",
      "type": "function"
    },
    {
      "inputs": [
        {
          "internalType": "address",
          "name": "_employer",
          "type": "address"
        }
      ],
      "name": "getEmployerByAddress",
      "outputs": [
        {
          "components": [
            {
              "internalType": "address",
              "name": "employerAddress",
              "type": "address"
            },
            {
              "internalType": "string",
              "name": "name",
              "type": "string"
            },
            {
              "internalType": "string",
              "name": "industry",
              "type": "string"
            },
            {
              "internalType": "uint256",
              "name": "balance",
              "type": "uint256"
            },
            {
              "internalType": "string",
              "name": "country",
              "type": "string"
            },
            {
              "internalType": "string",
              "name": "image",
              "type": "string"
            },
            {
              "internalType": "bool",
              "name": "registered",
              "type": "bool"
            }
          ],
          "internalType": "struct Dfreelancer.Employer",
          "name": "props",
          "type": "tuple"
        }
      ],
      "stateMutability": "view",
      "type": "function"
    },
    {
      "inputs": [
        {
          "internalType": "address",
          "name": "_employer",
          "type": "address"
        },
        {
          "internalType": "uint256",
          "name": "_job_id",
          "type": "uint256"
        }
      ],
      "name": "getEmployerEscrow",
      "outputs": [
        {
          "internalType": "uint256",
          "name": "",
          "type": "uint256"
        }
      ],
      "stateMutability": "view",
      "type": "function"
    },
    {
      "inputs": [
        {
          "internalType": "address",
          "name": "_freelancer",
          "type": "address"
        }
      ],
      "name": "getFreelancerByAddress",
      "outputs": [
        {
          "components": [
            {
              "internalType": "address",
              "name": "freelancerAddress",
              "type": "address"
            },
            {
              "internalType": "string",
              "name": "name",
              "type": "string"
            },
            {
              "internalType": "string",
              "name": "skills",
              "type": "string"
            },
            {
              "internalType": "uint256",
              "name": "balance",
              "type": "uint256"
            },
            {
              "internalType": "string",
              "name": "country",
              "type": "string"
            },
            {
              "internalType": "string",
              "name": "image",
              "type": "string"
            },
            {
              "internalType": "bool",
              "name": "registered",
              "type": "bool"
            }
          ],
          "internalType": "struct Dfreelancer.Freelancer",
          "name": "props",
          "type": "tuple"
        }
      ],
      "stateMutability": "view",
      "type": "function"
    },
    {
      "inputs": [
        {
          "internalType": "uint256",
          "name": "jobId",
          "type": "uint256"
        }
      ],
      "name": "getJobByID",
      "outputs": [
        {
          "components": [
            {
              "internalType": "uint8",
              "name": "id",
              "type": "uint8"
            },
            {
              "internalType": "address",
              "name": "employer",
              "type": "address"
            },
            {
              "internalType": "string",
              "name": "title",
              "type": "string"
            },
            {
              "internalType": "string",
              "name": "description",
              "type": "string"
            },
            {
              "internalType": "uint256",
              "name": "budget",
              "type": "uint256"
            },
            {
              "internalType": "bool",
              "name": "completed",
              "type": "bool"
            },
            {
              "internalType": "address[]",
              "name": "applicants",
              "type": "address[]"
            },
            {
              "internalType": "address",
              "name": "hiredFreelancer",
              "type": "address"
            }
          ],
          "internalType": "struct Dfreelancer.Job",
          "name": "props",
          "type": "tuple"
        }
      ],
      "stateMutability": "view",
      "type": "function"
    },
    {
      "inputs": [
        {
          "internalType": "uint256",
          "name": "jobId",
          "type": "uint256"
        },
        {
          "internalType": "address",
          "name": "freelancerAddress",
          "type": "address"
        }
      ],
      "name": "hireFreelancer",
      "outputs": [],
      "stateMutability": "nonpayable",
      "type": "function"
    },
    {
      "inputs": [],
      "name": "owner",
      "outputs": [
        {
          "internalType": "address",
          "name": "",
          "type": "address"
        }
      ],
      "stateMutability": "view",
      "type": "function"
    },
    {
      "inputs": [
        {
          "internalType": "string",
          "name": "_name",
          "type": "string"
        },
        {
          "internalType": "string",
          "name": "_industry",
          "type": "string"
        },
        {
          "internalType": "string",
          "name": "_country",
          "type": "string"
        },
        {
          "internalType": "string",
          "name": "_imageURI",
          "type": "string"
        }
      ],
      "name": "registerEmployer",
      "outputs": [],
      "stateMutability": "nonpayable",
      "type": "function"
    },
    {
      "inputs": [
        {
          "internalType": "string",
          "name": "_name",
          "type": "string"
        },
        {
          "internalType": "string",
          "name": "_skills",
          "type": "string"
        },
        {
          "internalType": "string",
          "name": "_country",
          "type": "string"
        },
        {
          "internalType": "string",
          "name": "_imageURI",
          "type": "string"
        }
      ],
      "name": "registerFreelancer",
      "outputs": [],
      "stateMutability": "nonpayable",
      "type": "function"
    },
    {
      "inputs": [
        {
          "internalType": "uint256",
          "name": "jobId",
          "type": "uint256"
        },
        {
          "internalType": "address",
          "name": "freelancerAddress",
          "type": "address"
        }
      ],
      "name": "releaseEscrow",
      "outputs": [],
      "stateMutability": "nonpayable",
      "type": "function"
    },
    {
      "inputs": [],
      "name": "totalCompletedJobs",
      "outputs": [
        {
          "internalType": "uint256",
          "name": "",
          "type": "uint256"
        }
      ],
      "stateMutability": "view",
      "type": "function"
    },
    {
      "inputs": [],
      "name": "totalEmployers",
      "outputs": [
        {
          "internalType": "uint256",
          "name": "",
          "type": "uint256"
        }
      ],
      "stateMutability": "view",
      "type": "function"
    },
    {
      "inputs": [],
      "name": "totalFreelancers",
      "outputs": [
        {
          "internalType": "uint256",
          "name": "",
          "type": "uint256"
        }
      ],
      "stateMutability": "view",
      "type": "function"
    },
    {
      "inputs": [],
      "name": "totalJobs",
      "outputs": [
        {
          "internalType": "uint8",
          "name": "",
          "type": "uint8"
        }
      ],
      "stateMutability": "view",
      "type": "function"
    },
    {
      "inputs": [],
      "name": "withdrawEarnings",
      "outputs": [],
      "stateMutability": "nonpayable",
      "type": "function"
    }
  ],
  "transactionHash": "0x02e94d77a9d38cea684ce0fa33423a1b2a473f95401191a9c45f5a21ca6239a3",
  "args": [],
  "numDeployments": 1,
  "solcInputHash": "4adbace1b485d96fefefb337541ab27f",
  "bytecode": "0x608060405234801561001057600080fd5b50336000806101000a81548173ffffffffffffffffffffffffffffffffffffffff021916908373ffffffffffffffffffffffffffffffffffffffff160217905550614e95806100606000396000f3fe60806040526004361061012a5760003560e01c80635e586eb1116100ab578063b0f26f181161006f578063b0f26f1814610403578063b73c6ce91461042c578063c6cb3bbe14610443578063c8d1b6aa1461046c578063dfac8ce514610497578063e0c94ae5146104d45761012a565b80635e586eb11461031e5780636a6b67d11461034957806373a06f42146103725780637a7871251461039b5780638da5cb5b146103d85761012a565b80631ace87b3116100f25780631ace87b31461021a5780631c7af7a01461024557806321bd669314610282578063371ae9f4146102c55780633b76594d146103025761012a565b806307ad7e671461012f5780630be435bd146101585780630e5534421461019b5780631033397b146101c45780631906b4ce146101ef575b600080fd5b34801561013b57600080fd5b506101566004803603810190610151919061354d565b6104fd565b005b34801561016457600080fd5b5061017f600480360381019061017a9190613682565b6107ca565b6040516101929796959493929190613771565b60405180910390f35b3480156101a757600080fd5b506101c260048036038101906101bd919061354d565b610a59565b005b3480156101d057600080fd5b506101d9610d26565b6040516101e691906137fc565b60405180910390f35b3480156101fb57600080fd5b50610204610d2c565b60405161021191906137fc565b60405180910390f35b34801561022657600080fd5b5061022f610d32565b60405161023c9190613833565b60405180910390f35b34801561025157600080fd5b5061026c60048036038101906102679190613682565b610d45565b6040516102799190613976565b60405180910390f35b34801561028e57600080fd5b506102a960048036038101906102a49190613682565b611061565b6040516102bc9796959493929190613771565b60405180910390f35b3480156102d157600080fd5b506102ec60048036038101906102e791906139c4565b6112f0565b6040516102f99190613b6d565b60405180910390f35b61031c600480360381019061031791906139c4565b61161f565b005b34801561032a57600080fd5b506103336118c7565b60405161034091906137fc565b60405180910390f35b34801561035557600080fd5b50610370600480360381019061036b9190613b8f565b6118cd565b005b34801561037e57600080fd5b5061039960048036038101906103949190613bcf565b611b72565b005b3480156103a757600080fd5b506103c260048036038101906103bd9190613682565b611ebf565b6040516103cf9190613d0b565b60405180910390f35b3480156103e457600080fd5b506103ed6121db565b6040516103fa9190613d2d565b60405180910390f35b34801561040f57600080fd5b5061042a60048036038101906104259190613b8f565b6121ff565b005b34801561043857600080fd5b5061044161246e565b005b34801561044f57600080fd5b5061046a60048036038101906104659190613b8f565b6126c7565b005b34801561047857600080fd5b50610481612ad3565b60405161048e9190613ec8565b60405180910390f35b3480156104a357600080fd5b506104be60048036038101906104b99190613eea565b612e4e565b6040516104cb91906137fc565b60405180910390f35b3480156104e057600080fd5b506104fb60048036038101906104f691906139c4565b612ea9565b005b60001515600560003373ffffffffffffffffffffffffffffffffffffffff1673ffffffffffffffffffffffffffffffffffffffff16815260200190815260200160002060060160009054906101000a900460ff16151514610593576040517f08c379a000000000000000000000000000000000000000000000000000000000815260040161058a90613f76565b60405180910390fd5b60008451116105d7576040517f08c379a00000000000000000000000000000000000000000000000000000000081526004016105ce90613fe2565b60405180910390fd5b600083511161061b576040517f08c379a00000000000000000000000000000000000000000000000000000000081526004016106129061404e565b60405180910390fd5b6001600081548092919061062e9061409d565b91905055506040518060e001604052803373ffffffffffffffffffffffffffffffffffffffff1681526020018581526020018481526020016000815260200183815260200182815260200160011515815250600560003373ffffffffffffffffffffffffffffffffffffffff1673ffffffffffffffffffffffffffffffffffffffff16815260200190815260200160002060008201518160000160006101000a81548173ffffffffffffffffffffffffffffffffffffffff021916908373ffffffffffffffffffffffffffffffffffffffff160217905550602082015181600101908161071b91906142f1565b50604082015181600201908161073191906142f1565b5060608201518160030155608082015181600401908161075191906142f1565b5060a082015181600501908161076791906142f1565b5060c08201518160060160006101000a81548160ff0219169083151502179055509050507f1700582be850ff71f6341c0e9768c45b03576a787f186451b51af237c29eab5033856040516107bc9291906143c3565b60405180910390a150505050565b60066020528060005260406000206000915090508060000160009054906101000a900473ffffffffffffffffffffffffffffffffffffffff169080600101805461081390614114565b80601f016020809104026020016040519081016040528092919081815260200182805461083f90614114565b801561088c5780601f106108615761010080835404028352916020019161088c565b820191906000526020600020905b81548152906001019060200180831161086f57829003601f168201915b5050505050908060020180546108a190614114565b80601f01602080910402602001604051908101604052809291908181526020018280546108cd90614114565b801561091a5780601f106108ef5761010080835404028352916020019161091a565b820191906000526020600020905b8154815290600101906020018083116108fd57829003601f168201915b50505050509080600301549080600401805461093590614114565b80601f016020809104026020016040519081016040528092919081815260200182805461096190614114565b80156109ae5780601f10610983576101008083540402835291602001916109ae565b820191906000526020600020905b81548152906001019060200180831161099157829003601f168201915b5050505050908060050180546109c390614114565b80601f01602080910402602001604051908101604052809291908181526020018280546109ef90614114565b8015610a3c5780601f10610a1157610100808354040283529160200191610a3c565b820191906000526020600020905b815481529060010190602001808311610a1f57829003601f168201915b5050505050908060060160009054906101000a900460ff16905087565b60001515600660003373ffffffffffffffffffffffffffffffffffffffff1673ffffffffffffffffffffffffffffffffffffffff16815260200190815260200160002060060160009054906101000a900460ff16151514610aef576040517f08c379a0000000000000000000000000000000000000000000000000000000008152600401610ae690613f76565b60405180910390fd5b6000845111610b33576040517f08c379a0000000000000000000000000000000000000000000000000000000008152600401610b2a90613fe2565b60405180910390fd5b6000835111610b77576040517f08c379a0000000000000000000000000000000000000000000000000000000008152600401610b6e9061404e565b60405180910390fd5b60026000815480929190610b8a9061409d565b91905055506040518060e001604052803373ffffffffffffffffffffffffffffffffffffffff1681526020018581526020018481526020016000815260200183815260200182815260200160011515815250600660003373ffffffffffffffffffffffffffffffffffffffff1673ffffffffffffffffffffffffffffffffffffffff16815260200190815260200160002060008201518160000160006101000a81548173ffffffffffffffffffffffffffffffffffffffff021916908373ffffffffffffffffffffffffffffffffffffffff1602179055506020820151816001019081610c7791906142f1565b506040820151816002019081610c8d91906142f1565b50606082015181600301556080820151816004019081610cad91906142f1565b5060a0820151816005019081610cc391906142f1565b5060c08201518160060160006101000a81548160ff0219169083151502179055509050507f6c0e8aabac6898602e5264c9a24b2394d9895a70bd2f4c44c8ca0fcfcec6477f3385604051610d189291906143c3565b60405180910390a150505050565b60035481565b60025481565b600060149054906101000a900460ff1681565b610d4d61322c565b600560008373ffffffffffffffffffffffffffffffffffffffff1673ffffffffffffffffffffffffffffffffffffffff1681526020019081526020016000206040518060e00160405290816000820160009054906101000a900473ffffffffffffffffffffffffffffffffffffffff1673ffffffffffffffffffffffffffffffffffffffff1673ffffffffffffffffffffffffffffffffffffffff168152602001600182018054610dfd90614114565b80601f0160208091040260200160405190810160405280929190818152602001828054610e2990614114565b8015610e765780601f10610e4b57610100808354040283529160200191610e76565b820191906000526020600020905b815481529060010190602001808311610e5957829003601f168201915b50505050508152602001600282018054610e8f90614114565b80601f0160208091040260200160405190810160405280929190818152602001828054610ebb90614114565b8015610f085780601f10610edd57610100808354040283529160200191610f08565b820191906000526020600020905b815481529060010190602001808311610eeb57829003601f168201915b5050505050815260200160038201548152602001600482018054610f2b90614114565b80601f0160208091040260200160405190810160405280929190818152602001828054610f5790614114565b8015610fa45780601f10610f7957610100808354040283529160200191610fa4565b820191906000526020600020905b815481529060010190602001808311610f8757829003601f168201915b50505050508152602001600582018054610fbd90614114565b80601f0160208091040260200160405190810160405280929190818152602001828054610fe990614114565b80156110365780601f1061100b57610100808354040283529160200191611036565b820191906000526020600020905b81548152906001019060200180831161101957829003601f168201915b505050505081526020016006820160009054906101000a900460ff1615151515815250509050919050565b60056020528060005260406000206000915090508060000160009054906101000a900473ffffffffffffffffffffffffffffffffffffffff16908060010180546110aa90614114565b80601f01602080910402602001604051908101604052809291908181526020018280546110d690614114565b80156111235780601f106110f857610100808354040283529160200191611123565b820191906000526020600020905b81548152906001019060200180831161110657829003601f168201915b50505050509080600201805461113890614114565b80601f016020809104026020016040519081016040528092919081815260200182805461116490614114565b80156111b15780601f10611186576101008083540402835291602001916111b1565b820191906000526020600020905b81548152906001019060200180831161119457829003601f168201915b5050505050908060030154908060040180546111cc90614114565b80601f01602080910402602001604051908101604052809291908181526020018280546111f890614114565b80156112455780601f1061121a57610100808354040283529160200191611245565b820191906000526020600020905b81548152906001019060200180831161122857829003601f168201915b50505050509080600501805461125a90614114565b80601f016020809104026020016040519081016040528092919081815260200182805461128690614114565b80156112d35780601f106112a8576101008083540402835291602001916112d3565b820191906000526020600020905b8154815290600101906020018083116112b657829003601f168201915b5050505050908060060160009054906101000a900460ff16905087565b6112f8613281565b60008211801561131a5750600060149054906101000a900460ff1660ff168211155b611359576040517f08c379a00000000000000000000000000000000000000000000000000000000081526004016113509061443f565b60405180910390fd5b60046000838152602001908152602001600020604051806101000160405290816000820160009054906101000a900460ff1660ff1660ff1681526020016000820160019054906101000a900473ffffffffffffffffffffffffffffffffffffffff1673ffffffffffffffffffffffffffffffffffffffff1673ffffffffffffffffffffffffffffffffffffffff1681526020016001820180546113fb90614114565b80601f016020809104026020016040519081016040528092919081815260200182805461142790614114565b80156114745780601f1061144957610100808354040283529160200191611474565b820191906000526020600020905b81548152906001019060200180831161145757829003601f168201915b5050505050815260200160028201805461148d90614114565b80601f01602080910402602001604051908101604052809291908181526020018280546114b990614114565b80156115065780601f106114db57610100808354040283529160200191611506565b820191906000526020600020905b8154815290600101906020018083116114e957829003601f168201915b50505050508152602001600382015481526020016004820160009054906101000a900460ff16151515158152602001600582018054806020026020016040519081016040528092919081815260200182805480156115b957602002820191906000526020600020905b8160009054906101000a900473ffffffffffffffffffffffffffffffffffffffff1673ffffffffffffffffffffffffffffffffffffffff168152602001906001019080831161156f575b505050505081526020016006820160009054906101000a900473ffffffffffffffffffffffffffffffffffffffff1673ffffffffffffffffffffffffffffffffffffffff1673ffffffffffffffffffffffffffffffffffffffff16815250509050919050565b600060149054906101000a900460ff1660ff1681111580156116415750600081115b611680576040517f08c379a0000000000000000000000000000000000000000000000000000000008152600401611677906144ab565b60405180910390fd5b60006004600083815260200190815260200160002090506000600660003373ffffffffffffffffffffffffffffffffffffffff1673ffffffffffffffffffffffffffffffffffffffff16815260200190815260200160002090503373ffffffffffffffffffffffffffffffffffffffff168260000160019054906101000a900473ffffffffffffffffffffffffffffffffffffffff1673ffffffffffffffffffffffffffffffffffffffff161461176c576040517f08c379a00000000000000000000000000000000000000000000000000000000081526004016117639061453d565b60405180910390fd5b8160040160009054906101000a900460ff16156117be576040517f08c379a00000000000000000000000000000000000000000000000000000000081526004016117b5906145a9565b60405180910390fd5b8160030154341015611805576040517f08c379a00000000000000000000000000000000000000000000000000000000081526004016117fc90614615565b60405180910390fd5b348160030160008282546118199190614635565b9250508190555034600760003373ffffffffffffffffffffffffffffffffffffffff1673ffffffffffffffffffffffffffffffffffffffff168152602001908152602001600020600085815260200190815260200160002060008282546118809190614635565b925050819055507fe030e47e27825a2ad1b19e4cf2e70bfbfb3124af275c7727a82b114ba7b29a858333346040516118ba93929190614669565b60405180910390a1505050565b60015481565b338073ffffffffffffffffffffffffffffffffffffffff16600660003373ffffffffffffffffffffffffffffffffffffffff1673ffffffffffffffffffffffffffffffffffffffff16815260200190815260200160002060000160009054906101000a900473ffffffffffffffffffffffffffffffffffffffff1673ffffffffffffffffffffffffffffffffffffffff161461199e576040517f08c379a000000000000000000000000000000000000000000000000000000000815260040161199590614712565b60405180910390fd5b600060149054906101000a900460ff1660ff1683111580156119c05750600083115b6119ff576040517f08c379a00000000000000000000000000000000000000000000000000000000081526004016119f6906144ab565b60405180910390fd5b6000600460008581526020019081526020016000209050600073ffffffffffffffffffffffffffffffffffffffff168160000160019054906101000a900473ffffffffffffffffffffffffffffffffffffffff1673ffffffffffffffffffffffffffffffffffffffff1603611aa9576040517f08c379a0000000000000000000000000000000000000000000000000000000008152600401611aa09061477e565b60405180910390fd5b611ab381846131bf565b611af2576040517f08c379a0000000000000000000000000000000000000000000000000000000008152600401611ae990614810565b60405180910390fd5b60008160030154905060018260040160006101000a81548160ff02191690831515021790555060036000815480929190611b2b9061409d565b91905055507f4dbba472101e9f148a3a5ecbe793f0ee16a7efe4bf3f8cbfab5330e1642ef955858583604051611b6393929190614669565b60405180910390a15050505050565b338073ffffffffffffffffffffffffffffffffffffffff16600660003373ffffffffffffffffffffffffffffffffffffffff1673ffffffffffffffffffffffffffffffffffffffff16815260200190815260200160002060000160009054906101000a900473ffffffffffffffffffffffffffffffffffffffff1673ffffffffffffffffffffffffffffffffffffffff1614611c43576040517f08c379a0000000000000000000000000000000000000000000000000000000008152600401611c3a90614712565b60405180910390fd5b6000601481819054906101000a900460ff1680929190611c6290614830565b91906101000a81548160ff021916908360ff1602179055505060008060149054906101000a900460ff1690506040518061010001604052808260ff1681526020013373ffffffffffffffffffffffffffffffffffffffff168152602001868152602001858152602001848152602001600015158152602001600067ffffffffffffffff811115611cf557611cf4613422565b5b604051908082528060200260200182016040528015611d235781602001602082028036833780820191505090505b508152602001600073ffffffffffffffffffffffffffffffffffffffff16815250600460008360ff16815260200190815260200160002060008201518160000160006101000a81548160ff021916908360ff16021790555060208201518160000160016101000a81548173ffffffffffffffffffffffffffffffffffffffff021916908373ffffffffffffffffffffffffffffffffffffffff1602179055506040820151816001019081611dd791906142f1565b506060820151816002019081611ded91906142f1565b506080820151816003015560a08201518160040160006101000a81548160ff02191690831515021790555060c0820151816005019080519060200190611e349291906132f7565b5060e08201518160060160006101000a81548173ffffffffffffffffffffffffffffffffffffffff021916908373ffffffffffffffffffffffffffffffffffffffff1602179055509050507fb63f0fdfb200b05c8b95fb4dcf8f8abd30f0b6884d532792e705afab4f37380a8186604051611eb092919061488a565b60405180910390a15050505050565b611ec7613381565b600660008373ffffffffffffffffffffffffffffffffffffffff1673ffffffffffffffffffffffffffffffffffffffff1681526020019081526020016000206040518060e00160405290816000820160009054906101000a900473ffffffffffffffffffffffffffffffffffffffff1673ffffffffffffffffffffffffffffffffffffffff1673ffffffffffffffffffffffffffffffffffffffff168152602001600182018054611f7790614114565b80601f0160208091040260200160405190810160405280929190818152602001828054611fa390614114565b8015611ff05780601f10611fc557610100808354040283529160200191611ff0565b820191906000526020600020905b815481529060010190602001808311611fd357829003601f168201915b5050505050815260200160028201805461200990614114565b80601f016020809104026020016040519081016040528092919081815260200182805461203590614114565b80156120825780601f1061205757610100808354040283529160200191612082565b820191906000526020600020905b81548152906001019060200180831161206557829003601f168201915b50505050508152602001600382015481526020016004820180546120a590614114565b80601f01602080910402602001604051908101604052809291908181526020018280546120d190614114565b801561211e5780601f106120f35761010080835404028352916020019161211e565b820191906000526020600020905b81548152906001019060200180831161210157829003601f168201915b5050505050815260200160058201805461213790614114565b80601f016020809104026020016040519081016040528092919081815260200182805461216390614114565b80156121b05780601f10612185576101008083540402835291602001916121b0565b820191906000526020600020905b81548152906001019060200180831161219357829003601f168201915b505050505081526020016006820160009054906101000a900460ff1615151515815250509050919050565b60008054906101000a900473ffffffffffffffffffffffffffffffffffffffff1681565b338073ffffffffffffffffffffffffffffffffffffffff16600660003373ffffffffffffffffffffffffffffffffffffffff1673ffffffffffffffffffffffffffffffffffffffff16815260200190815260200160002060000160009054906101000a900473ffffffffffffffffffffffffffffffffffffffff1673ffffffffffffffffffffffffffffffffffffffff16146122d0576040517f08c379a00000000000000000000000000000000000000000000000000000000081526004016122c790614712565b60405180910390fd5b600060149054906101000a900460ff1660ff1683111580156122f25750600083115b612331576040517f08c379a0000000000000000000000000000000000000000000000000000000008152600401612328906144ab565b60405180910390fd5b6000600460008581526020019081526020016000209050600073ffffffffffffffffffffffffffffffffffffffff168160000160019054906101000a900473ffffffffffffffffffffffffffffffffffffffff1673ffffffffffffffffffffffffffffffffffffffff16036123db576040517f08c379a00000000000000000000000000000000000000000000000000000000081526004016123d29061477e565b60405180910390fd5b6123e581846131bf565b15612425576040517f08c379a000000000000000000000000000000000000000000000000000000000815260040161241c90614906565b60405180910390fd5b828160060160006101000a81548173ffffffffffffffffffffffffffffffffffffffff021916908373ffffffffffffffffffffffffffffffffffffffff16021790555050505050565b338073ffffffffffffffffffffffffffffffffffffffff16600560003373ffffffffffffffffffffffffffffffffffffffff1673ffffffffffffffffffffffffffffffffffffffff16815260200190815260200160002060000160009054906101000a900473ffffffffffffffffffffffffffffffffffffffff1673ffffffffffffffffffffffffffffffffffffffff161461253f576040517f08c379a000000000000000000000000000000000000000000000000000000000815260040161253690614998565b60405180910390fd5b6000600560003373ffffffffffffffffffffffffffffffffffffffff1673ffffffffffffffffffffffffffffffffffffffff168152602001908152602001600020905060008160030154116125c9576040517f08c379a00000000000000000000000000000000000000000000000000000000081526004016125c090614a04565b60405180910390fd5b6000816003015490506000826003018190555060003373ffffffffffffffffffffffffffffffffffffffff168260405161260290614a55565b60006040518083038185875af1925050503d806000811461263f576040519150601f19603f3d011682016040523d82523d6000602084013e612644565b606091505b5050905080612688576040517f08c379a000000000000000000000000000000000000000000000000000000000815260040161267f90614ab6565b60405180910390fd5b7f09ad672d4e7c4892da934d1051932ebe9ec4b6ec8c3f40d569176db3e93e5abe33836040516126b9929190614ad6565b60405180910390a150505050565b338073ffffffffffffffffffffffffffffffffffffffff16600660003373ffffffffffffffffffffffffffffffffffffffff1673ffffffffffffffffffffffffffffffffffffffff16815260200190815260200160002060000160009054906101000a900473ffffffffffffffffffffffffffffffffffffffff1673ffffffffffffffffffffffffffffffffffffffff1614612798576040517f08c379a000000000000000000000000000000000000000000000000000000000815260040161278f90614712565b60405180910390fd5b600060149054906101000a900460ff1660ff1683111580156127ba5750600083115b6127f9576040517f08c379a00000000000000000000000000000000000000000000000000000000081526004016127f0906144ab565b60405180910390fd5b60006004600085815260200190815260200160002090508060000160019054906101000a900473ffffffffffffffffffffffffffffffffffffffff1673ffffffffffffffffffffffffffffffffffffffff163373ffffffffffffffffffffffffffffffffffffffff16146128a2576040517f08c379a000000000000000000000000000000000000000000000000000000000815260040161289990614b71565b60405180910390fd5b60018160040160006101000a81548160ff02191690831515021790556128fd576040517f08c379a00000000000000000000000000000000000000000000000000000000081526004016128f490614c03565b60405180910390fd5b6000600760003373ffffffffffffffffffffffffffffffffffffffff1673ffffffffffffffffffffffffffffffffffffffff168152602001908152602001600020600086815260200190815260200160002054905060008111612995576040517f08c379a000000000000000000000000000000000000000000000000000000000815260040161298c90614c6f565b60405180910390fd5b81600301548110156129dc576040517f08c379a00000000000000000000000000000000000000000000000000000000081526004016129d390614cdb565b60405180910390fd5b6000600760003373ffffffffffffffffffffffffffffffffffffffff1673ffffffffffffffffffffffffffffffffffffffff1681526020019081526020016000206000878152602001908152602001600020819055506000600560008673ffffffffffffffffffffffffffffffffffffffff1673ffffffffffffffffffffffffffffffffffffffff168152602001908152602001600020905081816003016000828254612a899190614635565b925050819055507f6e3c6096795c8298a218b2cfb8bde42726ff7c9a3d27b4d3ba41ab7f74feb5fb868684604051612ac393929190614669565b60405180910390a1505050505050565b6060600060149054906101000a900460ff1660ff1667ffffffffffffffff811115612b0157612b00613422565b5b604051908082528060200260200182016040528015612b3a57816020015b612b27613281565b815260200190600190039081612b1f5790505b50905060005b600060149054906101000a900460ff1660ff16811015612e4a5760046000828152602001908152602001600020604051806101000160405290816000820160009054906101000a900460ff1660ff1660ff1681526020016000820160019054906101000a900473ffffffffffffffffffffffffffffffffffffffff1673ffffffffffffffffffffffffffffffffffffffff1673ffffffffffffffffffffffffffffffffffffffff168152602001600182018054612bfc90614114565b80601f0160208091040260200160405190810160405280929190818152602001828054612c2890614114565b8015612c755780601f10612c4a57610100808354040283529160200191612c75565b820191906000526020600020905b815481529060010190602001808311612c5857829003601f168201915b50505050508152602001600282018054612c8e90614114565b80601f0160208091040260200160405190810160405280929190818152602001828054612cba90614114565b8015612d075780601f10612cdc57610100808354040283529160200191612d07565b820191906000526020600020905b815481529060010190602001808311612cea57829003601f168201915b50505050508152602001600382015481526020016004820160009054906101000a900460ff1615151515815260200160058201805480602002602001604051908101604052809291908181526020018280548015612dba57602002820191906000526020600020905b8160009054906101000a900473ffffffffffffffffffffffffffffffffffffffff1673ffffffffffffffffffffffffffffffffffffffff1681526020019060010190808311612d70575b505050505081526020016006820160009054906101000a900473ffffffffffffffffffffffffffffffffffffffff1673ffffffffffffffffffffffffffffffffffffffff1673ffffffffffffffffffffffffffffffffffffffff1681525050828281518110612e2c57612e2b614cfb565b5b60200260200101819052508080612e429061409d565b915050612b40565b5090565b6000600760008473ffffffffffffffffffffffffffffffffffffffff1673ffffffffffffffffffffffffffffffffffffffff168152602001908152602001600020600083815260200190815260200160002054905092915050565b600060149054906101000a900460ff1660ff168111158015612ecb5750600081115b612f0a576040517f08c379a0000000000000000000000000000000000000000000000000000000008152600401612f01906144ab565b60405180910390fd5b6000600460008381526020019081526020016000209050600073ffffffffffffffffffffffffffffffffffffffff168160000160019054906101000a900473ffffffffffffffffffffffffffffffffffffffff1673ffffffffffffffffffffffffffffffffffffffff1603612fb4576040517f08c379a0000000000000000000000000000000000000000000000000000000008152600401612fab9061477e565b60405180910390fd5b600073ffffffffffffffffffffffffffffffffffffffff163373ffffffffffffffffffffffffffffffffffffffff1603613023576040517f08c379a000000000000000000000000000000000000000000000000000000000815260040161301a90614d76565b60405180910390fd5b60005b81600501805490508110156130f6573373ffffffffffffffffffffffffffffffffffffffff1682600501828154811061306257613061614cfb565b5b9060005260206000200160009054906101000a900473ffffffffffffffffffffffffffffffffffffffff1673ffffffffffffffffffffffffffffffffffffffff16036130e3576040517f08c379a00000000000000000000000000000000000000000000000000000000081526004016130da90614e08565b60405180910390fd5b80806130ee9061409d565b915050613026565b5080600501339080600181540180825580915050600190039060005260206000200160009091909190916101000a81548173ffffffffffffffffffffffffffffffffffffffff021916908373ffffffffffffffffffffffffffffffffffffffff1602179055507f2b443803772f6da2db17c7357119f932841870fdf0a3a5d8ca9d2e112bb13326828260000160019054906101000a900473ffffffffffffffffffffffffffffffffffffffff16336040516131b393929190614e28565b60405180910390a15050565b60008173ffffffffffffffffffffffffffffffffffffffff168360060160009054906101000a900473ffffffffffffffffffffffffffffffffffffffff1673ffffffffffffffffffffffffffffffffffffffff16036132215760019050613226565b600090505b92915050565b6040518060e00160405280600073ffffffffffffffffffffffffffffffffffffffff16815260200160608152602001606081526020016000815260200160608152602001606081526020016000151581525090565b604051806101000160405280600060ff168152602001600073ffffffffffffffffffffffffffffffffffffffff16815260200160608152602001606081526020016000815260200160001515815260200160608152602001600073ffffffffffffffffffffffffffffffffffffffff1681525090565b828054828255906000526020600020908101928215613370579160200282015b8281111561336f5782518260006101000a81548173ffffffffffffffffffffffffffffffffffffffff021916908373ffffffffffffffffffffffffffffffffffffffff16021790555091602001919060010190613317565b5b50905061337d91906133d6565b5090565b6040518060e00160405280600073ffffffffffffffffffffffffffffffffffffffff16815260200160608152602001606081526020016000815260200160608152602001606081526020016000151581525090565b5b808211156133ef5760008160009055506001016133d7565b5090565b6000604051905090565b600080fd5b600080fd5b600080fd5b600080fd5b6000601f19601f8301169050919050565b7f4e487b7100000000000000000000000000000000000000000000000000000000600052604160045260246000fd5b61345a82613411565b810181811067ffffffffffffffff8211171561347957613478613422565b5b80604052505050565b600061348c6133f3565b90506134988282613451565b919050565b600067ffffffffffffffff8211156134b8576134b7613422565b5b6134c182613411565b9050602081019050919050565b82818337600083830152505050565b60006134f06134eb8461349d565b613482565b90508281526020810184848401111561350c5761350b61340c565b5b6135178482856134ce565b509392505050565b600082601f83011261353457613533613407565b5b81356135448482602086016134dd565b91505092915050565b60008060008060808587031215613567576135666133fd565b5b600085013567ffffffffffffffff81111561358557613584613402565b5b6135918782880161351f565b945050602085013567ffffffffffffffff8111156135b2576135b1613402565b5b6135be8782880161351f565b935050604085013567ffffffffffffffff8111156135df576135de613402565b5b6135eb8782880161351f565b925050606085013567ffffffffffffffff81111561360c5761360b613402565b5b6136188782880161351f565b91505092959194509250565b600073ffffffffffffffffffffffffffffffffffffffff82169050919050565b600061364f82613624565b9050919050565b61365f81613644565b811461366a57600080fd5b50565b60008135905061367c81613656565b92915050565b600060208284031215613698576136976133fd565b5b60006136a68482850161366d565b91505092915050565b6136b881613644565b82525050565b600081519050919050565b600082825260208201905092915050565b60005b838110156136f85780820151818401526020810190506136dd565b60008484015250505050565b600061370f826136be565b61371981856136c9565b93506137298185602086016136da565b61373281613411565b840191505092915050565b6000819050919050565b6137508161373d565b82525050565b60008115159050919050565b61376b81613756565b82525050565b600060e082019050613786600083018a6136af565b81810360208301526137988189613704565b905081810360408301526137ac8188613704565b90506137bb6060830187613747565b81810360808301526137cd8186613704565b905081810360a08301526137e18185613704565b90506137f060c0830184613762565b98975050505050505050565b60006020820190506138116000830184613747565b92915050565b600060ff82169050919050565b61382d81613817565b82525050565b60006020820190506138486000830184613824565b92915050565b61385781613644565b82525050565b600082825260208201905092915050565b6000613879826136be565b613883818561385d565b93506138938185602086016136da565b61389c81613411565b840191505092915050565b6138b08161373d565b82525050565b6138bf81613756565b82525050565b600060e0830160008301516138dd600086018261384e565b50602083015184820360208601526138f5828261386e565b9150506040830151848203604086015261390f828261386e565b915050606083015161392460608601826138a7565b506080830151848203608086015261393c828261386e565b91505060a083015184820360a0860152613956828261386e565b91505060c083015161396b60c08601826138b6565b508091505092915050565b6000602082019050818103600083015261399081846138c5565b905092915050565b6139a18161373d565b81146139ac57600080fd5b50565b6000813590506139be81613998565b92915050565b6000602082840312156139da576139d96133fd565b5b60006139e8848285016139af565b91505092915050565b6139fa81613817565b82525050565b600081519050919050565b600082825260208201905092915050565b6000819050602082019050919050565b6000613a38838361384e565b60208301905092915050565b6000602082019050919050565b6000613a5c82613a00565b613a668185613a0b565b9350613a7183613a1c565b8060005b83811015613aa2578151613a898882613a2c565b9750613a9483613a44565b925050600181019050613a75565b5085935050505092915050565b600061010083016000830151613ac860008601826139f1565b506020830151613adb602086018261384e565b5060408301518482036040860152613af3828261386e565b91505060608301518482036060860152613b0d828261386e565b9150506080830151613b2260808601826138a7565b5060a0830151613b3560a08601826138b6565b5060c083015184820360c0860152613b4d8282613a51565b91505060e0830151613b6260e086018261384e565b508091505092915050565b60006020820190508181036000830152613b878184613aaf565b905092915050565b60008060408385031215613ba657613ba56133fd565b5b6000613bb4858286016139af565b9250506020613bc58582860161366d565b9150509250929050565b600080600060608486031215613be857613be76133fd565b5b600084013567ffffffffffffffff811115613c0657613c05613402565b5b613c128682870161351f565b935050602084013567ffffffffffffffff811115613c3357613c32613402565b5b613c3f8682870161351f565b9250506040613c50868287016139af565b9150509250925092565b600060e083016000830151613c72600086018261384e565b5060208301518482036020860152613c8a828261386e565b91505060408301518482036040860152613ca4828261386e565b9150506060830151613cb960608601826138a7565b5060808301518482036080860152613cd1828261386e565b91505060a083015184820360a0860152613ceb828261386e565b91505060c0830151613d0060c08601826138b6565b508091505092915050565b60006020820190508181036000830152613d258184613c5a565b905092915050565b6000602082019050613d4260008301846136af565b92915050565b600081519050919050565b600082825260208201905092915050565b6000819050602082019050919050565b600061010083016000830151613d8d60008601826139f1565b506020830151613da0602086018261384e565b5060408301518482036040860152613db8828261386e565b91505060608301518482036060860152613dd2828261386e565b9150506080830151613de760808601826138a7565b5060a0830151613dfa60a08601826138b6565b5060c083015184820360c0860152613e128282613a51565b91505060e0830151613e2760e086018261384e565b508091505092915050565b6000613e3e8383613d74565b905092915050565b6000602082019050919050565b6000613e5e82613d48565b613e688185613d53565b935083602082028501613e7a85613d64565b8060005b85811015613eb65784840389528151613e978582613e32565b9450613ea283613e46565b925060208a01995050600181019050613e7e565b50829750879550505050505092915050565b60006020820190508181036000830152613ee28184613e53565b905092915050565b60008060408385031215613f0157613f006133fd565b5b6000613f0f8582860161366d565b9250506020613f20858286016139af565b9150509250929050565b7f616c726561647920726567697374657265640000000000000000000000000000600082015250565b6000613f606012836136c9565b9150613f6b82613f2a565b602082019050919050565b60006020820190508181036000830152613f8f81613f53565b9050919050565b7f4e616d652063616e6e6f7420626520656d7074792e0000000000000000000000600082015250565b6000613fcc6015836136c9565b9150613fd782613f96565b602082019050919050565b60006020820190508181036000830152613ffb81613fbf565b9050919050565b7f536b696c6c732063616e6e6f7420626520656d7074792e000000000000000000600082015250565b60006140386017836136c9565b915061404382614002565b602082019050919050565b600060208201905081810360008301526140678161402b565b9050919050565b7f4e487b7100000000000000000000000000000000000000000000000000000000600052601160045260246000fd5b60006140a88261373d565b91507fffffffffffffffffffffffffffffffffffffffffffffffffffffffffffffffff82036140da576140d961406e565b5b600182019050919050565b7f4e487b7100000000000000000000000000000000000000000000000000000000600052602260045260246000fd5b6000600282049050600182168061412c57607f821691505b60208210810361413f5761413e6140e5565b5b50919050565b60008190508160005260206000209050919050565b60006020601f8301049050919050565b600082821b905092915050565b6000600883026141a77fffffffffffffffffffffffffffffffffffffffffffffffffffffffffffffffff8261416a565b6141b1868361416a565b95508019841693508086168417925050509392505050565b6000819050919050565b60006141ee6141e96141e48461373d565b6141c9565b61373d565b9050919050565b6000819050919050565b614208836141d3565b61421c614214826141f5565b848454614177565b825550505050565b600090565b614231614224565b61423c8184846141ff565b505050565b5b8181101561426057614255600082614229565b600181019050614242565b5050565b601f8211156142a55761427681614145565b61427f8461415a565b8101602085101561428e578190505b6142a261429a8561415a565b830182614241565b50505b505050565b600082821c905092915050565b60006142c8600019846008026142aa565b1980831691505092915050565b60006142e183836142b7565b9150826002028217905092915050565b6142fa826136be565b67ffffffffffffffff81111561431357614312613422565b5b61431d8254614114565b614328828285614264565b600060209050601f83116001811461435b5760008415614349578287015190505b61435385826142d5565b8655506143bb565b601f19841661436986614145565b60005b828110156143915784890151825560018201915060208501945060208101905061436c565b868310156143ae57848901516143aa601f8916826142b7565b8355505b6001600288020188555050505b505050505050565b60006040820190506143d860008301856136af565b81810360208301526143ea8184613704565b90509392505050565b7f496e76616c6964206a6f62204944000000000000000000000000000000000000600082015250565b6000614429600e836136c9565b9150614434826143f3565b602082019050919050565b600060208201905081810360008301526144588161441c565b9050919050565b7f4a6f6220646f6573206e6f742065786973742e00000000000000000000000000600082015250565b60006144956013836136c9565b91506144a08261445f565b602082019050919050565b600060208201905081810360008301526144c481614488565b9050919050565b7f4f6e6c792074686520656d706c6f7965722063616e206465706f73697420667560008201527f6e64732e00000000000000000000000000000000000000000000000000000000602082015250565b60006145276024836136c9565b9150614532826144cb565b604082019050919050565b600060208201905081810360008301526145568161451a565b9050919050565b7f4a6f6220697320616c726561647920636f6d706c657465642e00000000000000600082015250565b60006145936019836136c9565b915061459e8261455d565b602082019050919050565b600060208201905081810360008301526145c281614586565b9050919050565b7f496e73756666696369656e7420616d6f756e7400000000000000000000000000600082015250565b60006145ff6013836136c9565b915061460a826145c9565b602082019050919050565b6000602082019050818103600083015261462e816145f2565b9050919050565b60006146408261373d565b915061464b8361373d565b92508282019050808211156146635761466261406e565b5b92915050565b600060608201905061467e6000830186613747565b61468b60208301856136af565b6146986040830184613747565b949350505050565b7f4f6e6c7920656d706c6f7965722063616e2063616c6c20746869732066756e6360008201527f74696f6e00000000000000000000000000000000000000000000000000000000602082015250565b60006146fc6024836136c9565b9150614707826146a0565b604082019050919050565b6000602082019050818103600083015261472b816146ef565b9050919050565b7f4a6f62206e6f7420666f756e642e000000000000000000000000000000000000600082015250565b6000614768600e836136c9565b915061477382614732565b602082019050919050565b600060208201905081810360008301526147978161475b565b9050919050565b7f467265656c616e636572206973206e6f7420686972656420666f72207468697360008201527f206a6f622e000000000000000000000000000000000000000000000000000000602082015250565b60006147fa6025836136c9565b91506148058261479e565b604082019050919050565b60006020820190508181036000830152614829816147ed565b9050919050565b600061483b82613817565b915060ff820361484e5761484d61406e565b5b600182019050919050565b600061487461486f61486a84613817565b6141c9565b61373d565b9050919050565b61488481614859565b82525050565b600060408201905061489f600083018561487b565b81810360208301526148b18184613704565b90509392505050565b7f467265656c616e63657220697320616c72656164792068697265642e00000000600082015250565b60006148f0601c836136c9565b91506148fb826148ba565b602082019050919050565b6000602082019050818103600083015261491f816148e3565b9050919050565b7f4f6e6c7920667265656c616e6365722063616e2063616c6c207468697320667560008201527f6e6374696f6e0000000000000000000000000000000000000000000000000000602082015250565b60006149826026836136c9565b915061498d82614926565b604082019050919050565b600060208201905081810360008301526149b181614975565b9050919050565b7f4e6f2062616c616e636520746f2077697468647261772e000000000000000000600082015250565b60006149ee6017836136c9565b91506149f9826149b8565b602082019050919050565b60006020820190508181036000830152614a1d816149e1565b9050919050565b600081905092915050565b50565b6000614a3f600083614a24565b9150614a4a82614a2f565b600082019050919050565b6000614a6082614a32565b9150819050919050565b7f5472616e73666572206661696c65642e00000000000000000000000000000000600082015250565b6000614aa06010836136c9565b9150614aab82614a6a565b602082019050919050565b60006020820190508181036000830152614acf81614a93565b9050919050565b6000604082019050614aeb60008301856136af565b614af86020830184613747565b9392505050565b7f4f6e6c792074686520656d706c6f7965722063616e2072656c6561736520657360008201527f63726f772e000000000000000000000000000000000000000000000000000000602082015250565b6000614b5b6025836136c9565b9150614b6682614aff565b604082019050919050565b60006020820190508181036000830152614b8a81614b4e565b9050919050565b7f4a6f62206973206e6f7420636f6d706c6574656420627920667265656c616e6360008201527f6572000000000000000000000000000000000000000000000000000000000000602082015250565b6000614bed6022836136c9565b9150614bf882614b91565b604082019050919050565b60006020820190508181036000830152614c1c81614be0565b9050919050565b7f4e6f2066756e647320696e20657363726f772e00000000000000000000000000600082015250565b6000614c596013836136c9565b9150614c6482614c23565b602082019050919050565b60006020820190508181036000830152614c8881614c4c565b9050919050565b7f696e73756666696369656e742066756e64730000000000000000000000000000600082015250565b6000614cc56012836136c9565b9150614cd082614c8f565b602082019050919050565b60006020820190508181036000830152614cf481614cb8565b9050919050565b7f4e487b7100000000000000000000000000000000000000000000000000000000600052603260045260246000fd5b7f496e76616c6964206170706c6963616e742e0000000000000000000000000000600082015250565b6000614d606012836136c9565b9150614d6b82614d2a565b602082019050919050565b60006020820190508181036000830152614d8f81614d53565b9050919050565b7f596f75206861766520616c7265616479206170706c69656420666f722074686960008201527f73206a6f622e0000000000000000000000000000000000000000000000000000602082015250565b6000614df26026836136c9565b9150614dfd82614d96565b604082019050919050565b60006020820190508181036000830152614e2181614de5565b9050919050565b6000606082019050614e3d6000830186613747565b614e4a60208301856136af565b614e5760408301846136af565b94935050505056fea2646970667358221220f0bda0fbd17720e8bfc304d05b5c45bdb4d3a31ee2ad2ec1166e19256b66388b64736f6c63430008130033",
  "devdoc": {
    "kind": "dev",
    "methods": {
      "allJobs()": {
        "returns": {
          "props": "props"
        }
      },
      "applyForJob(uint256)": {
        "params": {
          "jobId": ", job id"
        }
      },
      "completeJob(uint256,address)": {
        "params": {
          "jobId": ", @param freelancerAddress"
        }
      },
      "createJob(string,string,uint256)": {
        "params": {
          "_title": ", @param _description, @param _budget"
        }
      },
      "depositFunds(uint256)": {
        "params": {
          "jobId": ", job id"
        }
      },
      "getEmployerByAddress(address)": {
        "params": {
          "_employer": ", address"
        },
        "returns": {
          "props": "props"
        }
      },
      "getEmployerEscrow(address,uint256)": {
        "params": {
          "_employer": ", @param _job_id"
        },
        "returns": {
          "_0": "uint"
        }
      },
      "getFreelancerByAddress(address)": {
        "params": {
          "_freelancer": ", address"
        },
        "returns": {
          "props": "props"
        }
      },
      "getJobByID(uint256)": {
        "params": {
          "jobId": ", jobId"
        },
        "returns": {
          "props": "props"
        }
      },
      "hireFreelancer(uint256,address)": {
        "params": {
          "jobId": ", @param freelancerAddress"
        }
      },
      "registerEmployer(string,string,string,string)": {
        "params": {
          "_name": ", @param _industry"
        }
      },
      "registerFreelancer(string,string,string,string)": {
        "params": {
          "_name": ", @param _skills"
        }
      },
      "releaseEscrow(uint256,address)": {
        "params": {
          "jobId": ", @param freelancerAddress"
        }
      }
    },
    "version": 1
  },
  "userdoc": {
    "kind": "user",
    "methods": {
      "allJobs()": {
        "notice": "retrieves all jobs"
      },
      "applyForJob(uint256)": {
        "notice": "job application"
      },
      "completeJob(uint256,address)": {
        "notice": "process job completion"
      },
      "createJob(string,string,uint256)": {
        "notice": "job creation and increment job count,"
      },
      "depositFunds(uint256)": {
        "notice": "process employer funds deposit for a specific job"
      },
      "getEmployerByAddress(address)": {
        "notice": "retrieves employer by address"
      },
      "getEmployerEscrow(address,uint256)": {
        "notice": "retrieves employer escrow balance"
      },
      "getFreelancerByAddress(address)": {
        "notice": "retrieves freelancer by address"
      },
      "getJobByID(uint256)": {
        "notice": "retrieves job by ID"
      },
      "hireFreelancer(uint256,address)": {
        "notice": "hiring freelancer and check if freelancer is not already hired for the job"
      },
      "registerEmployer(string,string,string,string)": {
        "notice": "process employer registration"
      },
      "registerFreelancer(string,string,string,string)": {
        "notice": "process freelancer registration"
      },
      "releaseEscrow(uint256,address)": {
        "notice": "release escrow fund after successful completion of the job"
      },
      "withdrawEarnings()": {
        "notice": "process funds withdrawal to the freelancer after successful completion of a job"
      }
    },
    "version": 1
  },
  "storageLayout": {
    "storage": [
      {
        "astId": 3,
        "contract": "contracts/Freelancer.sol:Dfreelancer",
        "label": "owner",
        "offset": 0,
        "slot": "0",
        "type": "t_address"
      },
      {
        "astId": 5,
        "contract": "contracts/Freelancer.sol:Dfreelancer",
        "label": "totalJobs",
        "offset": 20,
        "slot": "0",
        "type": "t_uint8"
      },
      {
        "astId": 7,
        "contract": "contracts/Freelancer.sol:Dfreelancer",
        "label": "totalFreelancers",
        "offset": 0,
        "slot": "1",
        "type": "t_uint256"
      },
      {
        "astId": 9,
        "contract": "contracts/Freelancer.sol:Dfreelancer",
        "label": "totalEmployers",
        "offset": 0,
        "slot": "2",
        "type": "t_uint256"
      },
      {
        "astId": 11,
        "contract": "contracts/Freelancer.sol:Dfreelancer",
        "label": "totalCompletedJobs",
        "offset": 0,
        "slot": "3",
        "type": "t_uint256"
      },
      {
        "astId": 64,
        "contract": "contracts/Freelancer.sol:Dfreelancer",
        "label": "jobs",
        "offset": 0,
        "slot": "4",
        "type": "t_mapping(t_uint256,t_struct(Job)29_storage)"
      },
      {
        "astId": 69,
        "contract": "contracts/Freelancer.sol:Dfreelancer",
        "label": "freelancers",
        "offset": 0,
        "slot": "5",
        "type": "t_mapping(t_address,t_struct(Freelancer)44_storage)"
      },
      {
        "astId": 74,
        "contract": "contracts/Freelancer.sol:Dfreelancer",
        "label": "employers",
        "offset": 0,
        "slot": "6",
        "type": "t_mapping(t_address,t_struct(Employer)59_storage)"
      },
      {
        "astId": 80,
        "contract": "contracts/Freelancer.sol:Dfreelancer",
        "label": "escrowFunds",
        "offset": 0,
        "slot": "7",
        "type": "t_mapping(t_address,t_mapping(t_uint256,t_uint256))"
      }
    ],
    "types": {
      "t_address": {
        "encoding": "inplace",
        "label": "address",
        "numberOfBytes": "20"
      },
      "t_array(t_address)dyn_storage": {
        "base": "t_address",
        "encoding": "dynamic_array",
        "label": "address[]",
        "numberOfBytes": "32"
      },
      "t_bool": {
        "encoding": "inplace",
        "label": "bool",
        "numberOfBytes": "1"
      },
      "t_mapping(t_address,t_mapping(t_uint256,t_uint256))": {
        "encoding": "mapping",
        "key": "t_address",
        "label": "mapping(address => mapping(uint256 => uint256))",
        "numberOfBytes": "32",
        "value": "t_mapping(t_uint256,t_uint256)"
      },
      "t_mapping(t_address,t_struct(Employer)59_storage)": {
        "encoding": "mapping",
        "key": "t_address",
        "label": "mapping(address => struct Dfreelancer.Employer)",
        "numberOfBytes": "32",
        "value": "t_struct(Employer)59_storage"
      },
      "t_mapping(t_address,t_struct(Freelancer)44_storage)": {
        "encoding": "mapping",
        "key": "t_address",
        "label": "mapping(address => struct Dfreelancer.Freelancer)",
        "numberOfBytes": "32",
        "value": "t_struct(Freelancer)44_storage"
      },
      "t_mapping(t_uint256,t_struct(Job)29_storage)": {
        "encoding": "mapping",
        "key": "t_uint256",
        "label": "mapping(uint256 => struct Dfreelancer.Job)",
        "numberOfBytes": "32",
        "value": "t_struct(Job)29_storage"
      },
      "t_mapping(t_uint256,t_uint256)": {
        "encoding": "mapping",
        "key": "t_uint256",
        "label": "mapping(uint256 => uint256)",
        "numberOfBytes": "32",
        "value": "t_uint256"
      },
      "t_string_storage": {
        "encoding": "bytes",
        "label": "string",
        "numberOfBytes": "32"
      },
      "t_struct(Employer)59_storage": {
        "encoding": "inplace",
        "label": "struct Dfreelancer.Employer",
        "members": [
          {
            "astId": 46,
            "contract": "contracts/Freelancer.sol:Dfreelancer",
            "label": "employerAddress",
            "offset": 0,
            "slot": "0",
            "type": "t_address"
          },
          {
            "astId": 48,
            "contract": "contracts/Freelancer.sol:Dfreelancer",
            "label": "name",
            "offset": 0,
            "slot": "1",
            "type": "t_string_storage"
          },
          {
            "astId": 50,
            "contract": "contracts/Freelancer.sol:Dfreelancer",
            "label": "industry",
            "offset": 0,
            "slot": "2",
            "type": "t_string_storage"
          },
          {
            "astId": 52,
            "contract": "contracts/Freelancer.sol:Dfreelancer",
            "label": "balance",
            "offset": 0,
            "slot": "3",
            "type": "t_uint256"
          },
          {
            "astId": 54,
            "contract": "contracts/Freelancer.sol:Dfreelancer",
            "label": "country",
            "offset": 0,
            "slot": "4",
            "type": "t_string_storage"
          },
          {
            "astId": 56,
            "contract": "contracts/Freelancer.sol:Dfreelancer",
            "label": "image",
            "offset": 0,
            "slot": "5",
            "type": "t_string_storage"
          },
          {
            "astId": 58,
            "contract": "contracts/Freelancer.sol:Dfreelancer",
            "label": "registered",
            "offset": 0,
            "slot": "6",
            "type": "t_bool"
          }
        ],
        "numberOfBytes": "224"
      },
      "t_struct(Freelancer)44_storage": {
        "encoding": "inplace",
        "label": "struct Dfreelancer.Freelancer",
        "members": [
          {
            "astId": 31,
            "contract": "contracts/Freelancer.sol:Dfreelancer",
            "label": "freelancerAddress",
            "offset": 0,
            "slot": "0",
            "type": "t_address"
          },
          {
            "astId": 33,
            "contract": "contracts/Freelancer.sol:Dfreelancer",
            "label": "name",
            "offset": 0,
            "slot": "1",
            "type": "t_string_storage"
          },
          {
            "astId": 35,
            "contract": "contracts/Freelancer.sol:Dfreelancer",
            "label": "skills",
            "offset": 0,
            "slot": "2",
            "type": "t_string_storage"
          },
          {
            "astId": 37,
            "contract": "contracts/Freelancer.sol:Dfreelancer",
            "label": "balance",
            "offset": 0,
            "slot": "3",
            "type": "t_uint256"
          },
          {
            "astId": 39,
            "contract": "contracts/Freelancer.sol:Dfreelancer",
            "label": "country",
            "offset": 0,
            "slot": "4",
            "type": "t_string_storage"
          },
          {
            "astId": 41,
            "contract": "contracts/Freelancer.sol:Dfreelancer",
            "label": "image",
            "offset": 0,
            "slot": "5",
            "type": "t_string_storage"
          },
          {
            "astId": 43,
            "contract": "contracts/Freelancer.sol:Dfreelancer",
            "label": "registered",
            "offset": 0,
            "slot": "6",
            "type": "t_bool"
          }
        ],
        "numberOfBytes": "224"
      },
      "t_struct(Job)29_storage": {
        "encoding": "inplace",
        "label": "struct Dfreelancer.Job",
        "members": [
          {
            "astId": 13,
            "contract": "contracts/Freelancer.sol:Dfreelancer",
            "label": "id",
            "offset": 0,
            "slot": "0",
            "type": "t_uint8"
          },
          {
            "astId": 15,
            "contract": "contracts/Freelancer.sol:Dfreelancer",
            "label": "employer",
            "offset": 1,
            "slot": "0",
            "type": "t_address"
          },
          {
            "astId": 17,
            "contract": "contracts/Freelancer.sol:Dfreelancer",
            "label": "title",
            "offset": 0,
            "slot": "1",
            "type": "t_string_storage"
          },
          {
            "astId": 19,
            "contract": "contracts/Freelancer.sol:Dfreelancer",
            "label": "description",
            "offset": 0,
            "slot": "2",
            "type": "t_string_storage"
          },
          {
            "astId": 21,
            "contract": "contracts/Freelancer.sol:Dfreelancer",
            "label": "budget",
            "offset": 0,
            "slot": "3",
            "type": "t_uint256"
          },
          {
            "astId": 23,
            "contract": "contracts/Freelancer.sol:Dfreelancer",
            "label": "completed",
            "offset": 0,
            "slot": "4",
            "type": "t_bool"
          },
          {
            "astId": 26,
            "contract": "contracts/Freelancer.sol:Dfreelancer",
            "label": "applicants",
            "offset": 0,
            "slot": "5",
            "type": "t_array(t_address)dyn_storage"
          },
          {
            "astId": 28,
            "contract": "contracts/Freelancer.sol:Dfreelancer",
            "label": "hiredFreelancer",
            "offset": 0,
            "slot": "6",
            "type": "t_address"
          }
        ],
        "numberOfBytes": "224"
      },
      "t_uint256": {
        "encoding": "inplace",
        "label": "uint256",
        "numberOfBytes": "32"
      },
      "t_uint8": {
        "encoding": "inplace",
        "label": "uint8",
        "numberOfBytes": "1"
      }
    }
  }
}