{
  "address": "0x5FbDB2315678afecb367f032d93F642f64180aa3",
  "abi": [
    {
      "anonymous": false,
      "inputs": [
        {
          "indexed": false,
          "internalType": "uint256",
          "name": "jobId",
          "type": "uint256"
        },
        {
          "indexed": false,
          "internalType": "address",
          "name": "employerAddress",
          "type": "address"
        },
        {
          "indexed": false,
          "internalType": "address",
          "name": "freelancerAddress",
          "type": "address"
        }
      ],
      "name": "AppliedForJob",
      "type": "event"
    },
    {
      "anonymous": false,
      "inputs": [
        {
          "indexed": false,
          "internalType": "address",
          "name": "EmployerAddress",
          "type": "address"
        },
        {
          "indexed": false,
          "internalType": "string",
          "name": "name",
          "type": "string"
        }
      ],
      "name": "EmployerRegistered",
      "type": "event"
    },
    {
      "anonymous": false,
      "inputs": [
        {
          "indexed": false,
          "internalType": "address",
          "name": "freelancerAddress",
          "type": "address"
        },
        {
          "indexed": false,
          "internalType": "string[]",
          "name": "name",
          "type": "string[]"
        },
        {
          "indexed": false,
          "internalType": "uint256",
          "name": "amount",
          "type": "uint256"
        }
      ],
      "name": "FreelancerRegistered",
      "type": "event"
    },
    {
      "anonymous": false,
      "inputs": [
        {
          "indexed": false,
          "internalType": "uint256",
          "name": "jobId",
          "type": "uint256"
        },
        {
          "indexed": false,
          "internalType": "address",
          "name": "sender",
          "type": "address"
        },
        {
          "indexed": false,
          "internalType": "uint256",
          "name": "amount",
          "type": "uint256"
        }
      ],
      "name": "FundsDeposited",
      "type": "event"
    },
    {
      "anonymous": false,
      "inputs": [
        {
          "indexed": false,
          "internalType": "uint256",
          "name": "jobId",
          "type": "uint256"
        },
        {
          "indexed": false,
          "internalType": "address",
          "name": "freelancerAddress",
          "type": "address"
        },
        {
          "indexed": false,
          "internalType": "uint256",
          "name": "amount",
          "type": "uint256"
        }
      ],
      "name": "FundsReleased",
      "type": "event"
    },
    {
      "anonymous": false,
      "inputs": [
        {
          "indexed": false,
          "internalType": "uint256",
          "name": "jobId",
          "type": "uint256"
        },
        {
          "indexed": false,
          "internalType": "address",
          "name": "freelancerAddress",
          "type": "address"
        },
        {
          "indexed": false,
          "internalType": "uint256",
          "name": "payment",
          "type": "uint256"
        }
      ],
      "name": "JobCompleted",
      "type": "event"
    },
    {
      "anonymous": false,
      "inputs": [
        {
          "indexed": false,
          "internalType": "uint256",
          "name": "jobId",
          "type": "uint256"
        },
        {
          "indexed": false,
          "internalType": "string",
          "name": "title",
          "type": "string"
        }
      ],
      "name": "JobCreated",
      "type": "event"
    },
    {
      "anonymous": false,
      "inputs": [
        {
          "indexed": false,
          "internalType": "address",
          "name": "freelancer",
          "type": "address"
        },
        {
          "indexed": false,
          "internalType": "uint256",
          "name": "amount",
          "type": "uint256"
        }
      ],
      "name": "WithdrawFund",
      "type": "event"
    },
    {
      "inputs": [
        {
          "internalType": "uint256",
          "name": "",
          "type": "uint256"
        }
      ],
      "name": "allFreelancerAddresses",
      "outputs": [
        {
          "internalType": "address",
          "name": "",
          "type": "address"
        }
      ],
      "stateMutability": "view",
      "type": "function"
    },
    {
      "inputs": [],
      "name": "allJobs",
      "outputs": [
        {
          "components": [
            {
              "internalType": "uint8",
              "name": "id",
              "type": "uint8"
            },
            {
              "internalType": "address",
              "name": "employer",
              "type": "address"
            },
            {
              "internalType": "string",
              "name": "title",
              "type": "string"
            },
            {
              "internalType": "string",
              "name": "description",
              "type": "string"
            },
            {
              "internalType": "uint256",
              "name": "budget",
              "type": "uint256"
            },
            {
              "internalType": "bool",
              "name": "completed",
              "type": "bool"
            },
            {
              "internalType": "address[]",
              "name": "applicants",
              "type": "address[]"
            },
            {
              "internalType": "address",
              "name": "hiredFreelancer",
              "type": "address"
            }
          ],
          "internalType": "struct Djob.Job[]",
          "name": "props",
          "type": "tuple[]"
        }
      ],
      "stateMutability": "view",
      "type": "function"
    },
    {
      "inputs": [
        {
          "internalType": "uint256",
          "name": "jobId",
          "type": "uint256"
        }
      ],
      "name": "applyForJob",
      "outputs": [],
      "stateMutability": "nonpayable",
      "type": "function"
    },
    {
      "inputs": [
        {
          "internalType": "uint256",
          "name": "jobId",
          "type": "uint256"
        },
        {
          "internalType": "address",
          "name": "freelancerAddress",
          "type": "address"
        }
      ],
      "name": "completeJob",
      "outputs": [],
      "stateMutability": "nonpayable",
      "type": "function"
    },
    {
      "inputs": [
        {
          "internalType": "string",
          "name": "_title",
          "type": "string"
        },
        {
          "internalType": "string",
          "name": "_description",
          "type": "string"
        },
        {
          "internalType": "uint256",
          "name": "_budget",
          "type": "uint256"
        }
      ],
      "name": "createJob",
      "outputs": [],
      "stateMutability": "nonpayable",
      "type": "function"
    },
    {
      "inputs": [
        {
          "internalType": "uint256",
          "name": "jobId",
          "type": "uint256"
        }
      ],
      "name": "depositFunds",
      "outputs": [],
      "stateMutability": "payable",
      "type": "function"
    },
    {
      "inputs": [
        {
          "internalType": "address",
          "name": "",
          "type": "address"
        }
      ],
      "name": "employers",
      "outputs": [
        {
          "internalType": "address",
          "name": "employerAddress",
          "type": "address"
        },
        {
          "internalType": "string",
          "name": "name",
          "type": "string"
        },
        {
          "internalType": "string",
          "name": "industry",
          "type": "string"
        },
        {
          "internalType": "uint256",
          "name": "balance",
          "type": "uint256"
        },
        {
          "internalType": "string",
          "name": "country",
          "type": "string"
        },
        {
          "internalType": "string",
          "name": "image",
          "type": "string"
        },
        {
          "internalType": "bool",
          "name": "registered",
          "type": "bool"
        },
        {
          "internalType": "uint256",
          "name": "registration_date",
          "type": "uint256"
        }
      ],
      "stateMutability": "view",
      "type": "function"
    },
    {
      "inputs": [
        {
          "internalType": "address",
          "name": "",
          "type": "address"
        }
      ],
      "name": "freelancers",
      "outputs": [
        {
          "internalType": "address",
          "name": "freelancerAddress",
          "type": "address"
        },
        {
          "internalType": "string",
          "name": "name",
          "type": "string"
        },
        {
          "internalType": "string",
          "name": "skills",
          "type": "string"
        },
        {
          "internalType": "uint256",
          "name": "balance",
          "type": "uint256"
        },
        {
          "internalType": "string",
          "name": "country",
          "type": "string"
        },
        {
          "internalType": "string",
          "name": "gigTitle",
          "type": "string"
        },
        {
          "internalType": "string",
          "name": "gitDescription",
          "type": "string"
        },
        {
          "internalType": "uint256",
          "name": "jobsCompleted",
          "type": "uint256"
        },
        {
          "internalType": "bool",
          "name": "registered",
          "type": "bool"
        },
        {
          "internalType": "uint256",
          "name": "registration_date",
          "type": "uint256"
        },
        {
          "internalType": "uint256",
          "name": "starting_price",
          "type": "uint256"
        }
      ],
      "stateMutability": "view",
      "type": "function"
    },
    {
      "inputs": [],
      "name": "getAllFreelancers",
      "outputs": [
        {
          "components": [
            {
              "internalType": "address",
              "name": "freelancerAddress",
              "type": "address"
            },
            {
              "internalType": "string",
              "name": "name",
              "type": "string"
            },
            {
              "internalType": "string",
              "name": "skills",
              "type": "string"
            },
            {
              "internalType": "uint256",
              "name": "balance",
              "type": "uint256"
            },
            {
              "internalType": "string",
              "name": "country",
              "type": "string"
            },
            {
              "internalType": "string",
              "name": "gigTitle",
              "type": "string"
            },
            {
              "internalType": "string",
              "name": "gitDescription",
              "type": "string"
            },
            {
              "internalType": "string[]",
              "name": "images",
              "type": "string[]"
            },
            {
              "internalType": "uint256",
              "name": "jobsCompleted",
              "type": "uint256"
            },
            {
              "internalType": "bool",
              "name": "registered",
              "type": "bool"
            },
            {
              "internalType": "uint256",
              "name": "registration_date",
              "type": "uint256"
            },
            {
              "internalType": "uint256",
              "name": "starting_price",
              "type": "uint256"
            }
          ],
          "internalType": "struct Djob.Freelancer[]",
          "name": "",
          "type": "tuple[]"
        }
      ],
      "stateMutability": "view",
      "type": "function"
    },
    {
      "inputs": [
        {
          "internalType": "address",
          "name": "_employer",
          "type": "address"
        }
      ],
      "name": "getEmployerByAddress",
      "outputs": [
        {
          "components": [
            {
              "internalType": "address",
              "name": "employerAddress",
              "type": "address"
            },
            {
              "internalType": "string",
              "name": "name",
              "type": "string"
            },
            {
              "internalType": "string",
              "name": "industry",
              "type": "string"
            },
            {
              "internalType": "uint256",
              "name": "balance",
              "type": "uint256"
            },
            {
              "internalType": "string",
              "name": "country",
              "type": "string"
            },
            {
              "internalType": "string",
              "name": "image",
              "type": "string"
            },
            {
              "internalType": "bool",
              "name": "registered",
              "type": "bool"
            },
            {
              "internalType": "uint256",
              "name": "registration_date",
              "type": "uint256"
            }
          ],
          "internalType": "struct Djob.Employer",
          "name": "props",
          "type": "tuple"
        }
      ],
      "stateMutability": "view",
      "type": "function"
    },
    {
      "inputs": [
        {
          "internalType": "address",
          "name": "_employer",
          "type": "address"
        },
        {
          "internalType": "uint256",
          "name": "_job_id",
          "type": "uint256"
        }
      ],
      "name": "getEmployerEscrow",
      "outputs": [
        {
          "internalType": "uint256",
          "name": "",
          "type": "uint256"
        }
      ],
      "stateMutability": "view",
      "type": "function"
    },
    {
      "inputs": [
        {
          "internalType": "address",
          "name": "_freelancer",
          "type": "address"
        }
      ],
      "name": "getFreelancerByAddress",
      "outputs": [
        {
          "components": [
            {
              "internalType": "address",
              "name": "freelancerAddress",
              "type": "address"
            },
            {
              "internalType": "string",
              "name": "name",
              "type": "string"
            },
            {
              "internalType": "string",
              "name": "skills",
              "type": "string"
            },
            {
              "internalType": "uint256",
              "name": "balance",
              "type": "uint256"
            },
            {
              "internalType": "string",
              "name": "country",
              "type": "string"
            },
            {
              "internalType": "string",
              "name": "gigTitle",
              "type": "string"
            },
            {
              "internalType": "string",
              "name": "gitDescription",
              "type": "string"
            },
            {
              "internalType": "string[]",
              "name": "images",
              "type": "string[]"
            },
            {
              "internalType": "uint256",
              "name": "jobsCompleted",
              "type": "uint256"
            },
            {
              "internalType": "bool",
              "name": "registered",
              "type": "bool"
            },
            {
              "internalType": "uint256",
              "name": "registration_date",
              "type": "uint256"
            },
            {
              "internalType": "uint256",
              "name": "starting_price",
              "type": "uint256"
            }
          ],
          "internalType": "struct Djob.Freelancer",
          "name": "props",
          "type": "tuple"
        }
      ],
      "stateMutability": "view",
      "type": "function"
    },
    {
      "inputs": [
        {
          "internalType": "uint256",
          "name": "jobId",
          "type": "uint256"
        }
      ],
      "name": "getJobByID",
      "outputs": [
        {
          "components": [
            {
              "internalType": "uint8",
              "name": "id",
              "type": "uint8"
            },
            {
              "internalType": "address",
              "name": "employer",
              "type": "address"
            },
            {
              "internalType": "string",
              "name": "title",
              "type": "string"
            },
            {
              "internalType": "string",
              "name": "description",
              "type": "string"
            },
            {
              "internalType": "uint256",
              "name": "budget",
              "type": "uint256"
            },
            {
              "internalType": "bool",
              "name": "completed",
              "type": "bool"
            },
            {
              "internalType": "address[]",
              "name": "applicants",
              "type": "address[]"
            },
            {
              "internalType": "address",
              "name": "hiredFreelancer",
              "type": "address"
            }
          ],
          "internalType": "struct Djob.Job",
          "name": "props",
          "type": "tuple"
        }
      ],
      "stateMutability": "view",
      "type": "function"
    },
    {
      "inputs": [
        {
          "internalType": "uint256",
          "name": "jobId",
          "type": "uint256"
        },
        {
          "internalType": "address",
          "name": "freelancerAddress",
          "type": "address"
        }
      ],
      "name": "hireFreelancer",
      "outputs": [],
      "stateMutability": "nonpayable",
      "type": "function"
    },
    {
      "inputs": [],
      "name": "owner",
      "outputs": [
        {
          "internalType": "address",
          "name": "",
          "type": "address"
        }
      ],
      "stateMutability": "view",
      "type": "function"
    },
    {
      "inputs": [
        {
          "internalType": "string",
          "name": "_name",
          "type": "string"
        },
        {
          "internalType": "string",
          "name": "_industry",
          "type": "string"
        },
        {
          "internalType": "string",
          "name": "_country",
          "type": "string"
        },
        {
          "internalType": "string",
          "name": "_imageURI",
          "type": "string"
        }
      ],
      "name": "registerEmployer",
      "outputs": [],
      "stateMutability": "nonpayable",
      "type": "function"
    },
    {
      "inputs": [
        {
          "internalType": "string",
          "name": "_name",
          "type": "string"
        },
        {
          "internalType": "string",
          "name": "_skills",
          "type": "string"
        },
        {
          "internalType": "string",
          "name": "_country",
          "type": "string"
        },
        {
          "internalType": "string",
          "name": "_gigTitle",
          "type": "string"
        },
        {
          "internalType": "string",
          "name": "_gigDesc",
          "type": "string"
        },
        {
          "internalType": "string[]",
          "name": "_images",
          "type": "string[]"
        },
        {
          "internalType": "uint256",
          "name": "_starting_price",
          "type": "uint256"
        }
      ],
      "name": "registerFreelancer",
      "outputs": [],
      "stateMutability": "nonpayable",
      "type": "function"
    },
    {
      "inputs": [
        {
          "internalType": "uint256",
          "name": "jobId",
          "type": "uint256"
        },
        {
          "internalType": "address",
          "name": "freelancerAddress",
          "type": "address"
        }
      ],
      "name": "releaseEscrow",
      "outputs": [],
      "stateMutability": "nonpayable",
      "type": "function"
    },
    {
      "inputs": [],
      "name": "totalCompletedJobs",
      "outputs": [
        {
          "internalType": "uint256",
          "name": "",
          "type": "uint256"
        }
      ],
      "stateMutability": "view",
      "type": "function"
    },
    {
      "inputs": [],
      "name": "totalEmployers",
      "outputs": [
        {
          "internalType": "uint256",
          "name": "",
          "type": "uint256"
        }
      ],
      "stateMutability": "view",
      "type": "function"
    },
    {
      "inputs": [],
      "name": "totalFreelancers",
      "outputs": [
        {
          "internalType": "uint256",
          "name": "",
          "type": "uint256"
        }
      ],
      "stateMutability": "view",
      "type": "function"
    },
    {
      "inputs": [],
      "name": "totalJobs",
      "outputs": [
        {
          "internalType": "uint8",
          "name": "",
          "type": "uint8"
        }
      ],
      "stateMutability": "view",
      "type": "function"
    },
    {
      "inputs": [],
      "name": "withdrawEarnings",
      "outputs": [],
      "stateMutability": "nonpayable",
      "type": "function"
    }
  ],
  "transactionHash": "0xe273d5f8636835559eff940955b1cf7dd7b3cc3cd525f4f1becdc6002770dfde",
  "args": [],
  "numDeployments": 1,
  "solcInputHash": "71e778cdd4bcb979f1ae731846fb1139",
  "bytecode": "0x608060405234801561000f575f80fd5b50335f806101000a81548173ffffffffffffffffffffffffffffffffffffffff021916908373ffffffffffffffffffffffffffffffffffffffff160217905550615a99806200005d5f395ff3fe60806040526004361061013f575f3560e01c80635e586eb1116100b5578063b73c6ce91161006e578063b73c6ce914610460578063c27a9dd414610476578063c6cb3bbe146104b2578063c8d1b6aa146104da578063dfac8ce514610504578063e0c94ae5146105405761013f565b80635e586eb1146103585780636a6b67d11461038257806373a06f42146103aa5780637a787125146103d25780638da5cb5b1461040e578063b0f26f18146104385761013f565b80631c7af7a0116101075780631c7af7a01461022c57806321bd669314610268578063359b248c146102ae578063371ae9f4146102d85780633b76594d1461031457806358d7f895146103305761013f565b80630be435bd146101435780630e553442146101865780631033397b146101ae5780631906b4ce146101d85780631ace87b314610202575b5f80fd5b34801561014e575f80fd5b5061016960048036038101906101649190613c74565b610568565b60405161017d989796959493929190613d6a565b60405180910390f35b348015610191575f80fd5b506101ac60048036038101906101a79190613f2e565b6107ef565b005b3480156101b9575f80fd5b506101c2610a51565b6040516101cf9190614002565b60405180910390f35b3480156101e3575f80fd5b506101ec610a57565b6040516101f99190614002565b60405180910390f35b34801561020d575f80fd5b50610216610a5d565b6040516102239190614036565b60405180910390f35b348015610237575f80fd5b50610252600480360381019061024d9190613c74565b610a6f565b60405161025f91906142a3565b60405180910390f35b348015610273575f80fd5b5061028e60048036038101906102899190613c74565b610f01565b6040516102a59b9a999897969594939291906142c3565b60405180910390f35b3480156102b9575f80fd5b506102c2611220565b6040516102cf919061456e565b60405180910390f35b3480156102e3575f80fd5b506102fe60048036038101906102f991906145b8565b61177e565b60405161030b9190614755565b60405180910390f35b61032e600480360381019061032991906145b8565b611a9d565b005b34801561033b575f80fd5b5061035660048036038101906103519190614857565b611cfe565b005b348015610363575f80fd5b5061036c612028565b6040516103799190614002565b60405180910390f35b34801561038d575f80fd5b506103a860048036038101906103a3919061499c565b61202e565b005b3480156103b5575f80fd5b506103d060048036038101906103cb91906149da565b61231a565b005b3480156103dd575f80fd5b506103f860048036038101906103f39190613c74565b612656565b6040516104059190614b24565b60405180910390f35b348015610419575f80fd5b50610422612970565b60405161042f9190614b44565b60405180910390f35b348015610443575f80fd5b5061045e6004803603810190610459919061499c565b612993565b005b34801561046b575f80fd5b50610474612bf6565b005b348015610481575f80fd5b5061049c600480360381019061049791906145b8565b612e41565b6040516104a99190614b44565b60405180910390f35b3480156104bd575f80fd5b506104d860048036038101906104d3919061499c565b612e7c565b005b3480156104e5575f80fd5b506104ee613237565b6040516104fb9190614cd3565b60405180910390f35b34801561050f575f80fd5b5061052a60048036038101906105259190614cf3565b6135ad565b6040516105379190614002565b60405180910390f35b34801561054b575f80fd5b50610566600480360381019061056191906145b8565b613603565b005b6007602052805f5260405f205f91509050805f015f9054906101000a900473ffffffffffffffffffffffffffffffffffffffff16908060010180546105ac90614d5e565b80601f01602080910402602001604051908101604052809291908181526020018280546105d890614d5e565b80156106235780601f106105fa57610100808354040283529160200191610623565b820191905f5260205f20905b81548152906001019060200180831161060657829003601f168201915b50505050509080600201805461063890614d5e565b80601f016020809104026020016040519081016040528092919081815260200182805461066490614d5e565b80156106af5780601f10610686576101008083540402835291602001916106af565b820191905f5260205f20905b81548152906001019060200180831161069257829003601f168201915b5050505050908060030154908060040180546106ca90614d5e565b80601f01602080910402602001604051908101604052809291908181526020018280546106f690614d5e565b80156107415780601f1061071857610100808354040283529160200191610741565b820191905f5260205f20905b81548152906001019060200180831161072457829003601f168201915b50505050509080600501805461075690614d5e565b80601f016020809104026020016040519081016040528092919081815260200182805461078290614d5e565b80156107cd5780601f106107a4576101008083540402835291602001916107cd565b820191905f5260205f20905b8154815290600101906020018083116107b057829003601f168201915b505050505090806006015f9054906101000a900460ff16908060070154905088565b5f151560075f3373ffffffffffffffffffffffffffffffffffffffff1673ffffffffffffffffffffffffffffffffffffffff1681526020019081526020015f206006015f9054906101000a900460ff16151514610881576040517f08c379a000000000000000000000000000000000000000000000000000000000815260040161087890614dd8565b60405180910390fd5b5f84511161088d575f80fd5b5f835111610899575f80fd5b60025f8154809291906108ab90614e23565b91905055506040518061010001604052803373ffffffffffffffffffffffffffffffffffffffff1681526020018581526020018481526020015f81526020018381526020018281526020016001151581526020014281525060075f3373ffffffffffffffffffffffffffffffffffffffff1673ffffffffffffffffffffffffffffffffffffffff1681526020019081526020015f205f820151815f015f6101000a81548173ffffffffffffffffffffffffffffffffffffffff021916908373ffffffffffffffffffffffffffffffffffffffff16021790555060208201518160010190816109999190615007565b5060408201518160020190816109af9190615007565b506060820151816003015560808201518160040190816109cf9190615007565b5060a08201518160050190816109e59190615007565b5060c0820151816006015f6101000a81548160ff02191690831515021790555060e082015181600701559050507f6c0e8aabac6898602e5264c9a24b2394d9895a70bd2f4c44c8ca0fcfcec6477f3385604051610a439291906150d6565b60405180910390a150505050565b60035481565b60025481565b5f60149054906101000a900460ff1681565b610a77613973565b60065f8373ffffffffffffffffffffffffffffffffffffffff1673ffffffffffffffffffffffffffffffffffffffff1681526020019081526020015f20604051806101800160405290815f82015f9054906101000a900473ffffffffffffffffffffffffffffffffffffffff1673ffffffffffffffffffffffffffffffffffffffff1673ffffffffffffffffffffffffffffffffffffffff168152602001600182018054610b2490614d5e565b80601f0160208091040260200160405190810160405280929190818152602001828054610b5090614d5e565b8015610b9b5780601f10610b7257610100808354040283529160200191610b9b565b820191905f5260205f20905b815481529060010190602001808311610b7e57829003601f168201915b50505050508152602001600282018054610bb490614d5e565b80601f0160208091040260200160405190810160405280929190818152602001828054610be090614d5e565b8015610c2b5780601f10610c0257610100808354040283529160200191610c2b565b820191905f5260205f20905b815481529060010190602001808311610c0e57829003601f168201915b5050505050815260200160038201548152602001600482018054610c4e90614d5e565b80601f0160208091040260200160405190810160405280929190818152602001828054610c7a90614d5e565b8015610cc55780601f10610c9c57610100808354040283529160200191610cc5565b820191905f5260205f20905b815481529060010190602001808311610ca857829003601f168201915b50505050508152602001600582018054610cde90614d5e565b80601f0160208091040260200160405190810160405280929190818152602001828054610d0a90614d5e565b8015610d555780601f10610d2c57610100808354040283529160200191610d55565b820191905f5260205f20905b815481529060010190602001808311610d3857829003601f168201915b50505050508152602001600682018054610d6e90614d5e565b80601f0160208091040260200160405190810160405280929190818152602001828054610d9a90614d5e565b8015610de55780601f10610dbc57610100808354040283529160200191610de5565b820191905f5260205f20905b815481529060010190602001808311610dc857829003601f168201915b5050505050815260200160078201805480602002602001604051908101604052809291908181526020015f905b82821015610eba578382905f5260205f20018054610e2f90614d5e565b80601f0160208091040260200160405190810160405280929190818152602001828054610e5b90614d5e565b8015610ea65780601f10610e7d57610100808354040283529160200191610ea6565b820191905f5260205f20905b815481529060010190602001808311610e8957829003601f168201915b505050505081526020019060010190610e12565b50505050815260200160088201548152602001600982015f9054906101000a900460ff16151515158152602001600a8201548152602001600b820154815250509050919050565b6006602052805f5260405f205f91509050805f015f9054906101000a900473ffffffffffffffffffffffffffffffffffffffff1690806001018054610f4590614d5e565b80601f0160208091040260200160405190810160405280929190818152602001828054610f7190614d5e565b8015610fbc5780601f10610f9357610100808354040283529160200191610fbc565b820191905f5260205f20905b815481529060010190602001808311610f9f57829003601f168201915b505050505090806002018054610fd190614d5e565b80601f0160208091040260200160405190810160405280929190818152602001828054610ffd90614d5e565b80156110485780601f1061101f57610100808354040283529160200191611048565b820191905f5260205f20905b81548152906001019060200180831161102b57829003601f168201915b50505050509080600301549080600401805461106390614d5e565b80601f016020809104026020016040519081016040528092919081815260200182805461108f90614d5e565b80156110da5780601f106110b1576101008083540402835291602001916110da565b820191905f5260205f20905b8154815290600101906020018083116110bd57829003601f168201915b5050505050908060050180546110ef90614d5e565b80601f016020809104026020016040519081016040528092919081815260200182805461111b90614d5e565b80156111665780601f1061113d57610100808354040283529160200191611166565b820191905f5260205f20905b81548152906001019060200180831161114957829003601f168201915b50505050509080600601805461117b90614d5e565b80601f01602080910402602001604051908101604052809291908181526020018280546111a790614d5e565b80156111f25780601f106111c9576101008083540402835291602001916111f2565b820191905f5260205f20905b8154815290600101906020018083116111d557829003601f168201915b505050505090806008015490806009015f9054906101000a900460ff169080600a01549080600b015490508b565b60605f60015467ffffffffffffffff81111561123f5761123e613e0a565b5b60405190808252806020026020018201604052801561127857816020015b611265613973565b81526020019060019003908161125d5790505b5090505f5b6001548110156117765760065f6004838154811061129e5761129d615104565b5b905f5260205f20015f9054906101000a900473ffffffffffffffffffffffffffffffffffffffff1673ffffffffffffffffffffffffffffffffffffffff1673ffffffffffffffffffffffffffffffffffffffff1681526020019081526020015f20604051806101800160405290815f82015f9054906101000a900473ffffffffffffffffffffffffffffffffffffffff1673ffffffffffffffffffffffffffffffffffffffff1673ffffffffffffffffffffffffffffffffffffffff16815260200160018201805461136f90614d5e565b80601f016020809104026020016040519081016040528092919081815260200182805461139b90614d5e565b80156113e65780601f106113bd576101008083540402835291602001916113e6565b820191905f5260205f20905b8154815290600101906020018083116113c957829003601f168201915b505050505081526020016002820180546113ff90614d5e565b80601f016020809104026020016040519081016040528092919081815260200182805461142b90614d5e565b80156114765780601f1061144d57610100808354040283529160200191611476565b820191905f5260205f20905b81548152906001019060200180831161145957829003601f168201915b505050505081526020016003820154815260200160048201805461149990614d5e565b80601f01602080910402602001604051908101604052809291908181526020018280546114c590614d5e565b80156115105780601f106114e757610100808354040283529160200191611510565b820191905f5260205f20905b8154815290600101906020018083116114f357829003601f168201915b5050505050815260200160058201805461152990614d5e565b80601f016020809104026020016040519081016040528092919081815260200182805461155590614d5e565b80156115a05780601f10611577576101008083540402835291602001916115a0565b820191905f5260205f20905b81548152906001019060200180831161158357829003601f168201915b505050505081526020016006820180546115b990614d5e565b80601f01602080910402602001604051908101604052809291908181526020018280546115e590614d5e565b80156116305780601f1061160757610100808354040283529160200191611630565b820191905f5260205f20905b81548152906001019060200180831161161357829003601f168201915b5050505050815260200160078201805480602002602001604051908101604052809291908181526020015f905b82821015611705578382905f5260205f2001805461167a90614d5e565b80601f01602080910402602001604051908101604052809291908181526020018280546116a690614d5e565b80156116f15780601f106116c8576101008083540402835291602001916116f1565b820191905f5260205f20905b8154815290600101906020018083116116d457829003601f168201915b50505050508152602001906001019061165d565b50505050815260200160088201548152602001600982015f9054906101000a900460ff16151515158152602001600a8201548152602001600b8201548152505082828151811061175857611757615104565b5b6020026020010181905250808061176e90614e23565b91505061127d565b508091505090565b6117866139e6565b5f821180156117a657505f60149054906101000a900460ff1660ff168211155b6117e5576040517f08c379a00000000000000000000000000000000000000000000000000000000081526004016117dc9061517b565b60405180910390fd5b60055f8381526020019081526020015f20604051806101000160405290815f82015f9054906101000a900460ff1660ff1660ff1681526020015f820160019054906101000a900473ffffffffffffffffffffffffffffffffffffffff1673ffffffffffffffffffffffffffffffffffffffff1673ffffffffffffffffffffffffffffffffffffffff16815260200160018201805461188290614d5e565b80601f01602080910402602001604051908101604052809291908181526020018280546118ae90614d5e565b80156118f95780601f106118d0576101008083540402835291602001916118f9565b820191905f5260205f20905b8154815290600101906020018083116118dc57829003601f168201915b5050505050815260200160028201805461191290614d5e565b80601f016020809104026020016040519081016040528092919081815260200182805461193e90614d5e565b80156119895780601f1061196057610100808354040283529160200191611989565b820191905f5260205f20905b81548152906001019060200180831161196c57829003601f168201915b5050505050815260200160038201548152602001600482015f9054906101000a900460ff1615151515815260200160058201805480602002602001604051908101604052809291908181526020018280548015611a3857602002820191905f5260205f20905b815f9054906101000a900473ffffffffffffffffffffffffffffffffffffffff1673ffffffffffffffffffffffffffffffffffffffff16815260200190600101908083116119ef575b50505050508152602001600682015f9054906101000a900473ffffffffffffffffffffffffffffffffffffffff1673ffffffffffffffffffffffffffffffffffffffff1673ffffffffffffffffffffffffffffffffffffffff16815250509050919050565b5f60149054906101000a900460ff1660ff168111158015611abd57505f81115b611afc576040517f08c379a0000000000000000000000000000000000000000000000000000000008152600401611af3906151e3565b60405180910390fd5b5f60055f8381526020019081526020015f2090505f60075f3373ffffffffffffffffffffffffffffffffffffffff1673ffffffffffffffffffffffffffffffffffffffff1681526020019081526020015f2090503373ffffffffffffffffffffffffffffffffffffffff16825f0160019054906101000a900473ffffffffffffffffffffffffffffffffffffffff1673ffffffffffffffffffffffffffffffffffffffff1614611baa575f80fd5b816004015f9054906101000a900460ff1615611bfb576040517f08c379a0000000000000000000000000000000000000000000000000000000008152600401611bf29061524b565b60405180910390fd5b8160030154341015611c42576040517f08c379a0000000000000000000000000000000000000000000000000000000008152600401611c39906152b3565b60405180910390fd5b34816003015f828254611c5591906152d1565b925050819055503460085f3373ffffffffffffffffffffffffffffffffffffffff1673ffffffffffffffffffffffffffffffffffffffff1681526020019081526020015f205f8581526020019081526020015f205f828254611cb791906152d1565b925050819055507fe030e47e27825a2ad1b19e4cf2e70bfbfb3124af275c7727a82b114ba7b29a85833334604051611cf193929190615304565b60405180910390a1505050565b5f151560065f3373ffffffffffffffffffffffffffffffffffffffff1673ffffffffffffffffffffffffffffffffffffffff1681526020019081526020015f206009015f9054906101000a900460ff16151514611d90576040517f08c379a0000000000000000000000000000000000000000000000000000000008152600401611d8790614dd8565b60405180910390fd5b5f875111611d9c575f80fd5b5f865111611da8575f80fd5b60015f815480929190611dba90614e23565b91905055506040518061018001604052803373ffffffffffffffffffffffffffffffffffffffff1681526020018881526020018781526020015f81526020018681526020018581526020018481526020018381526020015f81526020016001151581526020014281526020018281525060065f3373ffffffffffffffffffffffffffffffffffffffff1673ffffffffffffffffffffffffffffffffffffffff1681526020019081526020015f205f820151815f015f6101000a81548173ffffffffffffffffffffffffffffffffffffffff021916908373ffffffffffffffffffffffffffffffffffffffff1602179055506020820151816001019081611ec09190615007565b506040820151816002019081611ed69190615007565b50606082015181600301556080820151816004019081611ef69190615007565b5060a0820151816005019081611f0c9190615007565b5060c0820151816006019081611f229190615007565b5060e0820151816007019080519060200190611f3f929190613a57565b506101008201518160080155610120820151816009015f6101000a81548160ff02191690831515021790555061014082015181600a015561016082015181600b0155905050600433908060018154018082558091505060019003905f5260205f20015f9091909190916101000a81548173ffffffffffffffffffffffffffffffffffffffff021916908373ffffffffffffffffffffffffffffffffffffffff1602179055507f21bef455eb0e77b12a579311ca8616d72216c8b628577eeda276ac16fe5b622e338383604051612017939291906153bc565b60405180910390a150505050505050565b60015481565b338073ffffffffffffffffffffffffffffffffffffffff1660075f3373ffffffffffffffffffffffffffffffffffffffff1673ffffffffffffffffffffffffffffffffffffffff1681526020019081526020015f205f015f9054906101000a900473ffffffffffffffffffffffffffffffffffffffff1673ffffffffffffffffffffffffffffffffffffffff16146120fb576040517f08c379a00000000000000000000000000000000000000000000000000000000081526004016120f290615442565b60405180910390fd5b5f60149054906101000a900460ff1660ff16831115801561211b57505f83115b61215a576040517f08c379a0000000000000000000000000000000000000000000000000000000008152600401612151906154aa565b60405180910390fd5b5f60055f8581526020019081526020015f2090505f73ffffffffffffffffffffffffffffffffffffffff16815f0160019054906101000a900473ffffffffffffffffffffffffffffffffffffffff1673ffffffffffffffffffffffffffffffffffffffff16036121ff576040517f08c379a00000000000000000000000000000000000000000000000000000000081526004016121f690615512565b60405180910390fd5b6122098184613909565b612248576040517f08c379a000000000000000000000000000000000000000000000000000000000815260040161223f9061557a565b60405180910390fd5b5f816003015490506001826004015f6101000a81548160ff02191690831515021790555060035f81548092919061227e90614e23565b919050555060065f8573ffffffffffffffffffffffffffffffffffffffff1673ffffffffffffffffffffffffffffffffffffffff1681526020019081526020015f206008015f8154809291906122d390614e23565b91905055507f4dbba472101e9f148a3a5ecbe793f0ee16a7efe4bf3f8cbfab5330e1642ef95585858360405161230b93929190615304565b60405180910390a15050505050565b338073ffffffffffffffffffffffffffffffffffffffff1660075f3373ffffffffffffffffffffffffffffffffffffffff1673ffffffffffffffffffffffffffffffffffffffff1681526020019081526020015f205f015f9054906101000a900473ffffffffffffffffffffffffffffffffffffffff1673ffffffffffffffffffffffffffffffffffffffff16146123e7576040517f08c379a00000000000000000000000000000000000000000000000000000000081526004016123de90615442565b60405180910390fd5b5f601481819054906101000a900460ff168092919061240590615598565b91906101000a81548160ff021916908360ff160217905550505f8060149054906101000a900460ff1690506040518061010001604052808260ff1681526020013373ffffffffffffffffffffffffffffffffffffffff1681526020018681526020018581526020018481526020015f151581526020015f67ffffffffffffffff81111561249557612494613e0a565b5b6040519080825280602002602001820160405280156124c35781602001602082028036833780820191505090505b5081526020015f73ffffffffffffffffffffffffffffffffffffffff1681525060055f8360ff1681526020019081526020015f205f820151815f015f6101000a81548160ff021916908360ff1602179055506020820151815f0160016101000a81548173ffffffffffffffffffffffffffffffffffffffff021916908373ffffffffffffffffffffffffffffffffffffffff16021790555060408201518160010190816125709190615007565b5060608201518160020190816125869190615007565b506080820151816003015560a0820151816004015f6101000a81548160ff02191690831515021790555060c08201518160050190805190602001906125cc929190613aae565b5060e0820151816006015f6101000a81548173ffffffffffffffffffffffffffffffffffffffff021916908373ffffffffffffffffffffffffffffffffffffffff1602179055509050507fb63f0fdfb200b05c8b95fb4dcf8f8abd30f0b6884d532792e705afab4f37380a81866040516126479291906155f0565b60405180910390a15050505050565b61265e613b35565b60075f8373ffffffffffffffffffffffffffffffffffffffff1673ffffffffffffffffffffffffffffffffffffffff1681526020019081526020015f20604051806101000160405290815f82015f9054906101000a900473ffffffffffffffffffffffffffffffffffffffff1673ffffffffffffffffffffffffffffffffffffffff1673ffffffffffffffffffffffffffffffffffffffff16815260200160018201805461270b90614d5e565b80601f016020809104026020016040519081016040528092919081815260200182805461273790614d5e565b80156127825780601f1061275957610100808354040283529160200191612782565b820191905f5260205f20905b81548152906001019060200180831161276557829003601f168201915b5050505050815260200160028201805461279b90614d5e565b80601f01602080910402602001604051908101604052809291908181526020018280546127c790614d5e565b80156128125780601f106127e957610100808354040283529160200191612812565b820191905f5260205f20905b8154815290600101906020018083116127f557829003601f168201915b505050505081526020016003820154815260200160048201805461283590614d5e565b80601f016020809104026020016040519081016040528092919081815260200182805461286190614d5e565b80156128ac5780601f10612883576101008083540402835291602001916128ac565b820191905f5260205f20905b81548152906001019060200180831161288f57829003601f168201915b505050505081526020016005820180546128c590614d5e565b80601f01602080910402602001604051908101604052809291908181526020018280546128f190614d5e565b801561293c5780601f106129135761010080835404028352916020019161293c565b820191905f5260205f20905b81548152906001019060200180831161291f57829003601f168201915b50505050508152602001600682015f9054906101000a900460ff161515151581526020016007820154815250509050919050565b5f8054906101000a900473ffffffffffffffffffffffffffffffffffffffff1681565b338073ffffffffffffffffffffffffffffffffffffffff1660075f3373ffffffffffffffffffffffffffffffffffffffff1673ffffffffffffffffffffffffffffffffffffffff1681526020019081526020015f205f015f9054906101000a900473ffffffffffffffffffffffffffffffffffffffff1673ffffffffffffffffffffffffffffffffffffffff1614612a60576040517f08c379a0000000000000000000000000000000000000000000000000000000008152600401612a5790615442565b60405180910390fd5b5f60149054906101000a900460ff1660ff168311158015612a8057505f83115b612abf576040517f08c379a0000000000000000000000000000000000000000000000000000000008152600401612ab6906151e3565b60405180910390fd5b5f60055f8581526020019081526020015f2090505f73ffffffffffffffffffffffffffffffffffffffff16815f0160019054906101000a900473ffffffffffffffffffffffffffffffffffffffff1673ffffffffffffffffffffffffffffffffffffffff1603612b64576040517f08c379a0000000000000000000000000000000000000000000000000000000008152600401612b5b90615512565b60405180910390fd5b612b6e8184613909565b15612bae576040517f08c379a0000000000000000000000000000000000000000000000000000000008152600401612ba590615668565b60405180910390fd5b82816006015f6101000a81548173ffffffffffffffffffffffffffffffffffffffff021916908373ffffffffffffffffffffffffffffffffffffffff16021790555050505050565b338073ffffffffffffffffffffffffffffffffffffffff1660065f3373ffffffffffffffffffffffffffffffffffffffff1673ffffffffffffffffffffffffffffffffffffffff1681526020019081526020015f205f015f9054906101000a900473ffffffffffffffffffffffffffffffffffffffff1673ffffffffffffffffffffffffffffffffffffffff1614612cc3576040517f08c379a0000000000000000000000000000000000000000000000000000000008152600401612cba906156d0565b60405180910390fd5b5f60065f3373ffffffffffffffffffffffffffffffffffffffff1673ffffffffffffffffffffffffffffffffffffffff1681526020019081526020015f2090505f816003015411612d49576040517f08c379a0000000000000000000000000000000000000000000000000000000008152600401612d4090615738565b60405180910390fd5b5f816003015490505f82600301819055505f3373ffffffffffffffffffffffffffffffffffffffff1682604051612d7f90615783565b5f6040518083038185875af1925050503d805f8114612db9576040519150601f19603f3d011682016040523d82523d5f602084013e612dbe565b606091505b5050905080612e02576040517f08c379a0000000000000000000000000000000000000000000000000000000008152600401612df9906157e1565b60405180910390fd5b7f09ad672d4e7c4892da934d1051932ebe9ec4b6ec8c3f40d569176db3e93e5abe3383604051612e339291906157ff565b60405180910390a150505050565b60048181548110612e50575f80fd5b905f5260205f20015f915054906101000a900473ffffffffffffffffffffffffffffffffffffffff1681565b338073ffffffffffffffffffffffffffffffffffffffff1660075f3373ffffffffffffffffffffffffffffffffffffffff1673ffffffffffffffffffffffffffffffffffffffff1681526020019081526020015f205f015f9054906101000a900473ffffffffffffffffffffffffffffffffffffffff1673ffffffffffffffffffffffffffffffffffffffff1614612f49576040517f08c379a0000000000000000000000000000000000000000000000000000000008152600401612f4090615442565b60405180910390fd5b5f60149054906101000a900460ff1660ff168311158015612f6957505f83115b612fa8576040517f08c379a0000000000000000000000000000000000000000000000000000000008152600401612f9f906151e3565b60405180910390fd5b5f60055f8581526020019081526020015f209050805f0160019054906101000a900473ffffffffffffffffffffffffffffffffffffffff1673ffffffffffffffffffffffffffffffffffffffff163373ffffffffffffffffffffffffffffffffffffffff1614613016575f80fd5b6001816004015f6101000a81548160ff0219169083151502179055613070576040517f08c379a000000000000000000000000000000000000000000000000000000000815260040161306790615870565b60405180910390fd5b5f60085f3373ffffffffffffffffffffffffffffffffffffffff1673ffffffffffffffffffffffffffffffffffffffff1681526020019081526020015f205f8681526020019081526020015f205490505f8111613102576040517f08c379a00000000000000000000000000000000000000000000000000000000081526004016130f9906158d8565b60405180910390fd5b8160030154811015613149576040517f08c379a000000000000000000000000000000000000000000000000000000000815260040161314090615940565b60405180910390fd5b5f60085f3373ffffffffffffffffffffffffffffffffffffffff1673ffffffffffffffffffffffffffffffffffffffff1681526020019081526020015f205f8781526020019081526020015f20819055505f60065f8673ffffffffffffffffffffffffffffffffffffffff1673ffffffffffffffffffffffffffffffffffffffff1681526020019081526020015f20905081816003015f8282546131ed91906152d1565b925050819055507f6e3c6096795c8298a218b2cfb8bde42726ff7c9a3d27b4d3ba41ab7f74feb5fb86868460405161322793929190615304565b60405180910390a1505050505050565b60605f60149054906101000a900460ff1660ff1667ffffffffffffffff81111561326457613263613e0a565b5b60405190808252806020026020018201604052801561329d57816020015b61328a6139e6565b8152602001906001900390816132825790505b5090505f5b5f60149054906101000a900460ff1660ff168110156135a95760055f6001836132cb91906152d1565b81526020019081526020015f20604051806101000160405290815f82015f9054906101000a900460ff1660ff1660ff1681526020015f820160019054906101000a900473ffffffffffffffffffffffffffffffffffffffff1673ffffffffffffffffffffffffffffffffffffffff1673ffffffffffffffffffffffffffffffffffffffff16815260200160018201805461336490614d5e565b80601f016020809104026020016040519081016040528092919081815260200182805461339090614d5e565b80156133db5780601f106133b2576101008083540402835291602001916133db565b820191905f5260205f20905b8154815290600101906020018083116133be57829003601f168201915b505050505081526020016002820180546133f490614d5e565b80601f016020809104026020016040519081016040528092919081815260200182805461342090614d5e565b801561346b5780601f106134425761010080835404028352916020019161346b565b820191905f5260205f20905b81548152906001019060200180831161344e57829003601f168201915b5050505050815260200160038201548152602001600482015f9054906101000a900460ff161515151581526020016005820180548060200260200160405190810160405280929190818152602001828054801561351a57602002820191905f5260205f20905b815f9054906101000a900473ffffffffffffffffffffffffffffffffffffffff1673ffffffffffffffffffffffffffffffffffffffff16815260200190600101908083116134d1575b50505050508152602001600682015f9054906101000a900473ffffffffffffffffffffffffffffffffffffffff1673ffffffffffffffffffffffffffffffffffffffff1673ffffffffffffffffffffffffffffffffffffffff168152505082828151811061358b5761358a615104565b5b602002602001018190525080806135a190614e23565b9150506132a2565b5090565b5f60085f8473ffffffffffffffffffffffffffffffffffffffff1673ffffffffffffffffffffffffffffffffffffffff1681526020019081526020015f205f8381526020019081526020015f2054905092915050565b5f60149054906101000a900460ff1660ff16811115801561362357505f81115b613662576040517f08c379a0000000000000000000000000000000000000000000000000000000008152600401613659906154aa565b60405180910390fd5b5f60055f8381526020019081526020015f2090505f73ffffffffffffffffffffffffffffffffffffffff16815f0160019054906101000a900473ffffffffffffffffffffffffffffffffffffffff1673ffffffffffffffffffffffffffffffffffffffff1603613707576040517f08c379a00000000000000000000000000000000000000000000000000000000081526004016136fe90615512565b60405180910390fd5b5f73ffffffffffffffffffffffffffffffffffffffff163373ffffffffffffffffffffffffffffffffffffffff1603613775576040517f08c379a000000000000000000000000000000000000000000000000000000000815260040161376c906159a8565b60405180910390fd5b5f5b8160050180549050811015613844573373ffffffffffffffffffffffffffffffffffffffff168260050182815481106137b3576137b2615104565b5b905f5260205f20015f9054906101000a900473ffffffffffffffffffffffffffffffffffffffff1673ffffffffffffffffffffffffffffffffffffffff1603613831576040517f08c379a000000000000000000000000000000000000000000000000000000000815260040161382890615a10565b60405180910390fd5b808061383c90614e23565b915050613777565b508060050133908060018154018082558091505060019003905f5260205f20015f9091909190916101000a81548173ffffffffffffffffffffffffffffffffffffffff021916908373ffffffffffffffffffffffffffffffffffffffff1602179055507f2b443803772f6da2db17c7357119f932841870fdf0a3a5d8ca9d2e112bb1332682825f0160019054906101000a900473ffffffffffffffffffffffffffffffffffffffff16336040516138fd93929190615a2e565b60405180910390a15050565b5f8173ffffffffffffffffffffffffffffffffffffffff16836006015f9054906101000a900473ffffffffffffffffffffffffffffffffffffffff1673ffffffffffffffffffffffffffffffffffffffff1603613969576001905061396d565b5f90505b92915050565b6040518061018001604052805f73ffffffffffffffffffffffffffffffffffffffff16815260200160608152602001606081526020015f8152602001606081526020016060815260200160608152602001606081526020015f81526020015f151581526020015f81526020015f81525090565b6040518061010001604052805f60ff1681526020015f73ffffffffffffffffffffffffffffffffffffffff16815260200160608152602001606081526020015f81526020015f15158152602001606081526020015f73ffffffffffffffffffffffffffffffffffffffff1681525090565b828054828255905f5260205f20908101928215613a9d579160200282015b82811115613a9c578251829081613a8c9190615007565b5091602001919060010190613a75565b5b509050613aaa9190613b8e565b5090565b828054828255905f5260205f20908101928215613b24579160200282015b82811115613b23578251825f6101000a81548173ffffffffffffffffffffffffffffffffffffffff021916908373ffffffffffffffffffffffffffffffffffffffff16021790555091602001919060010190613acc565b5b509050613b319190613bb1565b5090565b6040518061010001604052805f73ffffffffffffffffffffffffffffffffffffffff16815260200160608152602001606081526020015f815260200160608152602001606081526020015f151581526020015f81525090565b5b80821115613bad575f8181613ba49190613bcc565b50600101613b8f565b5090565b5b80821115613bc8575f815f905550600101613bb2565b5090565b508054613bd890614d5e565b5f825580601f10613be95750613c06565b601f0160209004905f5260205f2090810190613c059190613bb1565b5b50565b5f604051905090565b5f80fd5b5f80fd5b5f73ffffffffffffffffffffffffffffffffffffffff82169050919050565b5f613c4382613c1a565b9050919050565b613c5381613c39565b8114613c5d575f80fd5b50565b5f81359050613c6e81613c4a565b92915050565b5f60208284031215613c8957613c88613c12565b5b5f613c9684828501613c60565b91505092915050565b613ca881613c39565b82525050565b5f81519050919050565b5f82825260208201905092915050565b5f5b83811015613ce5578082015181840152602081019050613cca565b5f8484015250505050565b5f601f19601f8301169050919050565b5f613d0a82613cae565b613d148185613cb8565b9350613d24818560208601613cc8565b613d2d81613cf0565b840191505092915050565b5f819050919050565b613d4a81613d38565b82525050565b5f8115159050919050565b613d6481613d50565b82525050565b5f61010082019050613d7e5f83018b613c9f565b8181036020830152613d90818a613d00565b90508181036040830152613da48189613d00565b9050613db36060830188613d41565b8181036080830152613dc58187613d00565b905081810360a0830152613dd98186613d00565b9050613de860c0830185613d5b565b613df560e0830184613d41565b9998505050505050505050565b5f80fd5b5f80fd5b7f4e487b71000000000000000000000000000000000000000000000000000000005f52604160045260245ffd5b613e4082613cf0565b810181811067ffffffffffffffff82111715613e5f57613e5e613e0a565b5b80604052505050565b5f613e71613c09565b9050613e7d8282613e37565b919050565b5f67ffffffffffffffff821115613e9c57613e9b613e0a565b5b613ea582613cf0565b9050602081019050919050565b828183375f83830152505050565b5f613ed2613ecd84613e82565b613e68565b905082815260208101848484011115613eee57613eed613e06565b5b613ef9848285613eb2565b509392505050565b5f82601f830112613f1557613f14613e02565b5b8135613f25848260208601613ec0565b91505092915050565b5f805f8060808587031215613f4657613f45613c12565b5b5f85013567ffffffffffffffff811115613f6357613f62613c16565b5b613f6f87828801613f01565b945050602085013567ffffffffffffffff811115613f9057613f8f613c16565b5b613f9c87828801613f01565b935050604085013567ffffffffffffffff811115613fbd57613fbc613c16565b5b613fc987828801613f01565b925050606085013567ffffffffffffffff811115613fea57613fe9613c16565b5b613ff687828801613f01565b91505092959194509250565b5f6020820190506140155f830184613d41565b92915050565b5f60ff82169050919050565b6140308161401b565b82525050565b5f6020820190506140495f830184614027565b92915050565b61405881613c39565b82525050565b5f82825260208201905092915050565b5f61407882613cae565b614082818561405e565b9350614092818560208601613cc8565b61409b81613cf0565b840191505092915050565b6140af81613d38565b82525050565b5f81519050919050565b5f82825260208201905092915050565b5f819050602082019050919050565b5f6140e9838361406e565b905092915050565b5f602082019050919050565b5f614107826140b5565b61411181856140bf565b935083602082028501614123856140cf565b805f5b8581101561415e578484038952815161413f85826140de565b945061414a836140f1565b925060208a01995050600181019050614126565b50829750879550505050505092915050565b61417981613d50565b82525050565b5f61018083015f8301516141955f86018261404f565b50602083015184820360208601526141ad828261406e565b915050604083015184820360408601526141c7828261406e565b91505060608301516141dc60608601826140a6565b50608083015184820360808601526141f4828261406e565b91505060a083015184820360a086015261420e828261406e565b91505060c083015184820360c0860152614228828261406e565b91505060e083015184820360e086015261424282826140fd565b9150506101008301516142596101008601826140a6565b5061012083015161426e610120860182614170565b506101408301516142836101408601826140a6565b506101608301516142986101608601826140a6565b508091505092915050565b5f6020820190508181035f8301526142bb818461417f565b905092915050565b5f610160820190506142d75f83018e613c9f565b81810360208301526142e9818d613d00565b905081810360408301526142fd818c613d00565b905061430c606083018b613d41565b818103608083015261431e818a613d00565b905081810360a08301526143328189613d00565b905081810360c08301526143468188613d00565b905061435560e0830187613d41565b614363610100830186613d5b565b614371610120830185613d41565b61437f610140830184613d41565b9c9b505050505050505050505050565b5f81519050919050565b5f82825260208201905092915050565b5f819050602082019050919050565b5f61018083015f8301516143ce5f86018261404f565b50602083015184820360208601526143e6828261406e565b91505060408301518482036040860152614400828261406e565b915050606083015161441560608601826140a6565b506080830151848203608086015261442d828261406e565b91505060a083015184820360a0860152614447828261406e565b91505060c083015184820360c0860152614461828261406e565b91505060e083015184820360e086015261447b82826140fd565b9150506101008301516144926101008601826140a6565b506101208301516144a7610120860182614170565b506101408301516144bc6101408601826140a6565b506101608301516144d16101608601826140a6565b508091505092915050565b5f6144e783836143b8565b905092915050565b5f602082019050919050565b5f6145058261438f565b61450f8185614399565b935083602082028501614521856143a9565b805f5b8581101561455c578484038952815161453d85826144dc565b9450614548836144ef565b925060208a01995050600181019050614524565b50829750879550505050505092915050565b5f6020820190508181035f83015261458681846144fb565b905092915050565b61459781613d38565b81146145a1575f80fd5b50565b5f813590506145b28161458e565b92915050565b5f602082840312156145cd576145cc613c12565b5b5f6145da848285016145a4565b91505092915050565b6145ec8161401b565b82525050565b5f81519050919050565b5f82825260208201905092915050565b5f819050602082019050919050565b5f614626838361404f565b60208301905092915050565b5f602082019050919050565b5f614648826145f2565b61465281856145fc565b935061465d8361460c565b805f5b8381101561468d578151614674888261461b565b975061467f83614632565b925050600181019050614660565b5085935050505092915050565b5f61010083015f8301516146b05f8601826145e3565b5060208301516146c3602086018261404f565b50604083015184820360408601526146db828261406e565b915050606083015184820360608601526146f5828261406e565b915050608083015161470a60808601826140a6565b5060a083015161471d60a0860182614170565b5060c083015184820360c0860152614735828261463e565b91505060e083015161474a60e086018261404f565b508091505092915050565b5f6020820190508181035f83015261476d818461469a565b905092915050565b5f67ffffffffffffffff82111561478f5761478e613e0a565b5b602082029050602081019050919050565b5f80fd5b5f6147b66147b184614775565b613e68565b905080838252602082019050602084028301858111156147d9576147d86147a0565b5b835b8181101561482057803567ffffffffffffffff8111156147fe576147fd613e02565b5b80860161480b8982613f01565b855260208501945050506020810190506147db565b5050509392505050565b5f82601f83011261483e5761483d613e02565b5b813561484e8482602086016147a4565b91505092915050565b5f805f805f805f60e0888a03121561487257614871613c12565b5b5f88013567ffffffffffffffff81111561488f5761488e613c16565b5b61489b8a828b01613f01565b975050602088013567ffffffffffffffff8111156148bc576148bb613c16565b5b6148c88a828b01613f01565b965050604088013567ffffffffffffffff8111156148e9576148e8613c16565b5b6148f58a828b01613f01565b955050606088013567ffffffffffffffff81111561491657614915613c16565b5b6149228a828b01613f01565b945050608088013567ffffffffffffffff81111561494357614942613c16565b5b61494f8a828b01613f01565b93505060a088013567ffffffffffffffff8111156149705761496f613c16565b5b61497c8a828b0161482a565b92505060c061498d8a828b016145a4565b91505092959891949750929550565b5f80604083850312156149b2576149b1613c12565b5b5f6149bf858286016145a4565b92505060206149d085828601613c60565b9150509250929050565b5f805f606084860312156149f1576149f0613c12565b5b5f84013567ffffffffffffffff811115614a0e57614a0d613c16565b5b614a1a86828701613f01565b935050602084013567ffffffffffffffff811115614a3b57614a3a613c16565b5b614a4786828701613f01565b9250506040614a58868287016145a4565b9150509250925092565b5f61010083015f830151614a785f86018261404f565b5060208301518482036020860152614a90828261406e565b91505060408301518482036040860152614aaa828261406e565b9150506060830151614abf60608601826140a6565b5060808301518482036080860152614ad7828261406e565b91505060a083015184820360a0860152614af1828261406e565b91505060c0830151614b0660c0860182614170565b5060e0830151614b1960e08601826140a6565b508091505092915050565b5f6020820190508181035f830152614b3c8184614a62565b905092915050565b5f602082019050614b575f830184613c9f565b92915050565b5f81519050919050565b5f82825260208201905092915050565b5f819050602082019050919050565b5f61010083015f830151614b9c5f8601826145e3565b506020830151614baf602086018261404f565b5060408301518482036040860152614bc7828261406e565b91505060608301518482036060860152614be1828261406e565b9150506080830151614bf660808601826140a6565b5060a0830151614c0960a0860182614170565b5060c083015184820360c0860152614c21828261463e565b91505060e0830151614c3660e086018261404f565b508091505092915050565b5f614c4c8383614b86565b905092915050565b5f602082019050919050565b5f614c6a82614b5d565b614c748185614b67565b935083602082028501614c8685614b77565b805f5b85811015614cc15784840389528151614ca28582614c41565b9450614cad83614c54565b925060208a01995050600181019050614c89565b50829750879550505050505092915050565b5f6020820190508181035f830152614ceb8184614c60565b905092915050565b5f8060408385031215614d0957614d08613c12565b5b5f614d1685828601613c60565b9250506020614d27858286016145a4565b9150509250929050565b7f4e487b71000000000000000000000000000000000000000000000000000000005f52602260045260245ffd5b5f6002820490506001821680614d7557607f821691505b602082108103614d8857614d87614d31565b5b50919050565b7f41520000000000000000000000000000000000000000000000000000000000005f82015250565b5f614dc2600283613cb8565b9150614dcd82614d8e565b602082019050919050565b5f6020820190508181035f830152614def81614db6565b9050919050565b7f4e487b71000000000000000000000000000000000000000000000000000000005f52601160045260245ffd5b5f614e2d82613d38565b91507fffffffffffffffffffffffffffffffffffffffffffffffffffffffffffffffff8203614e5f57614e5e614df6565b5b600182019050919050565b5f819050815f5260205f209050919050565b5f6020601f8301049050919050565b5f82821b905092915050565b5f60088302614ec67fffffffffffffffffffffffffffffffffffffffffffffffffffffffffffffffff82614e8b565b614ed08683614e8b565b95508019841693508086168417925050509392505050565b5f819050919050565b5f614f0b614f06614f0184613d38565b614ee8565b613d38565b9050919050565b5f819050919050565b614f2483614ef1565b614f38614f3082614f12565b848454614e97565b825550505050565b5f90565b614f4c614f40565b614f57818484614f1b565b505050565b5b81811015614f7a57614f6f5f82614f44565b600181019050614f5d565b5050565b601f821115614fbf57614f9081614e6a565b614f9984614e7c565b81016020851015614fa8578190505b614fbc614fb485614e7c565b830182614f5c565b50505b505050565b5f82821c905092915050565b5f614fdf5f1984600802614fc4565b1980831691505092915050565b5f614ff78383614fd0565b9150826002028217905092915050565b61501082613cae565b67ffffffffffffffff81111561502957615028613e0a565b5b6150338254614d5e565b61503e828285614f7e565b5f60209050601f83116001811461506f575f841561505d578287015190505b6150678582614fec565b8655506150ce565b601f19841661507d86614e6a565b5f5b828110156150a45784890151825560018201915060208501945060208101905061507f565b868310156150c157848901516150bd601f891682614fd0565b8355505b6001600288020188555050505b505050505050565b5f6040820190506150e95f830185613c9f565b81810360208301526150fb8184613d00565b90509392505050565b7f4e487b71000000000000000000000000000000000000000000000000000000005f52603260045260245ffd5b7f494a0000000000000000000000000000000000000000000000000000000000005f82015250565b5f615165600283613cb8565b915061517082615131565b602082019050919050565b5f6020820190508181035f83015261519281615159565b9050919050565b7f4a44452e000000000000000000000000000000000000000000000000000000005f82015250565b5f6151cd600483613cb8565b91506151d882615199565b602082019050919050565b5f6020820190508181035f8301526151fa816151c1565b9050919050565b7f4a414300000000000000000000000000000000000000000000000000000000005f82015250565b5f615235600383613cb8565b915061524082615201565b602082019050919050565b5f6020820190508181035f83015261526281615229565b9050919050565b7f49410000000000000000000000000000000000000000000000000000000000005f82015250565b5f61529d600283613cb8565b91506152a882615269565b602082019050919050565b5f6020820190508181035f8301526152ca81615291565b9050919050565b5f6152db82613d38565b91506152e683613d38565b92508282019050808211156152fe576152fd614df6565b5b92915050565b5f6060820190506153175f830186613d41565b6153246020830185613c9f565b6153316040830184613d41565b949350505050565b5f82825260208201905092915050565b5f615353826140b5565b61535d8185615339565b93508360208202850161536f856140cf565b805f5b858110156153aa578484038952815161538b85826140de565b9450615396836140f1565b925060208a01995050600181019050615372565b50829750879550505050505092915050565b5f6060820190506153cf5f830186613c9f565b81810360208301526153e18185615349565b90506153f06040830184613d41565b949350505050565b7f4f454600000000000000000000000000000000000000000000000000000000005f82015250565b5f61542c600383613cb8565b9150615437826153f8565b602082019050919050565b5f6020820190508181035f83015261545981615420565b9050919050565b7f4a444500000000000000000000000000000000000000000000000000000000005f82015250565b5f615494600383613cb8565b915061549f82615460565b602082019050919050565b5f6020820190508181035f8301526154c181615488565b9050919050565b7f4a4e4600000000000000000000000000000000000000000000000000000000005f82015250565b5f6154fc600383613cb8565b9150615507826154c8565b602082019050919050565b5f6020820190508181035f830152615529816154f0565b9050919050565b7f464e4800000000000000000000000000000000000000000000000000000000005f82015250565b5f615564600383613cb8565b915061556f82615530565b602082019050919050565b5f6020820190508181035f83015261559181615558565b9050919050565b5f6155a28261401b565b915060ff82036155b5576155b4614df6565b5b600182019050919050565b5f6155da6155d56155d08461401b565b614ee8565b613d38565b9050919050565b6155ea816155c0565b82525050565b5f6040820190506156035f8301856155e1565b81810360208301526156158184613d00565b90509392505050565b7f46414800000000000000000000000000000000000000000000000000000000005f82015250565b5f615652600383613cb8565b915061565d8261561e565b602082019050919050565b5f6020820190508181035f83015261567f81615646565b9050919050565b7f4f464600000000000000000000000000000000000000000000000000000000005f82015250565b5f6156ba600383613cb8565b91506156c582615686565b602082019050919050565b5f6020820190508181035f8301526156e7816156ae565b9050919050565b7f4e425700000000000000000000000000000000000000000000000000000000005f82015250565b5f615722600383613cb8565b915061572d826156ee565b602082019050919050565b5f6020820190508181035f83015261574f81615716565b9050919050565b5f81905092915050565b50565b5f61576e5f83615756565b915061577982615760565b5f82019050919050565b5f61578d82615763565b9150819050919050565b7f54460000000000000000000000000000000000000000000000000000000000005f82015250565b5f6157cb600283613cb8565b91506157d682615797565b602082019050919050565b5f6020820190508181035f8301526157f8816157bf565b9050919050565b5f6040820190506158125f830185613c9f565b61581f6020830184613d41565b9392505050565b7f4a4e4300000000000000000000000000000000000000000000000000000000005f82015250565b5f61585a600383613cb8565b915061586582615826565b602082019050919050565b5f6020820190508181035f8301526158878161584e565b9050919050565b7f4e464500000000000000000000000000000000000000000000000000000000005f82015250565b5f6158c2600383613cb8565b91506158cd8261588e565b602082019050919050565b5f6020820190508181035f8301526158ef816158b6565b9050919050565b7f49460000000000000000000000000000000000000000000000000000000000005f82015250565b5f61592a600283613cb8565b9150615935826158f6565b602082019050919050565b5f6020820190508181035f8301526159578161591e565b9050919050565b7f49412e00000000000000000000000000000000000000000000000000000000005f82015250565b5f615992600383613cb8565b915061599d8261595e565b602082019050919050565b5f6020820190508181035f8301526159bf81615986565b9050919050565b7f59484100000000000000000000000000000000000000000000000000000000005f82015250565b5f6159fa600383613cb8565b9150615a05826159c6565b602082019050919050565b5f6020820190508181035f830152615a27816159ee565b9050919050565b5f606082019050615a415f830186613d41565b615a4e6020830185613c9f565b615a5b6040830184613c9f565b94935050505056fea2646970667358221220bb712bd6ea8902dd2857f0e05f820abfa5090aa36c2912e4f0d7412672f9de6b64736f6c63430008140033",
  "devdoc": {
    "kind": "dev",
    "methods": {
      "allJobs()": {
        "returns": {
          "props": "props"
        }
      },
      "applyForJob(uint256)": {
        "params": {
          "jobId": ", job id"
        }
      },
      "completeJob(uint256,address)": {
        "params": {
          "jobId": ", @param freelancerAddress"
        }
      },
      "createJob(string,string,uint256)": {
        "params": {
          "_title": ", @param _description, @param _budget"
        }
      },
      "depositFunds(uint256)": {
        "params": {
          "jobId": ", job id"
        }
      },
      "getEmployerByAddress(address)": {
        "params": {
          "_employer": ", address"
        },
        "returns": {
          "props": "props"
        }
      },
      "getEmployerEscrow(address,uint256)": {
        "params": {
          "_employer": ", @param _job_id"
        },
        "returns": {
          "_0": "uint"
        }
      },
      "getFreelancerByAddress(address)": {
        "params": {
          "_freelancer": ", address"
        },
        "returns": {
          "props": "props"
        }
      },
      "getJobByID(uint256)": {
        "params": {
          "jobId": ", jobId"
        },
        "returns": {
          "props": "props"
        }
      },
      "hireFreelancer(uint256,address)": {
        "params": {
          "jobId": ", @param freelancerAddress"
        }
      },
      "registerEmployer(string,string,string,string)": {
        "params": {
          "_name": ", @param _industry"
        }
      },
      "registerFreelancer(string,string,string,string,string,string[],uint256)": {
        "params": {
          "_name": ", @param _skills"
        }
      },
      "releaseEscrow(uint256,address)": {
        "params": {
          "jobId": ", @param freelancerAddress"
        }
      }
    },
    "version": 1
  },
  "userdoc": {
    "kind": "user",
    "methods": {
      "allJobs()": {
        "notice": "retrieves all jobs"
      },
      "applyForJob(uint256)": {
        "notice": "job application"
      },
      "completeJob(uint256,address)": {
        "notice": "process job completion"
      },
      "createJob(string,string,uint256)": {
        "notice": "job creation and increment job count,"
      },
      "depositFunds(uint256)": {
        "notice": "process employer funds deposit for a specific job"
      },
      "getAllFreelancers()": {
        "notice": "return all freelancers"
      },
      "getEmployerByAddress(address)": {
        "notice": "retrieves employer by address"
      },
      "getEmployerEscrow(address,uint256)": {
        "notice": "retrieves employer escrow balance"
      },
      "getFreelancerByAddress(address)": {
        "notice": "retrieves freelancer by address"
      },
      "getJobByID(uint256)": {
        "notice": "retrieves job by ID"
      },
      "hireFreelancer(uint256,address)": {
        "notice": "hiring freelancer and check if freelancer is not already hired for the job"
      },
      "registerEmployer(string,string,string,string)": {
        "notice": "process employer registration"
      },
      "registerFreelancer(string,string,string,string,string,string[],uint256)": {
        "notice": "process freelancer registration"
      },
      "releaseEscrow(uint256,address)": {
        "notice": "release escrow fund after successful completion of the job"
      },
      "withdrawEarnings()": {
        "notice": "process funds withdrawal to the freelancer after successful completion of a job"
      }
    },
    "version": 1
  },
  "storageLayout": {
    "storage": [
      {
        "astId": 565,
        "contract": "contracts/Freelancer.sol:Dfreelancer",
        "label": "owner",
        "offset": 0,
        "slot": "0",
        "type": "t_address"
      },
      {
        "astId": 567,
        "contract": "contracts/Freelancer.sol:Dfreelancer",
        "label": "totalJobs",
        "offset": 20,
        "slot": "0",
        "type": "t_uint8"
      },
      {
        "astId": 569,
        "contract": "contracts/Freelancer.sol:Dfreelancer",
        "label": "totalFreelancers",
        "offset": 0,
        "slot": "1",
        "type": "t_uint256"
      },
      {
        "astId": 571,
        "contract": "contracts/Freelancer.sol:Dfreelancer",
        "label": "totalEmployers",
        "offset": 0,
        "slot": "2",
        "type": "t_uint256"
      },
      {
        "astId": 573,
        "contract": "contracts/Freelancer.sol:Dfreelancer",
        "label": "totalCompletedJobs",
        "offset": 0,
        "slot": "3",
        "type": "t_uint256"
      },
      {
        "astId": 576,
        "contract": "contracts/Freelancer.sol:Dfreelancer",
        "label": "allFreelancerAddresses",
        "offset": 0,
        "slot": "4",
        "type": "t_array(t_address)dyn_storage"
      },
      {
        "astId": 642,
        "contract": "contracts/Freelancer.sol:Dfreelancer",
        "label": "jobs",
        "offset": 0,
        "slot": "5",
        "type": "t_mapping(t_uint256,t_struct(Job)594_storage)"
      },
      {
        "astId": 647,
        "contract": "contracts/Freelancer.sol:Dfreelancer",
        "label": "freelancers",
        "offset": 0,
        "slot": "6",
        "type": "t_mapping(t_address,t_struct(Freelancer)620_storage)"
      },
      {
        "astId": 652,
        "contract": "contracts/Freelancer.sol:Dfreelancer",
        "label": "employers",
        "offset": 0,
        "slot": "7",
        "type": "t_mapping(t_address,t_struct(Employer)637_storage)"
      },
      {
        "astId": 658,
        "contract": "contracts/Freelancer.sol:Dfreelancer",
        "label": "escrowFunds",
        "offset": 0,
        "slot": "8",
        "type": "t_mapping(t_address,t_mapping(t_uint256,t_uint256))"
      }
    ],
    "types": {
      "t_address": {
        "encoding": "inplace",
        "label": "address",
        "numberOfBytes": "20"
      },
      "t_array(t_address)dyn_storage": {
        "base": "t_address",
        "encoding": "dynamic_array",
        "label": "address[]",
        "numberOfBytes": "32"
      },
      "t_array(t_string_storage)dyn_storage": {
        "base": "t_string_storage",
        "encoding": "dynamic_array",
        "label": "string[]",
        "numberOfBytes": "32"
      },
      "t_bool": {
        "encoding": "inplace",
        "label": "bool",
        "numberOfBytes": "1"
      },
      "t_mapping(t_address,t_mapping(t_uint256,t_uint256))": {
        "encoding": "mapping",
        "key": "t_address",
        "label": "mapping(address => mapping(uint256 => uint256))",
        "numberOfBytes": "32",
        "value": "t_mapping(t_uint256,t_uint256)"
      },
      "t_mapping(t_address,t_struct(Employer)637_storage)": {
        "encoding": "mapping",
        "key": "t_address",
        "label": "mapping(address => struct Djob.Employer)",
        "numberOfBytes": "32",
        "value": "t_struct(Employer)637_storage"
      },
      "t_mapping(t_address,t_struct(Freelancer)620_storage)": {
        "encoding": "mapping",
        "key": "t_address",
        "label": "mapping(address => struct Djob.Freelancer)",
        "numberOfBytes": "32",
        "value": "t_struct(Freelancer)620_storage"
      },
      "t_mapping(t_uint256,t_struct(Job)594_storage)": {
        "encoding": "mapping",
        "key": "t_uint256",
        "label": "mapping(uint256 => struct Djob.Job)",
        "numberOfBytes": "32",
        "value": "t_struct(Job)594_storage"
      },
      "t_mapping(t_uint256,t_uint256)": {
        "encoding": "mapping",
        "key": "t_uint256",
        "label": "mapping(uint256 => uint256)",
        "numberOfBytes": "32",
        "value": "t_uint256"
      },
      "t_string_storage": {
        "encoding": "bytes",
        "label": "string",
        "numberOfBytes": "32"
      },
      "t_struct(Employer)637_storage": {
        "encoding": "inplace",
        "label": "struct Djob.Employer",
        "members": [
          {
            "astId": 622,
            "contract": "contracts/Freelancer.sol:Dfreelancer",
            "label": "employerAddress",
            "offset": 0,
            "slot": "0",
            "type": "t_address"
          },
          {
            "astId": 624,
            "contract": "contracts/Freelancer.sol:Dfreelancer",
            "label": "name",
            "offset": 0,
            "slot": "1",
            "type": "t_string_storage"
          },
          {
            "astId": 626,
            "contract": "contracts/Freelancer.sol:Dfreelancer",
            "label": "industry",
            "offset": 0,
            "slot": "2",
            "type": "t_string_storage"
          },
          {
            "astId": 628,
            "contract": "contracts/Freelancer.sol:Dfreelancer",
            "label": "balance",
            "offset": 0,
            "slot": "3",
            "type": "t_uint256"
          },
          {
            "astId": 630,
            "contract": "contracts/Freelancer.sol:Dfreelancer",
            "label": "country",
            "offset": 0,
            "slot": "4",
            "type": "t_string_storage"
          },
          {
            "astId": 632,
            "contract": "contracts/Freelancer.sol:Dfreelancer",
            "label": "image",
            "offset": 0,
            "slot": "5",
            "type": "t_string_storage"
          },
          {
            "astId": 634,
            "contract": "contracts/Freelancer.sol:Dfreelancer",
            "label": "registered",
            "offset": 0,
            "slot": "6",
            "type": "t_bool"
          },
          {
            "astId": 636,
            "contract": "contracts/Freelancer.sol:Dfreelancer",
            "label": "registration_date",
            "offset": 0,
            "slot": "7",
            "type": "t_uint256"
          }
        ],
        "numberOfBytes": "256"
      },
      "t_struct(Freelancer)620_storage": {
        "encoding": "inplace",
        "label": "struct Djob.Freelancer",
        "members": [
          {
            "astId": 596,
            "contract": "contracts/Freelancer.sol:Dfreelancer",
            "label": "freelancerAddress",
            "offset": 0,
            "slot": "0",
            "type": "t_address"
          },
          {
            "astId": 598,
            "contract": "contracts/Freelancer.sol:Dfreelancer",
            "label": "name",
            "offset": 0,
            "slot": "1",
            "type": "t_string_storage"
          },
          {
            "astId": 600,
            "contract": "contracts/Freelancer.sol:Dfreelancer",
            "label": "skills",
            "offset": 0,
            "slot": "2",
            "type": "t_string_storage"
          },
          {
            "astId": 602,
            "contract": "contracts/Freelancer.sol:Dfreelancer",
            "label": "balance",
            "offset": 0,
            "slot": "3",
            "type": "t_uint256"
          },
          {
            "astId": 604,
            "contract": "contracts/Freelancer.sol:Dfreelancer",
            "label": "country",
            "offset": 0,
            "slot": "4",
            "type": "t_string_storage"
          },
          {
            "astId": 606,
            "contract": "contracts/Freelancer.sol:Dfreelancer",
            "label": "gigTitle",
            "offset": 0,
            "slot": "5",
            "type": "t_string_storage"
          },
          {
            "astId": 608,
            "contract": "contracts/Freelancer.sol:Dfreelancer",
            "label": "gitDescription",
            "offset": 0,
            "slot": "6",
            "type": "t_string_storage"
          },
          {
            "astId": 611,
            "contract": "contracts/Freelancer.sol:Dfreelancer",
            "label": "images",
            "offset": 0,
            "slot": "7",
            "type": "t_array(t_string_storage)dyn_storage"
          },
          {
            "astId": 613,
            "contract": "contracts/Freelancer.sol:Dfreelancer",
            "label": "jobsCompleted",
            "offset": 0,
            "slot": "8",
            "type": "t_uint256"
          },
          {
            "astId": 615,
            "contract": "contracts/Freelancer.sol:Dfreelancer",
            "label": "registered",
            "offset": 0,
            "slot": "9",
            "type": "t_bool"
          },
          {
            "astId": 617,
            "contract": "contracts/Freelancer.sol:Dfreelancer",
            "label": "registration_date",
            "offset": 0,
            "slot": "10",
            "type": "t_uint256"
          },
          {
            "astId": 619,
            "contract": "contracts/Freelancer.sol:Dfreelancer",
            "label": "starting_price",
            "offset": 0,
            "slot": "11",
            "type": "t_uint256"
          }
        ],
        "numberOfBytes": "384"
      },
      "t_struct(Job)594_storage": {
        "encoding": "inplace",
        "label": "struct Djob.Job",
        "members": [
          {
            "astId": 578,
            "contract": "contracts/Freelancer.sol:Dfreelancer",
            "label": "id",
            "offset": 0,
            "slot": "0",
            "type": "t_uint8"
          },
          {
            "astId": 580,
            "contract": "contracts/Freelancer.sol:Dfreelancer",
            "label": "employer",
            "offset": 1,
            "slot": "0",
            "type": "t_address"
          },
          {
            "astId": 582,
            "contract": "contracts/Freelancer.sol:Dfreelancer",
            "label": "title",
            "offset": 0,
            "slot": "1",
            "type": "t_string_storage"
          },
          {
            "astId": 584,
            "contract": "contracts/Freelancer.sol:Dfreelancer",
            "label": "description",
            "offset": 0,
            "slot": "2",
            "type": "t_string_storage"
          },
          {
            "astId": 586,
            "contract": "contracts/Freelancer.sol:Dfreelancer",
            "label": "budget",
            "offset": 0,
            "slot": "3",
            "type": "t_uint256"
          },
          {
            "astId": 588,
            "contract": "contracts/Freelancer.sol:Dfreelancer",
            "label": "completed",
            "offset": 0,
            "slot": "4",
            "type": "t_bool"
          },
          {
            "astId": 591,
            "contract": "contracts/Freelancer.sol:Dfreelancer",
            "label": "applicants",
            "offset": 0,
            "slot": "5",
            "type": "t_array(t_address)dyn_storage"
          },
          {
            "astId": 593,
            "contract": "contracts/Freelancer.sol:Dfreelancer",
            "label": "hiredFreelancer",
            "offset": 0,
            "slot": "6",
            "type": "t_address"
          }
        ],
        "numberOfBytes": "224"
      },
      "t_uint256": {
        "encoding": "inplace",
        "label": "uint256",
        "numberOfBytes": "32"
      },
      "t_uint8": {
        "encoding": "inplace",
        "label": "uint8",
        "numberOfBytes": "1"
      }
    }
  }
}