{
  "address": "0x5FbDB2315678afecb367f032d93F642f64180aa3",
  "abi": [
    {
      "anonymous": false,
      "inputs": [
        {
          "indexed": false,
          "internalType": "uint256",
          "name": "jobId",
          "type": "uint256"
        },
        {
          "indexed": false,
          "internalType": "address",
          "name": "employerAddress",
          "type": "address"
        },
        {
          "indexed": false,
          "internalType": "address",
          "name": "freelancerAddress",
          "type": "address"
        }
      ],
      "name": "AppliedForJob",
      "type": "event"
    },
    {
      "anonymous": false,
      "inputs": [
        {
          "indexed": false,
          "internalType": "address",
          "name": "EmployerAddress",
          "type": "address"
        },
        {
          "indexed": false,
          "internalType": "string",
          "name": "name",
          "type": "string"
        }
      ],
      "name": "EmployerRegistered",
      "type": "event"
    },
    {
      "anonymous": false,
      "inputs": [
        {
          "indexed": false,
          "internalType": "address",
          "name": "freelancerAddress",
          "type": "address"
        },
        {
          "indexed": false,
          "internalType": "string",
          "name": "name",
          "type": "string"
        }
      ],
      "name": "FreelancerRegistered",
      "type": "event"
    },
    {
      "anonymous": false,
      "inputs": [
        {
          "indexed": false,
          "internalType": "uint256",
          "name": "jobId",
          "type": "uint256"
        },
        {
          "indexed": false,
          "internalType": "address",
          "name": "sender",
          "type": "address"
        },
        {
          "indexed": false,
          "internalType": "uint256",
          "name": "amount",
          "type": "uint256"
        }
      ],
      "name": "FundsDeposited",
      "type": "event"
    },
    {
      "anonymous": false,
      "inputs": [
        {
          "indexed": false,
          "internalType": "uint256",
          "name": "jobId",
          "type": "uint256"
        },
        {
          "indexed": false,
          "internalType": "address",
          "name": "freelancerAddress",
          "type": "address"
        },
        {
          "indexed": false,
          "internalType": "uint256",
          "name": "amount",
          "type": "uint256"
        }
      ],
      "name": "FundsReleased",
      "type": "event"
    },
    {
      "anonymous": false,
      "inputs": [
        {
          "indexed": false,
          "internalType": "uint256",
          "name": "jobId",
          "type": "uint256"
        },
        {
          "indexed": false,
          "internalType": "address",
          "name": "freelancerAddress",
          "type": "address"
        },
        {
          "indexed": false,
          "internalType": "uint256",
          "name": "payment",
          "type": "uint256"
        }
      ],
      "name": "JobCompleted",
      "type": "event"
    },
    {
      "anonymous": false,
      "inputs": [
        {
          "indexed": false,
          "internalType": "uint256",
          "name": "jobId",
          "type": "uint256"
        },
        {
          "indexed": false,
          "internalType": "string",
          "name": "title",
          "type": "string"
        }
      ],
      "name": "JobCreated",
      "type": "event"
    },
    {
      "anonymous": false,
      "inputs": [
        {
          "indexed": false,
          "internalType": "address",
          "name": "freelancer",
          "type": "address"
        },
        {
          "indexed": false,
          "internalType": "uint256",
          "name": "amount",
          "type": "uint256"
        }
      ],
      "name": "WithdrawFund",
      "type": "event"
    },
    {
      "inputs": [
        {
          "internalType": "uint256",
          "name": "",
          "type": "uint256"
        }
      ],
      "name": "allFreelancerAddresses",
      "outputs": [
        {
          "internalType": "address",
          "name": "",
          "type": "address"
        }
      ],
      "stateMutability": "view",
      "type": "function"
    },
    {
      "inputs": [],
      "name": "allJobs",
      "outputs": [
        {
          "components": [
            {
              "internalType": "uint8",
              "name": "id",
              "type": "uint8"
            },
            {
              "internalType": "address",
              "name": "employer",
              "type": "address"
            },
            {
              "internalType": "string",
              "name": "title",
              "type": "string"
            },
            {
              "internalType": "string",
              "name": "description",
              "type": "string"
            },
            {
              "internalType": "uint256",
              "name": "budget",
              "type": "uint256"
            },
            {
              "internalType": "bool",
              "name": "completed",
              "type": "bool"
            },
            {
              "internalType": "address[]",
              "name": "applicants",
              "type": "address[]"
            },
            {
              "internalType": "address",
              "name": "hiredFreelancer",
              "type": "address"
            }
          ],
          "internalType": "struct Djob.Job[]",
          "name": "props",
          "type": "tuple[]"
        }
      ],
      "stateMutability": "view",
      "type": "function"
    },
    {
      "inputs": [
        {
          "internalType": "uint256",
          "name": "jobId",
          "type": "uint256"
        }
      ],
      "name": "applyForJob",
      "outputs": [],
      "stateMutability": "nonpayable",
      "type": "function"
    },
    {
      "inputs": [
        {
          "internalType": "uint256",
          "name": "jobId",
          "type": "uint256"
        },
        {
          "internalType": "address",
          "name": "freelancerAddress",
          "type": "address"
        }
      ],
      "name": "completeJob",
      "outputs": [],
      "stateMutability": "nonpayable",
      "type": "function"
    },
    {
      "inputs": [
        {
          "internalType": "string",
          "name": "_title",
          "type": "string"
        },
        {
          "internalType": "string",
          "name": "_description",
          "type": "string"
        },
        {
          "internalType": "uint256",
          "name": "_budget",
          "type": "uint256"
        }
      ],
      "name": "createJob",
      "outputs": [],
      "stateMutability": "nonpayable",
      "type": "function"
    },
    {
      "inputs": [
        {
          "internalType": "uint256",
          "name": "jobId",
          "type": "uint256"
        }
      ],
      "name": "depositFunds",
      "outputs": [],
      "stateMutability": "payable",
      "type": "function"
    },
    {
      "inputs": [
        {
          "internalType": "address",
          "name": "",
          "type": "address"
        }
      ],
      "name": "employers",
      "outputs": [
        {
          "internalType": "address",
          "name": "employerAddress",
          "type": "address"
        },
        {
          "internalType": "string",
          "name": "name",
          "type": "string"
        },
        {
          "internalType": "string",
          "name": "industry",
          "type": "string"
        },
        {
          "internalType": "uint256",
          "name": "balance",
          "type": "uint256"
        },
        {
          "internalType": "string",
          "name": "country",
          "type": "string"
        },
        {
          "internalType": "string",
          "name": "image",
          "type": "string"
        },
        {
          "internalType": "bool",
          "name": "registered",
          "type": "bool"
        },
        {
          "internalType": "string",
          "name": "registration_date",
          "type": "string"
        }
      ],
      "stateMutability": "view",
      "type": "function"
    },
    {
      "inputs": [
        {
          "internalType": "address",
          "name": "",
          "type": "address"
        }
      ],
      "name": "freelancers",
      "outputs": [
        {
          "internalType": "address",
          "name": "freelancerAddress",
          "type": "address"
        },
        {
          "internalType": "string",
          "name": "name",
          "type": "string"
        },
        {
          "internalType": "string",
          "name": "skills",
          "type": "string"
        },
        {
          "internalType": "uint256",
          "name": "balance",
          "type": "uint256"
        },
        {
          "internalType": "string",
          "name": "country",
          "type": "string"
        },
        {
          "internalType": "string",
          "name": "image",
          "type": "string"
        },
        {
          "internalType": "string",
          "name": "gigTitle",
          "type": "string"
        },
        {
          "internalType": "string",
          "name": "gitDescription",
          "type": "string"
        },
        {
          "internalType": "uint256",
          "name": "jobsCompleted",
          "type": "uint256"
        },
        {
          "internalType": "bool",
          "name": "registered",
          "type": "bool"
        },
        {
          "internalType": "string",
          "name": "registration_date",
          "type": "string"
        },
        {
          "internalType": "string",
          "name": "starting_price",
          "type": "string"
        }
      ],
      "stateMutability": "view",
      "type": "function"
    },
    {
      "inputs": [],
      "name": "getAllFreelancers",
      "outputs": [
        {
          "components": [
            {
              "internalType": "address",
              "name": "freelancerAddress",
              "type": "address"
            },
            {
              "internalType": "string",
              "name": "name",
              "type": "string"
            },
            {
              "internalType": "string",
              "name": "skills",
              "type": "string"
            },
            {
              "internalType": "uint256",
              "name": "balance",
              "type": "uint256"
            },
            {
              "internalType": "string",
              "name": "country",
              "type": "string"
            },
            {
              "internalType": "string",
              "name": "image",
              "type": "string"
            },
            {
              "internalType": "string",
              "name": "gigTitle",
              "type": "string"
            },
            {
              "internalType": "string",
              "name": "gitDescription",
              "type": "string"
            },
            {
              "internalType": "uint256",
              "name": "jobsCompleted",
              "type": "uint256"
            },
            {
              "internalType": "bool",
              "name": "registered",
              "type": "bool"
            },
            {
              "internalType": "string",
              "name": "registration_date",
              "type": "string"
            },
            {
              "internalType": "string",
              "name": "starting_price",
              "type": "string"
            }
          ],
          "internalType": "struct Djob.Freelancer[]",
          "name": "",
          "type": "tuple[]"
        }
      ],
      "stateMutability": "view",
      "type": "function"
    },
    {
      "inputs": [
        {
          "internalType": "address",
          "name": "_employer",
          "type": "address"
        }
      ],
      "name": "getEmployerByAddress",
      "outputs": [
        {
          "components": [
            {
              "internalType": "address",
              "name": "employerAddress",
              "type": "address"
            },
            {
              "internalType": "string",
              "name": "name",
              "type": "string"
            },
            {
              "internalType": "string",
              "name": "industry",
              "type": "string"
            },
            {
              "internalType": "uint256",
              "name": "balance",
              "type": "uint256"
            },
            {
              "internalType": "string",
              "name": "country",
              "type": "string"
            },
            {
              "internalType": "string",
              "name": "image",
              "type": "string"
            },
            {
              "internalType": "bool",
              "name": "registered",
              "type": "bool"
            },
            {
              "internalType": "string",
              "name": "registration_date",
              "type": "string"
            }
          ],
          "internalType": "struct Djob.Employer",
          "name": "props",
          "type": "tuple"
        }
      ],
      "stateMutability": "view",
      "type": "function"
    },
    {
      "inputs": [
        {
          "internalType": "address",
          "name": "_employer",
          "type": "address"
        },
        {
          "internalType": "uint256",
          "name": "_job_id",
          "type": "uint256"
        }
      ],
      "name": "getEmployerEscrow",
      "outputs": [
        {
          "internalType": "uint256",
          "name": "",
          "type": "uint256"
        }
      ],
      "stateMutability": "view",
      "type": "function"
    },
    {
      "inputs": [
        {
          "internalType": "address",
          "name": "_freelancer",
          "type": "address"
        }
      ],
      "name": "getFreelancerByAddress",
      "outputs": [
        {
          "components": [
            {
              "internalType": "address",
              "name": "freelancerAddress",
              "type": "address"
            },
            {
              "internalType": "string",
              "name": "name",
              "type": "string"
            },
            {
              "internalType": "string",
              "name": "skills",
              "type": "string"
            },
            {
              "internalType": "uint256",
              "name": "balance",
              "type": "uint256"
            },
            {
              "internalType": "string",
              "name": "country",
              "type": "string"
            },
            {
              "internalType": "string",
              "name": "image",
              "type": "string"
            },
            {
              "internalType": "string",
              "name": "gigTitle",
              "type": "string"
            },
            {
              "internalType": "string",
              "name": "gitDescription",
              "type": "string"
            },
            {
              "internalType": "uint256",
              "name": "jobsCompleted",
              "type": "uint256"
            },
            {
              "internalType": "bool",
              "name": "registered",
              "type": "bool"
            },
            {
              "internalType": "string",
              "name": "registration_date",
              "type": "string"
            },
            {
              "internalType": "string",
              "name": "starting_price",
              "type": "string"
            }
          ],
          "internalType": "struct Djob.Freelancer",
          "name": "props",
          "type": "tuple"
        }
      ],
      "stateMutability": "view",
      "type": "function"
    },
    {
      "inputs": [
        {
          "internalType": "uint256",
          "name": "jobId",
          "type": "uint256"
        }
      ],
      "name": "getJobByID",
      "outputs": [
        {
          "components": [
            {
              "internalType": "uint8",
              "name": "id",
              "type": "uint8"
            },
            {
              "internalType": "address",
              "name": "employer",
              "type": "address"
            },
            {
              "internalType": "string",
              "name": "title",
              "type": "string"
            },
            {
              "internalType": "string",
              "name": "description",
              "type": "string"
            },
            {
              "internalType": "uint256",
              "name": "budget",
              "type": "uint256"
            },
            {
              "internalType": "bool",
              "name": "completed",
              "type": "bool"
            },
            {
              "internalType": "address[]",
              "name": "applicants",
              "type": "address[]"
            },
            {
              "internalType": "address",
              "name": "hiredFreelancer",
              "type": "address"
            }
          ],
          "internalType": "struct Djob.Job",
          "name": "props",
          "type": "tuple"
        }
      ],
      "stateMutability": "view",
      "type": "function"
    },
    {
      "inputs": [
        {
          "internalType": "uint256",
          "name": "jobId",
          "type": "uint256"
        },
        {
          "internalType": "address",
          "name": "freelancerAddress",
          "type": "address"
        }
      ],
      "name": "hireFreelancer",
      "outputs": [],
      "stateMutability": "nonpayable",
      "type": "function"
    },
    {
      "inputs": [],
      "name": "owner",
      "outputs": [
        {
          "internalType": "address",
          "name": "",
          "type": "address"
        }
      ],
      "stateMutability": "view",
      "type": "function"
    },
    {
      "inputs": [
        {
          "internalType": "string",
          "name": "_name",
          "type": "string"
        },
        {
          "internalType": "string",
          "name": "_industry",
          "type": "string"
        },
        {
          "internalType": "string",
          "name": "_country",
          "type": "string"
        },
        {
          "internalType": "string",
          "name": "_imageURI",
          "type": "string"
        },
        {
          "internalType": "string",
          "name": "_date",
          "type": "string"
        }
      ],
      "name": "registerEmployer",
      "outputs": [],
      "stateMutability": "nonpayable",
      "type": "function"
    },
    {
      "inputs": [
        {
          "internalType": "string",
          "name": "_name",
          "type": "string"
        },
        {
          "internalType": "string",
          "name": "_skills",
          "type": "string"
        },
        {
          "internalType": "string",
          "name": "_country",
          "type": "string"
        },
        {
          "internalType": "string",
          "name": "_imageURI",
          "type": "string"
        },
        {
          "internalType": "string",
          "name": "_gigTitle",
          "type": "string"
        },
        {
          "internalType": "string",
          "name": "_gigDesc",
          "type": "string"
        },
        {
          "internalType": "string",
          "name": "_date",
          "type": "string"
        },
        {
          "internalType": "string",
          "name": "_starting_price",
          "type": "string"
        }
      ],
      "name": "registerFreelancer",
      "outputs": [],
      "stateMutability": "nonpayable",
      "type": "function"
    },
    {
      "inputs": [
        {
          "internalType": "uint256",
          "name": "jobId",
          "type": "uint256"
        },
        {
          "internalType": "address",
          "name": "freelancerAddress",
          "type": "address"
        }
      ],
      "name": "releaseEscrow",
      "outputs": [],
      "stateMutability": "nonpayable",
      "type": "function"
    },
    {
      "inputs": [],
      "name": "totalCompletedJobs",
      "outputs": [
        {
          "internalType": "uint256",
          "name": "",
          "type": "uint256"
        }
      ],
      "stateMutability": "view",
      "type": "function"
    },
    {
      "inputs": [],
      "name": "totalEmployers",
      "outputs": [
        {
          "internalType": "uint256",
          "name": "",
          "type": "uint256"
        }
      ],
      "stateMutability": "view",
      "type": "function"
    },
    {
      "inputs": [],
      "name": "totalFreelancers",
      "outputs": [
        {
          "internalType": "uint256",
          "name": "",
          "type": "uint256"
        }
      ],
      "stateMutability": "view",
      "type": "function"
    },
    {
      "inputs": [],
      "name": "totalJobs",
      "outputs": [
        {
          "internalType": "uint8",
          "name": "",
          "type": "uint8"
        }
      ],
      "stateMutability": "view",
      "type": "function"
    },
    {
      "inputs": [],
      "name": "withdrawEarnings",
      "outputs": [],
      "stateMutability": "nonpayable",
      "type": "function"
    }
  ],
  "transactionHash": "0xc541ba7993a7c15b82e2e1d71843dd2e6458f83f3f8c19353119ae13535a479f",
  "args": [],
  "numDeployments": 1,
  "solcInputHash": "62ca670dba9b63ceccbb2ab7513fba07",
  "bytecode": "0x608060405234801561001057600080fd5b50336000806101000a81548173ffffffffffffffffffffffffffffffffffffffff021916908373ffffffffffffffffffffffffffffffffffffffff160217905550615ecd80620000616000396000f3fe6080604052600436106101405760003560e01c80636a6b67d1116100b6578063b73c6ce91161006f578063b73c6ce914610473578063c27a9dd41461048a578063c6cb3bbe146104c7578063c8d1b6aa146104f0578063dfac8ce51461051b578063e0c94ae51461055857610140565b80636a6b67d1146103675780636b365e7c1461039057806373a06f42146103b95780637a787125146103e25780638da5cb5b1461041f578063b0f26f181461044a57610140565b806321bd66931161010857806321bd669314610247578063359b248c1461028f578063371ae9f4146102ba5780633b76594d146102f75780635e586eb114610313578063606db3351461033e57610140565b80630be435bd146101455780631033397b146101895780631906b4ce146101b45780631ace87b3146101df5780631c7af7a01461020a575b600080fd5b34801561015157600080fd5b5061016c60048036038101906101679190614165565b610581565b604051610180989796959493929190614265565b60405180910390f35b34801561019557600080fd5b5061019e61089e565b6040516101ab9190614306565b60405180910390f35b3480156101c057600080fd5b506101c96108a4565b6040516101d69190614306565b60405180910390f35b3480156101eb57600080fd5b506101f46108aa565b604051610201919061433d565b60405180910390f35b34801561021657600080fd5b50610231600480360381019061022c9190614165565b6108bd565b60405161023e9190614504565b60405180910390f35b34801561025357600080fd5b5061026e60048036038101906102699190614165565b610e2c565b6040516102869c9b9a99989796959493929190614526565b60405180910390f35b34801561029b57600080fd5b506102a46112f9565b6040516102b1919061480f565b60405180910390f35b3480156102c657600080fd5b506102e160048036038101906102dc919061485d565b611939565b6040516102ee9190614a06565b60405180910390f35b610311600480360381019061030c919061485d565b611c68565b005b34801561031f57600080fd5b50610328611eda565b6040516103359190614306565b60405180910390f35b34801561034a57600080fd5b5061036560048036038101906103609190614b5d565b611ee0565b005b34801561037357600080fd5b5061038e60048036038101906103899190614cf3565b61222e565b005b34801561039c57600080fd5b506103b760048036038101906103b29190614d33565b61252b565b005b3480156103c557600080fd5b506103e060048036038101906103db9190614e3a565b6127aa565b005b3480156103ee57600080fd5b5061040960048036038101906104049190614165565b612af7565b6040516104169190614f91565b60405180910390f35b34801561042b57600080fd5b50610434612ea6565b6040516104419190614fb3565b60405180910390f35b34801561045657600080fd5b50610471600480360381019061046c9190614cf3565b612eca565b005b34801561047f57600080fd5b50610488613139565b005b34801561049657600080fd5b506104b160048036038101906104ac919061485d565b613392565b6040516104be9190614fb3565b60405180910390f35b3480156104d357600080fd5b506104ee60048036038101906104e99190614cf3565b6133d1565b005b3480156104fc57600080fd5b506105056137a7565b604051610512919061514e565b60405180910390f35b34801561052757600080fd5b50610542600480360381019061053d9190615170565b613b22565b60405161054f9190614306565b60405180910390f35b34801561056457600080fd5b5061057f600480360381019061057a919061485d565b613b7d565b005b60076020528060005260406000206000915090508060000160009054906101000a900473ffffffffffffffffffffffffffffffffffffffff16908060010180546105ca906151df565b80601f01602080910402602001604051908101604052809291908181526020018280546105f6906151df565b80156106435780601f1061061857610100808354040283529160200191610643565b820191906000526020600020905b81548152906001019060200180831161062657829003601f168201915b505050505090806002018054610658906151df565b80601f0160208091040260200160405190810160405280929190818152602001828054610684906151df565b80156106d15780601f106106a6576101008083540402835291602001916106d1565b820191906000526020600020905b8154815290600101906020018083116106b457829003601f168201915b5050505050908060030154908060040180546106ec906151df565b80601f0160208091040260200160405190810160405280929190818152602001828054610718906151df565b80156107655780601f1061073a57610100808354040283529160200191610765565b820191906000526020600020905b81548152906001019060200180831161074857829003601f168201915b50505050509080600501805461077a906151df565b80601f01602080910402602001604051908101604052809291908181526020018280546107a6906151df565b80156107f35780601f106107c8576101008083540402835291602001916107f3565b820191906000526020600020905b8154815290600101906020018083116107d657829003601f168201915b5050505050908060060160009054906101000a900460ff169080600701805461081b906151df565b80601f0160208091040260200160405190810160405280929190818152602001828054610847906151df565b80156108945780601f1061086957610100808354040283529160200191610894565b820191906000526020600020905b81548152906001019060200180831161087757829003601f168201915b5050505050905088565b60035481565b60025481565b600060149054906101000a900460ff1681565b6108c5613f00565b600660008373ffffffffffffffffffffffffffffffffffffffff1673ffffffffffffffffffffffffffffffffffffffff168152602001908152602001600020604051806101800160405290816000820160009054906101000a900473ffffffffffffffffffffffffffffffffffffffff1673ffffffffffffffffffffffffffffffffffffffff1673ffffffffffffffffffffffffffffffffffffffff168152602001600182018054610976906151df565b80601f01602080910402602001604051908101604052809291908181526020018280546109a2906151df565b80156109ef5780601f106109c4576101008083540402835291602001916109ef565b820191906000526020600020905b8154815290600101906020018083116109d257829003601f168201915b50505050508152602001600282018054610a08906151df565b80601f0160208091040260200160405190810160405280929190818152602001828054610a34906151df565b8015610a815780601f10610a5657610100808354040283529160200191610a81565b820191906000526020600020905b815481529060010190602001808311610a6457829003601f168201915b5050505050815260200160038201548152602001600482018054610aa4906151df565b80601f0160208091040260200160405190810160405280929190818152602001828054610ad0906151df565b8015610b1d5780601f10610af257610100808354040283529160200191610b1d565b820191906000526020600020905b815481529060010190602001808311610b0057829003601f168201915b50505050508152602001600582018054610b36906151df565b80601f0160208091040260200160405190810160405280929190818152602001828054610b62906151df565b8015610baf5780601f10610b8457610100808354040283529160200191610baf565b820191906000526020600020905b815481529060010190602001808311610b9257829003601f168201915b50505050508152602001600682018054610bc8906151df565b80601f0160208091040260200160405190810160405280929190818152602001828054610bf4906151df565b8015610c415780601f10610c1657610100808354040283529160200191610c41565b820191906000526020600020905b815481529060010190602001808311610c2457829003601f168201915b50505050508152602001600782018054610c5a906151df565b80601f0160208091040260200160405190810160405280929190818152602001828054610c86906151df565b8015610cd35780601f10610ca857610100808354040283529160200191610cd3565b820191906000526020600020905b815481529060010190602001808311610cb657829003601f168201915b50505050508152602001600882015481526020016009820160009054906101000a900460ff16151515158152602001600a82018054610d11906151df565b80601f0160208091040260200160405190810160405280929190818152602001828054610d3d906151df565b8015610d8a5780601f10610d5f57610100808354040283529160200191610d8a565b820191906000526020600020905b815481529060010190602001808311610d6d57829003601f168201915b50505050508152602001600b82018054610da3906151df565b80601f0160208091040260200160405190810160405280929190818152602001828054610dcf906151df565b8015610e1c5780601f10610df157610100808354040283529160200191610e1c565b820191906000526020600020905b815481529060010190602001808311610dff57829003601f168201915b5050505050815250509050919050565b60066020528060005260406000206000915090508060000160009054906101000a900473ffffffffffffffffffffffffffffffffffffffff1690806001018054610e75906151df565b80601f0160208091040260200160405190810160405280929190818152602001828054610ea1906151df565b8015610eee5780601f10610ec357610100808354040283529160200191610eee565b820191906000526020600020905b815481529060010190602001808311610ed157829003601f168201915b505050505090806002018054610f03906151df565b80601f0160208091040260200160405190810160405280929190818152602001828054610f2f906151df565b8015610f7c5780601f10610f5157610100808354040283529160200191610f7c565b820191906000526020600020905b815481529060010190602001808311610f5f57829003601f168201915b505050505090806003015490806004018054610f97906151df565b80601f0160208091040260200160405190810160405280929190818152602001828054610fc3906151df565b80156110105780601f10610fe557610100808354040283529160200191611010565b820191906000526020600020905b815481529060010190602001808311610ff357829003601f168201915b505050505090806005018054611025906151df565b80601f0160208091040260200160405190810160405280929190818152602001828054611051906151df565b801561109e5780601f106110735761010080835404028352916020019161109e565b820191906000526020600020905b81548152906001019060200180831161108157829003601f168201915b5050505050908060060180546110b3906151df565b80601f01602080910402602001604051908101604052809291908181526020018280546110df906151df565b801561112c5780601f106111015761010080835404028352916020019161112c565b820191906000526020600020905b81548152906001019060200180831161110f57829003601f168201915b505050505090806007018054611141906151df565b80601f016020809104026020016040519081016040528092919081815260200182805461116d906151df565b80156111ba5780601f1061118f576101008083540402835291602001916111ba565b820191906000526020600020905b81548152906001019060200180831161119d57829003601f168201915b5050505050908060080154908060090160009054906101000a900460ff169080600a0180546111e8906151df565b80601f0160208091040260200160405190810160405280929190818152602001828054611214906151df565b80156112615780601f1061123657610100808354040283529160200191611261565b820191906000526020600020905b81548152906001019060200180831161124457829003601f168201915b50505050509080600b018054611276906151df565b80601f01602080910402602001604051908101604052809291908181526020018280546112a2906151df565b80156112ef5780601f106112c4576101008083540402835291602001916112ef565b820191906000526020600020905b8154815290600101906020018083116112d257829003601f168201915b505050505090508c565b6060600060015467ffffffffffffffff81111561131957611318614a32565b5b60405190808252806020026020018201604052801561135257816020015b61133f613f00565b8152602001906001900390816113375790505b50905060005b60015481101561193157600660006004838154811061137a57611379615210565b5b9060005260206000200160009054906101000a900473ffffffffffffffffffffffffffffffffffffffff1673ffffffffffffffffffffffffffffffffffffffff1673ffffffffffffffffffffffffffffffffffffffff168152602001908152602001600020604051806101800160405290816000820160009054906101000a900473ffffffffffffffffffffffffffffffffffffffff1673ffffffffffffffffffffffffffffffffffffffff1673ffffffffffffffffffffffffffffffffffffffff168152602001600182018054611451906151df565b80601f016020809104026020016040519081016040528092919081815260200182805461147d906151df565b80156114ca5780601f1061149f576101008083540402835291602001916114ca565b820191906000526020600020905b8154815290600101906020018083116114ad57829003601f168201915b505050505081526020016002820180546114e3906151df565b80601f016020809104026020016040519081016040528092919081815260200182805461150f906151df565b801561155c5780601f106115315761010080835404028352916020019161155c565b820191906000526020600020905b81548152906001019060200180831161153f57829003601f168201915b505050505081526020016003820154815260200160048201805461157f906151df565b80601f01602080910402602001604051908101604052809291908181526020018280546115ab906151df565b80156115f85780601f106115cd576101008083540402835291602001916115f8565b820191906000526020600020905b8154815290600101906020018083116115db57829003601f168201915b50505050508152602001600582018054611611906151df565b80601f016020809104026020016040519081016040528092919081815260200182805461163d906151df565b801561168a5780601f1061165f5761010080835404028352916020019161168a565b820191906000526020600020905b81548152906001019060200180831161166d57829003601f168201915b505050505081526020016006820180546116a3906151df565b80601f01602080910402602001604051908101604052809291908181526020018280546116cf906151df565b801561171c5780601f106116f15761010080835404028352916020019161171c565b820191906000526020600020905b8154815290600101906020018083116116ff57829003601f168201915b50505050508152602001600782018054611735906151df565b80601f0160208091040260200160405190810160405280929190818152602001828054611761906151df565b80156117ae5780601f10611783576101008083540402835291602001916117ae565b820191906000526020600020905b81548152906001019060200180831161179157829003601f168201915b50505050508152602001600882015481526020016009820160009054906101000a900460ff16151515158152602001600a820180546117ec906151df565b80601f0160208091040260200160405190810160405280929190818152602001828054611818906151df565b80156118655780601f1061183a57610100808354040283529160200191611865565b820191906000526020600020905b81548152906001019060200180831161184857829003601f168201915b50505050508152602001600b8201805461187e906151df565b80601f01602080910402602001604051908101604052809291908181526020018280546118aa906151df565b80156118f75780601f106118cc576101008083540402835291602001916118f7565b820191906000526020600020905b8154815290600101906020018083116118da57829003601f168201915b50505050508152505082828151811061191357611912615210565b5b602002602001018190525080806119299061526e565b915050611358565b508091505090565b611941613f79565b6000821180156119635750600060149054906101000a900460ff1660ff168211155b6119a2576040517f08c379a000000000000000000000000000000000000000000000000000000000815260040161199990615302565b60405180910390fd5b60056000838152602001908152602001600020604051806101000160405290816000820160009054906101000a900460ff1660ff1660ff1681526020016000820160019054906101000a900473ffffffffffffffffffffffffffffffffffffffff1673ffffffffffffffffffffffffffffffffffffffff1673ffffffffffffffffffffffffffffffffffffffff168152602001600182018054611a44906151df565b80601f0160208091040260200160405190810160405280929190818152602001828054611a70906151df565b8015611abd5780601f10611a9257610100808354040283529160200191611abd565b820191906000526020600020905b815481529060010190602001808311611aa057829003601f168201915b50505050508152602001600282018054611ad6906151df565b80601f0160208091040260200160405190810160405280929190818152602001828054611b02906151df565b8015611b4f5780601f10611b2457610100808354040283529160200191611b4f565b820191906000526020600020905b815481529060010190602001808311611b3257829003601f168201915b50505050508152602001600382015481526020016004820160009054906101000a900460ff1615151515815260200160058201805480602002602001604051908101604052809291908181526020018280548015611c0257602002820191906000526020600020905b8160009054906101000a900473ffffffffffffffffffffffffffffffffffffffff1673ffffffffffffffffffffffffffffffffffffffff1681526020019060010190808311611bb8575b505050505081526020016006820160009054906101000a900473ffffffffffffffffffffffffffffffffffffffff1673ffffffffffffffffffffffffffffffffffffffff1673ffffffffffffffffffffffffffffffffffffffff16815250509050919050565b600060149054906101000a900460ff1660ff168111158015611c8a5750600081115b611cc9576040517f08c379a0000000000000000000000000000000000000000000000000000000008152600401611cc09061536e565b60405180910390fd5b60006005600083815260200190815260200160002090506000600760003373ffffffffffffffffffffffffffffffffffffffff1673ffffffffffffffffffffffffffffffffffffffff16815260200190815260200160002090503373ffffffffffffffffffffffffffffffffffffffff168260000160019054906101000a900473ffffffffffffffffffffffffffffffffffffffff1673ffffffffffffffffffffffffffffffffffffffff1614611d7f57600080fd5b8160040160009054906101000a900460ff1615611dd1576040517f08c379a0000000000000000000000000000000000000000000000000000000008152600401611dc8906153da565b60405180910390fd5b8160030154341015611e18576040517f08c379a0000000000000000000000000000000000000000000000000000000008152600401611e0f90615446565b60405180910390fd5b34816003016000828254611e2c9190615466565b9250508190555034600860003373ffffffffffffffffffffffffffffffffffffffff1673ffffffffffffffffffffffffffffffffffffffff16815260200190815260200160002060008581526020019081526020016000206000828254611e939190615466565b925050819055507fe030e47e27825a2ad1b19e4cf2e70bfbfb3124af275c7727a82b114ba7b29a85833334604051611ecd9392919061549a565b60405180910390a1505050565b60015481565b60001515600660003373ffffffffffffffffffffffffffffffffffffffff1673ffffffffffffffffffffffffffffffffffffffff16815260200190815260200160002060090160009054906101000a900460ff16151514611f76576040517f08c379a0000000000000000000000000000000000000000000000000000000008152600401611f6d9061551d565b60405180910390fd5b6000885111611f8457600080fd5b6000875111611f9257600080fd5b60016000815480929190611fa59061526e565b91905055506040518061018001604052803373ffffffffffffffffffffffffffffffffffffffff168152602001898152602001888152602001600081526020018781526020018681526020018581526020018481526020016000815260200160011515815260200183815260200182815250600660003373ffffffffffffffffffffffffffffffffffffffff1673ffffffffffffffffffffffffffffffffffffffff16815260200190815260200160002060008201518160000160006101000a81548173ffffffffffffffffffffffffffffffffffffffff021916908373ffffffffffffffffffffffffffffffffffffffff16021790555060208201518160010190816120b291906156e9565b5060408201518160020190816120c891906156e9565b506060820151816003015560808201518160040190816120e891906156e9565b5060a08201518160050190816120fe91906156e9565b5060c082015181600601908161211491906156e9565b5060e082015181600701908161212a91906156e9565b5061010082015181600801556101208201518160090160006101000a81548160ff02191690831515021790555061014082015181600a01908161216d91906156e9565b5061016082015181600b01908161218491906156e9565b509050506004339080600181540180825580915050600190039060005260206000200160009091909190916101000a81548173ffffffffffffffffffffffffffffffffffffffff021916908373ffffffffffffffffffffffffffffffffffffffff1602179055507f1700582be850ff71f6341c0e9768c45b03576a787f186451b51af237c29eab50338960405161221c9291906157bb565b60405180910390a15050505050505050565b338073ffffffffffffffffffffffffffffffffffffffff16600760003373ffffffffffffffffffffffffffffffffffffffff1673ffffffffffffffffffffffffffffffffffffffff16815260200190815260200160002060000160009054906101000a900473ffffffffffffffffffffffffffffffffffffffff1673ffffffffffffffffffffffffffffffffffffffff16146122ff576040517f08c379a00000000000000000000000000000000000000000000000000000000081526004016122f690615837565b60405180910390fd5b600060149054906101000a900460ff1660ff1683111580156123215750600083115b612360576040517f08c379a0000000000000000000000000000000000000000000000000000000008152600401612357906158a3565b60405180910390fd5b6000600560008581526020019081526020016000209050600073ffffffffffffffffffffffffffffffffffffffff168160000160019054906101000a900473ffffffffffffffffffffffffffffffffffffffff1673ffffffffffffffffffffffffffffffffffffffff160361240a576040517f08c379a00000000000000000000000000000000000000000000000000000000081526004016124019061590f565b60405180910390fd5b6124148184613e93565b612453576040517f08c379a000000000000000000000000000000000000000000000000000000000815260040161244a9061597b565b60405180910390fd5b60008160030154905060018260040160006101000a81548160ff0219169083151502179055506003600081548092919061248c9061526e565b9190505550600660008573ffffffffffffffffffffffffffffffffffffffff1673ffffffffffffffffffffffffffffffffffffffff16815260200190815260200160002060080160008154809291906124e49061526e565b91905055507f4dbba472101e9f148a3a5ecbe793f0ee16a7efe4bf3f8cbfab5330e1642ef95585858360405161251c9392919061549a565b60405180910390a15050505050565b60001515600760003373ffffffffffffffffffffffffffffffffffffffff1673ffffffffffffffffffffffffffffffffffffffff16815260200190815260200160002060060160009054906101000a900460ff161515146125c1576040517f08c379a00000000000000000000000000000000000000000000000000000000081526004016125b89061551d565b60405180910390fd5b60008551116125cf57600080fd5b60008451116125dd57600080fd5b600260008154809291906125f09061526e565b91905055506040518061010001604052803373ffffffffffffffffffffffffffffffffffffffff1681526020018681526020018581526020016000815260200184815260200183815260200160011515815260200182815250600760003373ffffffffffffffffffffffffffffffffffffffff1673ffffffffffffffffffffffffffffffffffffffff16815260200190815260200160002060008201518160000160006101000a81548173ffffffffffffffffffffffffffffffffffffffff021916908373ffffffffffffffffffffffffffffffffffffffff16021790555060208201518160010190816126e491906156e9565b5060408201518160020190816126fa91906156e9565b5060608201518160030155608082015181600401908161271a91906156e9565b5060a082015181600501908161273091906156e9565b5060c08201518160060160006101000a81548160ff02191690831515021790555060e082015181600701908161276691906156e9565b509050507f6c0e8aabac6898602e5264c9a24b2394d9895a70bd2f4c44c8ca0fcfcec6477f338660405161279b9291906157bb565b60405180910390a15050505050565b338073ffffffffffffffffffffffffffffffffffffffff16600760003373ffffffffffffffffffffffffffffffffffffffff1673ffffffffffffffffffffffffffffffffffffffff16815260200190815260200160002060000160009054906101000a900473ffffffffffffffffffffffffffffffffffffffff1673ffffffffffffffffffffffffffffffffffffffff161461287b576040517f08c379a000000000000000000000000000000000000000000000000000000000815260040161287290615837565b60405180910390fd5b6000601481819054906101000a900460ff168092919061289a9061599b565b91906101000a81548160ff021916908360ff1602179055505060008060149054906101000a900460ff1690506040518061010001604052808260ff1681526020013373ffffffffffffffffffffffffffffffffffffffff168152602001868152602001858152602001848152602001600015158152602001600067ffffffffffffffff81111561292d5761292c614a32565b5b60405190808252806020026020018201604052801561295b5781602001602082028036833780820191505090505b508152602001600073ffffffffffffffffffffffffffffffffffffffff16815250600560008360ff16815260200190815260200160002060008201518160000160006101000a81548160ff021916908360ff16021790555060208201518160000160016101000a81548173ffffffffffffffffffffffffffffffffffffffff021916908373ffffffffffffffffffffffffffffffffffffffff1602179055506040820151816001019081612a0f91906156e9565b506060820151816002019081612a2591906156e9565b506080820151816003015560a08201518160040160006101000a81548160ff02191690831515021790555060c0820151816005019080519060200190612a6c929190613fef565b5060e08201518160060160006101000a81548173ffffffffffffffffffffffffffffffffffffffff021916908373ffffffffffffffffffffffffffffffffffffffff1602179055509050507fb63f0fdfb200b05c8b95fb4dcf8f8abd30f0b6884d532792e705afab4f37380a8186604051612ae89291906159f5565b60405180910390a15050505050565b612aff614079565b600760008373ffffffffffffffffffffffffffffffffffffffff1673ffffffffffffffffffffffffffffffffffffffff168152602001908152602001600020604051806101000160405290816000820160009054906101000a900473ffffffffffffffffffffffffffffffffffffffff1673ffffffffffffffffffffffffffffffffffffffff1673ffffffffffffffffffffffffffffffffffffffff168152602001600182018054612bb0906151df565b80601f0160208091040260200160405190810160405280929190818152602001828054612bdc906151df565b8015612c295780601f10612bfe57610100808354040283529160200191612c29565b820191906000526020600020905b815481529060010190602001808311612c0c57829003601f168201915b50505050508152602001600282018054612c42906151df565b80601f0160208091040260200160405190810160405280929190818152602001828054612c6e906151df565b8015612cbb5780601f10612c9057610100808354040283529160200191612cbb565b820191906000526020600020905b815481529060010190602001808311612c9e57829003601f168201915b5050505050815260200160038201548152602001600482018054612cde906151df565b80601f0160208091040260200160405190810160405280929190818152602001828054612d0a906151df565b8015612d575780601f10612d2c57610100808354040283529160200191612d57565b820191906000526020600020905b815481529060010190602001808311612d3a57829003601f168201915b50505050508152602001600582018054612d70906151df565b80601f0160208091040260200160405190810160405280929190818152602001828054612d9c906151df565b8015612de95780601f10612dbe57610100808354040283529160200191612de9565b820191906000526020600020905b815481529060010190602001808311612dcc57829003601f168201915b505050505081526020016006820160009054906101000a900460ff16151515158152602001600782018054612e1d906151df565b80601f0160208091040260200160405190810160405280929190818152602001828054612e49906151df565b8015612e965780601f10612e6b57610100808354040283529160200191612e96565b820191906000526020600020905b815481529060010190602001808311612e7957829003601f168201915b5050505050815250509050919050565b60008054906101000a900473ffffffffffffffffffffffffffffffffffffffff1681565b338073ffffffffffffffffffffffffffffffffffffffff16600760003373ffffffffffffffffffffffffffffffffffffffff1673ffffffffffffffffffffffffffffffffffffffff16815260200190815260200160002060000160009054906101000a900473ffffffffffffffffffffffffffffffffffffffff1673ffffffffffffffffffffffffffffffffffffffff1614612f9b576040517f08c379a0000000000000000000000000000000000000000000000000000000008152600401612f9290615837565b60405180910390fd5b600060149054906101000a900460ff1660ff168311158015612fbd5750600083115b612ffc576040517f08c379a0000000000000000000000000000000000000000000000000000000008152600401612ff39061536e565b60405180910390fd5b6000600560008581526020019081526020016000209050600073ffffffffffffffffffffffffffffffffffffffff168160000160019054906101000a900473ffffffffffffffffffffffffffffffffffffffff1673ffffffffffffffffffffffffffffffffffffffff16036130a6576040517f08c379a000000000000000000000000000000000000000000000000000000000815260040161309d9061590f565b60405180910390fd5b6130b08184613e93565b156130f0576040517f08c379a00000000000000000000000000000000000000000000000000000000081526004016130e790615a71565b60405180910390fd5b828160060160006101000a81548173ffffffffffffffffffffffffffffffffffffffff021916908373ffffffffffffffffffffffffffffffffffffffff16021790555050505050565b338073ffffffffffffffffffffffffffffffffffffffff16600660003373ffffffffffffffffffffffffffffffffffffffff1673ffffffffffffffffffffffffffffffffffffffff16815260200190815260200160002060000160009054906101000a900473ffffffffffffffffffffffffffffffffffffffff1673ffffffffffffffffffffffffffffffffffffffff161461320a576040517f08c379a000000000000000000000000000000000000000000000000000000000815260040161320190615add565b60405180910390fd5b6000600660003373ffffffffffffffffffffffffffffffffffffffff1673ffffffffffffffffffffffffffffffffffffffff16815260200190815260200160002090506000816003015411613294576040517f08c379a000000000000000000000000000000000000000000000000000000000815260040161328b90615b49565b60405180910390fd5b6000816003015490506000826003018190555060003373ffffffffffffffffffffffffffffffffffffffff16826040516132cd90615b9a565b60006040518083038185875af1925050503d806000811461330a576040519150601f19603f3d011682016040523d82523d6000602084013e61330f565b606091505b5050905080613353576040517f08c379a000000000000000000000000000000000000000000000000000000000815260040161334a90615bfb565b60405180910390fd5b7f09ad672d4e7c4892da934d1051932ebe9ec4b6ec8c3f40d569176db3e93e5abe3383604051613384929190615c1b565b60405180910390a150505050565b600481815481106133a257600080fd5b906000526020600020016000915054906101000a900473ffffffffffffffffffffffffffffffffffffffff1681565b338073ffffffffffffffffffffffffffffffffffffffff16600760003373ffffffffffffffffffffffffffffffffffffffff1673ffffffffffffffffffffffffffffffffffffffff16815260200190815260200160002060000160009054906101000a900473ffffffffffffffffffffffffffffffffffffffff1673ffffffffffffffffffffffffffffffffffffffff16146134a2576040517f08c379a000000000000000000000000000000000000000000000000000000000815260040161349990615837565b60405180910390fd5b600060149054906101000a900460ff1660ff1683111580156134c45750600083115b613503576040517f08c379a00000000000000000000000000000000000000000000000000000000081526004016134fa9061536e565b60405180910390fd5b60006005600085815260200190815260200160002090508060000160019054906101000a900473ffffffffffffffffffffffffffffffffffffffff1673ffffffffffffffffffffffffffffffffffffffff163373ffffffffffffffffffffffffffffffffffffffff161461357657600080fd5b60018160040160006101000a81548160ff02191690831515021790556135d1576040517f08c379a00000000000000000000000000000000000000000000000000000000081526004016135c890615c90565b60405180910390fd5b6000600860003373ffffffffffffffffffffffffffffffffffffffff1673ffffffffffffffffffffffffffffffffffffffff168152602001908152602001600020600086815260200190815260200160002054905060008111613669576040517f08c379a000000000000000000000000000000000000000000000000000000000815260040161366090615cfc565b60405180910390fd5b81600301548110156136b0576040517f08c379a00000000000000000000000000000000000000000000000000000000081526004016136a790615d68565b60405180910390fd5b6000600860003373ffffffffffffffffffffffffffffffffffffffff1673ffffffffffffffffffffffffffffffffffffffff1681526020019081526020016000206000878152602001908152602001600020819055506000600660008673ffffffffffffffffffffffffffffffffffffffff1673ffffffffffffffffffffffffffffffffffffffff16815260200190815260200160002090508181600301600082825461375d9190615466565b925050819055507f6e3c6096795c8298a218b2cfb8bde42726ff7c9a3d27b4d3ba41ab7f74feb5fb8686846040516137979392919061549a565b60405180910390a1505050505050565b6060600060149054906101000a900460ff1660ff1667ffffffffffffffff8111156137d5576137d4614a32565b5b60405190808252806020026020018201604052801561380e57816020015b6137fb613f79565b8152602001906001900390816137f35790505b50905060005b600060149054906101000a900460ff1660ff16811015613b1e5760056000828152602001908152602001600020604051806101000160405290816000820160009054906101000a900460ff1660ff1660ff1681526020016000820160019054906101000a900473ffffffffffffffffffffffffffffffffffffffff1673ffffffffffffffffffffffffffffffffffffffff1673ffffffffffffffffffffffffffffffffffffffff1681526020016001820180546138d0906151df565b80601f01602080910402602001604051908101604052809291908181526020018280546138fc906151df565b80156139495780601f1061391e57610100808354040283529160200191613949565b820191906000526020600020905b81548152906001019060200180831161392c57829003601f168201915b50505050508152602001600282018054613962906151df565b80601f016020809104026020016040519081016040528092919081815260200182805461398e906151df565b80156139db5780601f106139b0576101008083540402835291602001916139db565b820191906000526020600020905b8154815290600101906020018083116139be57829003601f168201915b50505050508152602001600382015481526020016004820160009054906101000a900460ff1615151515815260200160058201805480602002602001604051908101604052809291908181526020018280548015613a8e57602002820191906000526020600020905b8160009054906101000a900473ffffffffffffffffffffffffffffffffffffffff1673ffffffffffffffffffffffffffffffffffffffff1681526020019060010190808311613a44575b505050505081526020016006820160009054906101000a900473ffffffffffffffffffffffffffffffffffffffff1673ffffffffffffffffffffffffffffffffffffffff1673ffffffffffffffffffffffffffffffffffffffff1681525050828281518110613b0057613aff615210565b5b60200260200101819052508080613b169061526e565b915050613814565b5090565b6000600860008473ffffffffffffffffffffffffffffffffffffffff1673ffffffffffffffffffffffffffffffffffffffff168152602001908152602001600020600083815260200190815260200160002054905092915050565b600060149054906101000a900460ff1660ff168111158015613b9f5750600081115b613bde576040517f08c379a0000000000000000000000000000000000000000000000000000000008152600401613bd5906158a3565b60405180910390fd5b6000600560008381526020019081526020016000209050600073ffffffffffffffffffffffffffffffffffffffff168160000160019054906101000a900473ffffffffffffffffffffffffffffffffffffffff1673ffffffffffffffffffffffffffffffffffffffff1603613c88576040517f08c379a0000000000000000000000000000000000000000000000000000000008152600401613c7f9061590f565b60405180910390fd5b600073ffffffffffffffffffffffffffffffffffffffff163373ffffffffffffffffffffffffffffffffffffffff1603613cf7576040517f08c379a0000000000000000000000000000000000000000000000000000000008152600401613cee90615dd4565b60405180910390fd5b60005b8160050180549050811015613dca573373ffffffffffffffffffffffffffffffffffffffff16826005018281548110613d3657613d35615210565b5b9060005260206000200160009054906101000a900473ffffffffffffffffffffffffffffffffffffffff1673ffffffffffffffffffffffffffffffffffffffff1603613db7576040517f08c379a0000000000000000000000000000000000000000000000000000000008152600401613dae90615e40565b60405180910390fd5b8080613dc29061526e565b915050613cfa565b5080600501339080600181540180825580915050600190039060005260206000200160009091909190916101000a81548173ffffffffffffffffffffffffffffffffffffffff021916908373ffffffffffffffffffffffffffffffffffffffff1602179055507f2b443803772f6da2db17c7357119f932841870fdf0a3a5d8ca9d2e112bb13326828260000160019054906101000a900473ffffffffffffffffffffffffffffffffffffffff1633604051613e8793929190615e60565b60405180910390a15050565b60008173ffffffffffffffffffffffffffffffffffffffff168360060160009054906101000a900473ffffffffffffffffffffffffffffffffffffffff1673ffffffffffffffffffffffffffffffffffffffff1603613ef55760019050613efa565b600090505b92915050565b604051806101800160405280600073ffffffffffffffffffffffffffffffffffffffff168152602001606081526020016060815260200160008152602001606081526020016060815260200160608152602001606081526020016000815260200160001515815260200160608152602001606081525090565b604051806101000160405280600060ff168152602001600073ffffffffffffffffffffffffffffffffffffffff16815260200160608152602001606081526020016000815260200160001515815260200160608152602001600073ffffffffffffffffffffffffffffffffffffffff1681525090565b828054828255906000526020600020908101928215614068579160200282015b828111156140675782518260006101000a81548173ffffffffffffffffffffffffffffffffffffffff021916908373ffffffffffffffffffffffffffffffffffffffff1602179055509160200191906001019061400f565b5b50905061407591906140d6565b5090565b604051806101000160405280600073ffffffffffffffffffffffffffffffffffffffff1681526020016060815260200160608152602001600081526020016060815260200160608152602001600015158152602001606081525090565b5b808211156140ef5760008160009055506001016140d7565b5090565b6000604051905090565b600080fd5b600080fd5b600073ffffffffffffffffffffffffffffffffffffffff82169050919050565b600061413282614107565b9050919050565b61414281614127565b811461414d57600080fd5b50565b60008135905061415f81614139565b92915050565b60006020828403121561417b5761417a6140fd565b5b600061418984828501614150565b91505092915050565b61419b81614127565b82525050565b600081519050919050565b600082825260208201905092915050565b60005b838110156141db5780820151818401526020810190506141c0565b60008484015250505050565b6000601f19601f8301169050919050565b6000614203826141a1565b61420d81856141ac565b935061421d8185602086016141bd565b614226816141e7565b840191505092915050565b6000819050919050565b61424481614231565b82525050565b60008115159050919050565b61425f8161424a565b82525050565b60006101008201905061427b600083018b614192565b818103602083015261428d818a6141f8565b905081810360408301526142a181896141f8565b90506142b0606083018861423b565b81810360808301526142c281876141f8565b905081810360a08301526142d681866141f8565b90506142e560c0830185614256565b81810360e08301526142f781846141f8565b90509998505050505050505050565b600060208201905061431b600083018461423b565b92915050565b600060ff82169050919050565b61433781614321565b82525050565b6000602082019050614352600083018461432e565b92915050565b61436181614127565b82525050565b600082825260208201905092915050565b6000614383826141a1565b61438d8185614367565b935061439d8185602086016141bd565b6143a6816141e7565b840191505092915050565b6143ba81614231565b82525050565b6143c98161424a565b82525050565b6000610180830160008301516143e86000860182614358565b50602083015184820360208601526144008282614378565b9150506040830151848203604086015261441a8282614378565b915050606083015161442f60608601826143b1565b50608083015184820360808601526144478282614378565b91505060a083015184820360a08601526144618282614378565b91505060c083015184820360c086015261447b8282614378565b91505060e083015184820360e08601526144958282614378565b9150506101008301516144ac6101008601826143b1565b506101208301516144c16101208601826143c0565b506101408301518482036101408601526144db8282614378565b9150506101608301518482036101608601526144f78282614378565b9150508091505092915050565b6000602082019050818103600083015261451e81846143cf565b905092915050565b60006101808201905061453c600083018f614192565b818103602083015261454e818e6141f8565b90508181036040830152614562818d6141f8565b9050614571606083018c61423b565b8181036080830152614583818b6141f8565b905081810360a0830152614597818a6141f8565b905081810360c08301526145ab81896141f8565b905081810360e08301526145bf81886141f8565b90506145cf61010083018761423b565b6145dd610120830186614256565b8181036101408301526145f081856141f8565b905081810361016083015261460581846141f8565b90509d9c50505050505050505050505050565b600081519050919050565b600082825260208201905092915050565b6000819050602082019050919050565b60006101808301600083015161465d6000860182614358565b50602083015184820360208601526146758282614378565b9150506040830151848203604086015261468f8282614378565b91505060608301516146a460608601826143b1565b50608083015184820360808601526146bc8282614378565b91505060a083015184820360a08601526146d68282614378565b91505060c083015184820360c08601526146f08282614378565b91505060e083015184820360e086015261470a8282614378565b9150506101008301516147216101008601826143b1565b506101208301516147366101208601826143c0565b506101408301518482036101408601526147508282614378565b91505061016083015184820361016086015261476c8282614378565b9150508091505092915050565b60006147858383614644565b905092915050565b6000602082019050919050565b60006147a582614618565b6147af8185614623565b9350836020820285016147c185614634565b8060005b858110156147fd57848403895281516147de8582614779565b94506147e98361478d565b925060208a019950506001810190506147c5565b50829750879550505050505092915050565b60006020820190508181036000830152614829818461479a565b905092915050565b61483a81614231565b811461484557600080fd5b50565b60008135905061485781614831565b92915050565b600060208284031215614873576148726140fd565b5b600061488184828501614848565b91505092915050565b61489381614321565b82525050565b600081519050919050565b600082825260208201905092915050565b6000819050602082019050919050565b60006148d18383614358565b60208301905092915050565b6000602082019050919050565b60006148f582614899565b6148ff81856148a4565b935061490a836148b5565b8060005b8381101561493b57815161492288826148c5565b975061492d836148dd565b92505060018101905061490e565b5085935050505092915050565b600061010083016000830151614961600086018261488a565b5060208301516149746020860182614358565b506040830151848203604086015261498c8282614378565b915050606083015184820360608601526149a68282614378565b91505060808301516149bb60808601826143b1565b5060a08301516149ce60a08601826143c0565b5060c083015184820360c08601526149e682826148ea565b91505060e08301516149fb60e0860182614358565b508091505092915050565b60006020820190508181036000830152614a208184614948565b905092915050565b600080fd5b600080fd5b7f4e487b7100000000000000000000000000000000000000000000000000000000600052604160045260246000fd5b614a6a826141e7565b810181811067ffffffffffffffff82111715614a8957614a88614a32565b5b80604052505050565b6000614a9c6140f3565b9050614aa88282614a61565b919050565b600067ffffffffffffffff821115614ac857614ac7614a32565b5b614ad1826141e7565b9050602081019050919050565b82818337600083830152505050565b6000614b00614afb84614aad565b614a92565b905082815260208101848484011115614b1c57614b1b614a2d565b5b614b27848285614ade565b509392505050565b600082601f830112614b4457614b43614a28565b5b8135614b54848260208601614aed565b91505092915050565b600080600080600080600080610100898b031215614b7e57614b7d6140fd565b5b600089013567ffffffffffffffff811115614b9c57614b9b614102565b5b614ba88b828c01614b2f565b985050602089013567ffffffffffffffff811115614bc957614bc8614102565b5b614bd58b828c01614b2f565b975050604089013567ffffffffffffffff811115614bf657614bf5614102565b5b614c028b828c01614b2f565b965050606089013567ffffffffffffffff811115614c2357614c22614102565b5b614c2f8b828c01614b2f565b955050608089013567ffffffffffffffff811115614c5057614c4f614102565b5b614c5c8b828c01614b2f565b94505060a089013567ffffffffffffffff811115614c7d57614c7c614102565b5b614c898b828c01614b2f565b93505060c089013567ffffffffffffffff811115614caa57614ca9614102565b5b614cb68b828c01614b2f565b92505060e089013567ffffffffffffffff811115614cd757614cd6614102565b5b614ce38b828c01614b2f565b9150509295985092959890939650565b60008060408385031215614d0a57614d096140fd565b5b6000614d1885828601614848565b9250506020614d2985828601614150565b9150509250929050565b600080600080600060a08688031215614d4f57614d4e6140fd565b5b600086013567ffffffffffffffff811115614d6d57614d6c614102565b5b614d7988828901614b2f565b955050602086013567ffffffffffffffff811115614d9a57614d99614102565b5b614da688828901614b2f565b945050604086013567ffffffffffffffff811115614dc757614dc6614102565b5b614dd388828901614b2f565b935050606086013567ffffffffffffffff811115614df457614df3614102565b5b614e0088828901614b2f565b925050608086013567ffffffffffffffff811115614e2157614e20614102565b5b614e2d88828901614b2f565b9150509295509295909350565b600080600060608486031215614e5357614e526140fd565b5b600084013567ffffffffffffffff811115614e7157614e70614102565b5b614e7d86828701614b2f565b935050602084013567ffffffffffffffff811115614e9e57614e9d614102565b5b614eaa86828701614b2f565b9250506040614ebb86828701614848565b9150509250925092565b600061010083016000830151614ede6000860182614358565b5060208301518482036020860152614ef68282614378565b91505060408301518482036040860152614f108282614378565b9150506060830151614f2560608601826143b1565b5060808301518482036080860152614f3d8282614378565b91505060a083015184820360a0860152614f578282614378565b91505060c0830151614f6c60c08601826143c0565b5060e083015184820360e0860152614f848282614378565b9150508091505092915050565b60006020820190508181036000830152614fab8184614ec5565b905092915050565b6000602082019050614fc86000830184614192565b92915050565b600081519050919050565b600082825260208201905092915050565b6000819050602082019050919050565b600061010083016000830151615013600086018261488a565b5060208301516150266020860182614358565b506040830151848203604086015261503e8282614378565b915050606083015184820360608601526150588282614378565b915050608083015161506d60808601826143b1565b5060a083015161508060a08601826143c0565b5060c083015184820360c086015261509882826148ea565b91505060e08301516150ad60e0860182614358565b508091505092915050565b60006150c48383614ffa565b905092915050565b6000602082019050919050565b60006150e482614fce565b6150ee8185614fd9565b93508360208202850161510085614fea565b8060005b8581101561513c578484038952815161511d85826150b8565b9450615128836150cc565b925060208a01995050600181019050615104565b50829750879550505050505092915050565b6000602082019050818103600083015261516881846150d9565b905092915050565b60008060408385031215615187576151866140fd565b5b600061519585828601614150565b92505060206151a685828601614848565b9150509250929050565b7f4e487b7100000000000000000000000000000000000000000000000000000000600052602260045260246000fd5b600060028204905060018216806151f757607f821691505b60208210810361520a576152096151b0565b5b50919050565b7f4e487b7100000000000000000000000000000000000000000000000000000000600052603260045260246000fd5b7f4e487b7100000000000000000000000000000000000000000000000000000000600052601160045260246000fd5b600061527982614231565b91507fffffffffffffffffffffffffffffffffffffffffffffffffffffffffffffffff82036152ab576152aa61523f565b5b600182019050919050565b7f494a000000000000000000000000000000000000000000000000000000000000600082015250565b60006152ec6002836141ac565b91506152f7826152b6565b602082019050919050565b6000602082019050818103600083015261531b816152df565b9050919050565b7f4a44452e00000000000000000000000000000000000000000000000000000000600082015250565b60006153586004836141ac565b915061536382615322565b602082019050919050565b600060208201905081810360008301526153878161534b565b9050919050565b7f4a41430000000000000000000000000000000000000000000000000000000000600082015250565b60006153c46003836141ac565b91506153cf8261538e565b602082019050919050565b600060208201905081810360008301526153f3816153b7565b9050919050565b7f4941000000000000000000000000000000000000000000000000000000000000600082015250565b60006154306002836141ac565b915061543b826153fa565b602082019050919050565b6000602082019050818103600083015261545f81615423565b9050919050565b600061547182614231565b915061547c83614231565b92508282019050808211156154945761549361523f565b5b92915050565b60006060820190506154af600083018661423b565b6154bc6020830185614192565b6154c9604083018461423b565b949350505050565b7f4152000000000000000000000000000000000000000000000000000000000000600082015250565b60006155076002836141ac565b9150615512826154d1565b602082019050919050565b60006020820190508181036000830152615536816154fa565b9050919050565b60008190508160005260206000209050919050565b60006020601f8301049050919050565b600082821b905092915050565b60006008830261559f7fffffffffffffffffffffffffffffffffffffffffffffffffffffffffffffffff82615562565b6155a98683615562565b95508019841693508086168417925050509392505050565b6000819050919050565b60006155e66155e16155dc84614231565b6155c1565b614231565b9050919050565b6000819050919050565b615600836155cb565b61561461560c826155ed565b84845461556f565b825550505050565b600090565b61562961561c565b6156348184846155f7565b505050565b5b818110156156585761564d600082615621565b60018101905061563a565b5050565b601f82111561569d5761566e8161553d565b61567784615552565b81016020851015615686578190505b61569a61569285615552565b830182615639565b50505b505050565b600082821c905092915050565b60006156c0600019846008026156a2565b1980831691505092915050565b60006156d983836156af565b9150826002028217905092915050565b6156f2826141a1565b67ffffffffffffffff81111561570b5761570a614a32565b5b61571582546151df565b61572082828561565c565b600060209050601f8311600181146157535760008415615741578287015190505b61574b85826156cd565b8655506157b3565b601f1984166157618661553d565b60005b8281101561578957848901518255600182019150602085019450602081019050615764565b868310156157a657848901516157a2601f8916826156af565b8355505b6001600288020188555050505b505050505050565b60006040820190506157d06000830185614192565b81810360208301526157e281846141f8565b90509392505050565b7f4f45460000000000000000000000000000000000000000000000000000000000600082015250565b60006158216003836141ac565b915061582c826157eb565b602082019050919050565b6000602082019050818103600083015261585081615814565b9050919050565b7f4a44450000000000000000000000000000000000000000000000000000000000600082015250565b600061588d6003836141ac565b915061589882615857565b602082019050919050565b600060208201905081810360008301526158bc81615880565b9050919050565b7f4a4e460000000000000000000000000000000000000000000000000000000000600082015250565b60006158f96003836141ac565b9150615904826158c3565b602082019050919050565b60006020820190508181036000830152615928816158ec565b9050919050565b7f464e480000000000000000000000000000000000000000000000000000000000600082015250565b60006159656003836141ac565b91506159708261592f565b602082019050919050565b6000602082019050818103600083015261599481615958565b9050919050565b60006159a682614321565b915060ff82036159b9576159b861523f565b5b600182019050919050565b60006159df6159da6159d584614321565b6155c1565b614231565b9050919050565b6159ef816159c4565b82525050565b6000604082019050615a0a60008301856159e6565b8181036020830152615a1c81846141f8565b90509392505050565b7f4641480000000000000000000000000000000000000000000000000000000000600082015250565b6000615a5b6003836141ac565b9150615a6682615a25565b602082019050919050565b60006020820190508181036000830152615a8a81615a4e565b9050919050565b7f4f46460000000000000000000000000000000000000000000000000000000000600082015250565b6000615ac76003836141ac565b9150615ad282615a91565b602082019050919050565b60006020820190508181036000830152615af681615aba565b9050919050565b7f4e42570000000000000000000000000000000000000000000000000000000000600082015250565b6000615b336003836141ac565b9150615b3e82615afd565b602082019050919050565b60006020820190508181036000830152615b6281615b26565b9050919050565b600081905092915050565b50565b6000615b84600083615b69565b9150615b8f82615b74565b600082019050919050565b6000615ba582615b77565b9150819050919050565b7f5446000000000000000000000000000000000000000000000000000000000000600082015250565b6000615be56002836141ac565b9150615bf082615baf565b602082019050919050565b60006020820190508181036000830152615c1481615bd8565b9050919050565b6000604082019050615c306000830185614192565b615c3d602083018461423b565b9392505050565b7f4a4e430000000000000000000000000000000000000000000000000000000000600082015250565b6000615c7a6003836141ac565b9150615c8582615c44565b602082019050919050565b60006020820190508181036000830152615ca981615c6d565b9050919050565b7f4e46450000000000000000000000000000000000000000000000000000000000600082015250565b6000615ce66003836141ac565b9150615cf182615cb0565b602082019050919050565b60006020820190508181036000830152615d1581615cd9565b9050919050565b7f4946000000000000000000000000000000000000000000000000000000000000600082015250565b6000615d526002836141ac565b9150615d5d82615d1c565b602082019050919050565b60006020820190508181036000830152615d8181615d45565b9050919050565b7f49412e0000000000000000000000000000000000000000000000000000000000600082015250565b6000615dbe6003836141ac565b9150615dc982615d88565b602082019050919050565b60006020820190508181036000830152615ded81615db1565b9050919050565b7f5948410000000000000000000000000000000000000000000000000000000000600082015250565b6000615e2a6003836141ac565b9150615e3582615df4565b602082019050919050565b60006020820190508181036000830152615e5981615e1d565b9050919050565b6000606082019050615e75600083018661423b565b615e826020830185614192565b615e8f6040830184614192565b94935050505056fea2646970667358221220447a57aa11ccce7272b9e5749e37cdb881fd324eb07ea8982d3f1eb4298a801864736f6c63430008130033",
  "devdoc": {
    "kind": "dev",
    "methods": {
      "allJobs()": {
        "returns": {
          "props": "props"
        }
      },
      "applyForJob(uint256)": {
        "params": {
          "jobId": ", job id"
        }
      },
      "completeJob(uint256,address)": {
        "params": {
          "jobId": ", @param freelancerAddress"
        }
      },
      "createJob(string,string,uint256)": {
        "params": {
          "_title": ", @param _description, @param _budget"
        }
      },
      "depositFunds(uint256)": {
        "params": {
          "jobId": ", job id"
        }
      },
      "getEmployerByAddress(address)": {
        "params": {
          "_employer": ", address"
        },
        "returns": {
          "props": "props"
        }
      },
      "getEmployerEscrow(address,uint256)": {
        "params": {
          "_employer": ", @param _job_id"
        },
        "returns": {
          "_0": "uint"
        }
      },
      "getFreelancerByAddress(address)": {
        "params": {
          "_freelancer": ", address"
        },
        "returns": {
          "props": "props"
        }
      },
      "getJobByID(uint256)": {
        "params": {
          "jobId": ", jobId"
        },
        "returns": {
          "props": "props"
        }
      },
      "hireFreelancer(uint256,address)": {
        "params": {
          "jobId": ", @param freelancerAddress"
        }
      },
      "registerEmployer(string,string,string,string,string)": {
        "params": {
          "_name": ", @param _industry"
        }
      },
      "registerFreelancer(string,string,string,string,string,string,string,string)": {
        "params": {
          "_name": ", @param _skills"
        }
      },
      "releaseEscrow(uint256,address)": {
        "params": {
          "jobId": ", @param freelancerAddress"
        }
      }
    },
    "version": 1
  },
  "userdoc": {
    "kind": "user",
    "methods": {
      "allJobs()": {
        "notice": "retrieves all jobs"
      },
      "applyForJob(uint256)": {
        "notice": "job application"
      },
      "completeJob(uint256,address)": {
        "notice": "process job completion"
      },
      "createJob(string,string,uint256)": {
        "notice": "job creation and increment job count,"
      },
      "depositFunds(uint256)": {
        "notice": "process employer funds deposit for a specific job"
      },
      "getAllFreelancers()": {
        "notice": "return all freelancers"
      },
      "getEmployerByAddress(address)": {
        "notice": "retrieves employer by address"
      },
      "getEmployerEscrow(address,uint256)": {
        "notice": "retrieves employer escrow balance"
      },
      "getFreelancerByAddress(address)": {
        "notice": "retrieves freelancer by address"
      },
      "getJobByID(uint256)": {
        "notice": "retrieves job by ID"
      },
      "hireFreelancer(uint256,address)": {
        "notice": "hiring freelancer and check if freelancer is not already hired for the job"
      },
      "registerEmployer(string,string,string,string,string)": {
        "notice": "process employer registration"
      },
      "registerFreelancer(string,string,string,string,string,string,string,string)": {
        "notice": "process freelancer registration"
      },
      "releaseEscrow(uint256,address)": {
        "notice": "release escrow fund after successful completion of the job"
      },
      "withdrawEarnings()": {
        "notice": "process funds withdrawal to the freelancer after successful completion of a job"
      }
    },
    "version": 1
  },
  "storageLayout": {
    "storage": [
      {
        "astId": 565,
        "contract": "contracts/Freelancer.sol:Dfreelancer",
        "label": "owner",
        "offset": 0,
        "slot": "0",
        "type": "t_address"
      },
      {
        "astId": 567,
        "contract": "contracts/Freelancer.sol:Dfreelancer",
        "label": "totalJobs",
        "offset": 20,
        "slot": "0",
        "type": "t_uint8"
      },
      {
        "astId": 569,
        "contract": "contracts/Freelancer.sol:Dfreelancer",
        "label": "totalFreelancers",
        "offset": 0,
        "slot": "1",
        "type": "t_uint256"
      },
      {
        "astId": 571,
        "contract": "contracts/Freelancer.sol:Dfreelancer",
        "label": "totalEmployers",
        "offset": 0,
        "slot": "2",
        "type": "t_uint256"
      },
      {
        "astId": 573,
        "contract": "contracts/Freelancer.sol:Dfreelancer",
        "label": "totalCompletedJobs",
        "offset": 0,
        "slot": "3",
        "type": "t_uint256"
      },
      {
        "astId": 576,
        "contract": "contracts/Freelancer.sol:Dfreelancer",
        "label": "allFreelancerAddresses",
        "offset": 0,
        "slot": "4",
        "type": "t_array(t_address)dyn_storage"
      },
      {
        "astId": 641,
        "contract": "contracts/Freelancer.sol:Dfreelancer",
        "label": "jobs",
        "offset": 0,
        "slot": "5",
        "type": "t_mapping(t_uint256,t_struct(Job)594_storage)"
      },
      {
        "astId": 646,
        "contract": "contracts/Freelancer.sol:Dfreelancer",
        "label": "freelancers",
        "offset": 0,
        "slot": "6",
        "type": "t_mapping(t_address,t_struct(Freelancer)619_storage)"
      },
      {
        "astId": 651,
        "contract": "contracts/Freelancer.sol:Dfreelancer",
        "label": "employers",
        "offset": 0,
        "slot": "7",
        "type": "t_mapping(t_address,t_struct(Employer)636_storage)"
      },
      {
        "astId": 657,
        "contract": "contracts/Freelancer.sol:Dfreelancer",
        "label": "escrowFunds",
        "offset": 0,
        "slot": "8",
        "type": "t_mapping(t_address,t_mapping(t_uint256,t_uint256))"
      }
    ],
    "types": {
      "t_address": {
        "encoding": "inplace",
        "label": "address",
        "numberOfBytes": "20"
      },
      "t_array(t_address)dyn_storage": {
        "base": "t_address",
        "encoding": "dynamic_array",
        "label": "address[]",
        "numberOfBytes": "32"
      },
      "t_bool": {
        "encoding": "inplace",
        "label": "bool",
        "numberOfBytes": "1"
      },
      "t_mapping(t_address,t_mapping(t_uint256,t_uint256))": {
        "encoding": "mapping",
        "key": "t_address",
        "label": "mapping(address => mapping(uint256 => uint256))",
        "numberOfBytes": "32",
        "value": "t_mapping(t_uint256,t_uint256)"
      },
      "t_mapping(t_address,t_struct(Employer)636_storage)": {
        "encoding": "mapping",
        "key": "t_address",
        "label": "mapping(address => struct Djob.Employer)",
        "numberOfBytes": "32",
        "value": "t_struct(Employer)636_storage"
      },
      "t_mapping(t_address,t_struct(Freelancer)619_storage)": {
        "encoding": "mapping",
        "key": "t_address",
        "label": "mapping(address => struct Djob.Freelancer)",
        "numberOfBytes": "32",
        "value": "t_struct(Freelancer)619_storage"
      },
      "t_mapping(t_uint256,t_struct(Job)594_storage)": {
        "encoding": "mapping",
        "key": "t_uint256",
        "label": "mapping(uint256 => struct Djob.Job)",
        "numberOfBytes": "32",
        "value": "t_struct(Job)594_storage"
      },
      "t_mapping(t_uint256,t_uint256)": {
        "encoding": "mapping",
        "key": "t_uint256",
        "label": "mapping(uint256 => uint256)",
        "numberOfBytes": "32",
        "value": "t_uint256"
      },
      "t_string_storage": {
        "encoding": "bytes",
        "label": "string",
        "numberOfBytes": "32"
      },
      "t_struct(Employer)636_storage": {
        "encoding": "inplace",
        "label": "struct Djob.Employer",
        "members": [
          {
            "astId": 621,
            "contract": "contracts/Freelancer.sol:Dfreelancer",
            "label": "employerAddress",
            "offset": 0,
            "slot": "0",
            "type": "t_address"
          },
          {
            "astId": 623,
            "contract": "contracts/Freelancer.sol:Dfreelancer",
            "label": "name",
            "offset": 0,
            "slot": "1",
            "type": "t_string_storage"
          },
          {
            "astId": 625,
            "contract": "contracts/Freelancer.sol:Dfreelancer",
            "label": "industry",
            "offset": 0,
            "slot": "2",
            "type": "t_string_storage"
          },
          {
            "astId": 627,
            "contract": "contracts/Freelancer.sol:Dfreelancer",
            "label": "balance",
            "offset": 0,
            "slot": "3",
            "type": "t_uint256"
          },
          {
            "astId": 629,
            "contract": "contracts/Freelancer.sol:Dfreelancer",
            "label": "country",
            "offset": 0,
            "slot": "4",
            "type": "t_string_storage"
          },
          {
            "astId": 631,
            "contract": "contracts/Freelancer.sol:Dfreelancer",
            "label": "image",
            "offset": 0,
            "slot": "5",
            "type": "t_string_storage"
          },
          {
            "astId": 633,
            "contract": "contracts/Freelancer.sol:Dfreelancer",
            "label": "registered",
            "offset": 0,
            "slot": "6",
            "type": "t_bool"
          },
          {
            "astId": 635,
            "contract": "contracts/Freelancer.sol:Dfreelancer",
            "label": "registration_date",
            "offset": 0,
            "slot": "7",
            "type": "t_string_storage"
          }
        ],
        "numberOfBytes": "256"
      },
      "t_struct(Freelancer)619_storage": {
        "encoding": "inplace",
        "label": "struct Djob.Freelancer",
        "members": [
          {
            "astId": 596,
            "contract": "contracts/Freelancer.sol:Dfreelancer",
            "label": "freelancerAddress",
            "offset": 0,
            "slot": "0",
            "type": "t_address"
          },
          {
            "astId": 598,
            "contract": "contracts/Freelancer.sol:Dfreelancer",
            "label": "name",
            "offset": 0,
            "slot": "1",
            "type": "t_string_storage"
          },
          {
            "astId": 600,
            "contract": "contracts/Freelancer.sol:Dfreelancer",
            "label": "skills",
            "offset": 0,
            "slot": "2",
            "type": "t_string_storage"
          },
          {
            "astId": 602,
            "contract": "contracts/Freelancer.sol:Dfreelancer",
            "label": "balance",
            "offset": 0,
            "slot": "3",
            "type": "t_uint256"
          },
          {
            "astId": 604,
            "contract": "contracts/Freelancer.sol:Dfreelancer",
            "label": "country",
            "offset": 0,
            "slot": "4",
            "type": "t_string_storage"
          },
          {
            "astId": 606,
            "contract": "contracts/Freelancer.sol:Dfreelancer",
            "label": "image",
            "offset": 0,
            "slot": "5",
            "type": "t_string_storage"
          },
          {
            "astId": 608,
            "contract": "contracts/Freelancer.sol:Dfreelancer",
            "label": "gigTitle",
            "offset": 0,
            "slot": "6",
            "type": "t_string_storage"
          },
          {
            "astId": 610,
            "contract": "contracts/Freelancer.sol:Dfreelancer",
            "label": "gitDescription",
            "offset": 0,
            "slot": "7",
            "type": "t_string_storage"
          },
          {
            "astId": 612,
            "contract": "contracts/Freelancer.sol:Dfreelancer",
            "label": "jobsCompleted",
            "offset": 0,
            "slot": "8",
            "type": "t_uint256"
          },
          {
            "astId": 614,
            "contract": "contracts/Freelancer.sol:Dfreelancer",
            "label": "registered",
            "offset": 0,
            "slot": "9",
            "type": "t_bool"
          },
          {
            "astId": 616,
            "contract": "contracts/Freelancer.sol:Dfreelancer",
            "label": "registration_date",
            "offset": 0,
            "slot": "10",
            "type": "t_string_storage"
          },
          {
            "astId": 618,
            "contract": "contracts/Freelancer.sol:Dfreelancer",
            "label": "starting_price",
            "offset": 0,
            "slot": "11",
            "type": "t_string_storage"
          }
        ],
        "numberOfBytes": "384"
      },
      "t_struct(Job)594_storage": {
        "encoding": "inplace",
        "label": "struct Djob.Job",
        "members": [
          {
            "astId": 578,
            "contract": "contracts/Freelancer.sol:Dfreelancer",
            "label": "id",
            "offset": 0,
            "slot": "0",
            "type": "t_uint8"
          },
          {
            "astId": 580,
            "contract": "contracts/Freelancer.sol:Dfreelancer",
            "label": "employer",
            "offset": 1,
            "slot": "0",
            "type": "t_address"
          },
          {
            "astId": 582,
            "contract": "contracts/Freelancer.sol:Dfreelancer",
            "label": "title",
            "offset": 0,
            "slot": "1",
            "type": "t_string_storage"
          },
          {
            "astId": 584,
            "contract": "contracts/Freelancer.sol:Dfreelancer",
            "label": "description",
            "offset": 0,
            "slot": "2",
            "type": "t_string_storage"
          },
          {
            "astId": 586,
            "contract": "contracts/Freelancer.sol:Dfreelancer",
            "label": "budget",
            "offset": 0,
            "slot": "3",
            "type": "t_uint256"
          },
          {
            "astId": 588,
            "contract": "contracts/Freelancer.sol:Dfreelancer",
            "label": "completed",
            "offset": 0,
            "slot": "4",
            "type": "t_bool"
          },
          {
            "astId": 591,
            "contract": "contracts/Freelancer.sol:Dfreelancer",
            "label": "applicants",
            "offset": 0,
            "slot": "5",
            "type": "t_array(t_address)dyn_storage"
          },
          {
            "astId": 593,
            "contract": "contracts/Freelancer.sol:Dfreelancer",
            "label": "hiredFreelancer",
            "offset": 0,
            "slot": "6",
            "type": "t_address"
          }
        ],
        "numberOfBytes": "224"
      },
      "t_uint256": {
        "encoding": "inplace",
        "label": "uint256",
        "numberOfBytes": "32"
      },
      "t_uint8": {
        "encoding": "inplace",
        "label": "uint8",
        "numberOfBytes": "1"
      }
    }
  }
}